:020000040800F2
:1000000000000824511900082111000823110008DC
:100010002511000827110008291100080000000020
:100020000000000000000000000000002B1100088C
:100030002D110008000000002F11000831110008E8
:10004000A1190008A1190008A1190008A1190008A8
:10005000A1190008A1190008A1190008A119000898
:10006000A1190008A119000839110008A1190008F8
:10007000A1190008A1190008A1190008A119000878
:10008000A1190008A1190008A1190008A119000868
:10009000A1190008A1190008A1190008A119000858
:1000A0004511000855110008A1190008A119000800
:1000B000651100087511000885110008A1190008D4
:1000C000A1190008A1190008A1190008951100083C
:1000D000A1190008A5110008A1190008A11900081C
:1000E000A1190008A119000800000000A1190008CA
:1000F000A1190008A1190008A1190008A1190008F8
:10010000A1190008A1190008B5110008A1190008DB
:10011000A1190008A1190008A1190008A1190008D7
:10012000A1190008A1190008A1190008A1190008C7
:10013000A1190008A1190008A1190008A1190008B7
:1001400000000000000000000000000000000000AF
:10015000A1190008A1190008A1190008A119000897
:10016000A1190008A1190008A1190008A119000887
:10017000A1190008A1190008A1190008A119000877
:10018000A1190008A1190008A1190008A119000867
:10019000A1190008A1190008A1190008A119000857
:1001A000A1190008A1190008A1190008A119000847
:1001B000A1190008A1190008A1190008A119000837
:1001C000A1190008A1190008A1190008A119000827
:1001D000A1190008A1190008A1190008A119000817
:1001E000A1190008A1190008A1190008A119000807
:1001F000A1190008A1190008A1190008A1190008F7
:10020000A1190008A1190008A1190008A1190008E6
:10021000A1190008A1190008A1190008A1190008D6
:10022000A1190008A1190008A11900080000000088
:10023000A1190008A119000800000000A119000878
:10024000A1190008A1190008A1190008A1190008A6
:10025000A1190008A1190008A1190008A119000896
:10026000A1190008A1190008A1190008A119000886
:10027000A1190008A1190008A11900080000000038
:10028000A1190008A1190008A11900080000000028
:0802900000000000A1190008A4
:1002980010B5054C237833B9044B13B10448AFF3B8
:1002A80000800123237010BD3C04002400000000DE
:1002B800FC69000808B5034B1BB103490348AFF3B9
:1002C800008008BD0000000040040024FC6900080C
:1002D80080F0004002E000BF81F0004142001FBFF3
:1002E8005FEA410392EA030F7FEA226C7FEA236CFC
:1002F8006AD04FEA1262D2EB1363C1BFD2184140F1
:1003080048404140B8BF5B42192B88BF704710F086
:10031800004F40F4000020F07F4018BF404211F029
:10032800004F41F4000121F07F4118BF494292EA91
:10033800030F3FD0A2F1010241FA03FC10EB0C00BD
:10034800C3F1200301FA03F100F0004302D549424A
:1003580060EB4000B0F5000F13D3B0F1807F06D3F7
:1003680040084FEA310102F10102FE2A51D2B1F1EF
:10037800004F40EBC25008BF20F0010040EA0300E4
:100388007047490040EB0000013A28BFB0F5000F64
:10039800EDD2B0FA80FCACF1080CB2EB0C0200FA1A
:1003A8000CF0AABF00EBC25052421843BCBFD04069
:1003B8001843704792F0000F81F4000106BF80F4E3
:1003C80000000132013BB5E74FEA41037FEA226CA6
:1003D80018BF7FEA236C21D092EA030F04D092F071
:1003E800000F08BF0846704790EA010F1CBF0020A5
:1003F800704712F07F4F04D1400028BF40F0004002
:10040800704712F100723CBF00F50000704700F021
:10041800004343F0FE4040F4000070477FEA226248
:1004280016BF08467FEA23630146420206BF5FEA19
:10043800412390EA010F40F4800070474FF0000319
:1004480004E000BF10F0004348BF40425FEA000CE0
:1004580008BF704743F0964301464FF000001CE088
:1004680050EA010208BF70474FF000030AE000BFDE
:1004780050EA010208BF704711F0004302D540421C
:1004880061EB41015FEA010C02BF8446014600208E
:1004980043F0B64308BFA3F18053A3F50003BCFAA9
:1004A8008CF2083AA3EBC25310DB01FA02FC634456
:1004B80000FA02FCC2F12002BCF1004F20FA02F25D
:1004C80043EB020008BF20F00100704702F1200250
:1004D80001FA02FCC2F1200250EA4C0021FA02F2B1
:1004E80043EB020008BF20EADC7070474FF0FF0CB6
:1004F8001CEAD0521EBF1CEAD15392EA0C0F93EAB1
:100508000C0F6FD01A4480EA010C400218BF5FEA52
:1005180041211ED04FF0006343EA501043EA5111C5
:10052800A0FB01310CF00040B1F5000F3EBF4900BF
:1005380041EAD3715B0040EA010062F17F02FD2AC3
:100548001DD8B3F1004F40EBC25008BF20F00100A6
:10055800704790F0000F0CF0004C08BF49024CEABD
:10056800502040EA51207F3AC2BFD2F1FF0340EA4F
:10057800C250704740F400004FF00003013A5DDCC0
:1005880012F1190FDCBF00F000407047C2F1000201
:10059800410021FA02F1C2F1200200FA02FC5FEAEE
:1005A800310040F1000053EA4C0308BF20EADC7038
:1005B800704792F0000F00F0004C02BF400010F4AA
:1005C800000F013AF9D040EA0C0093F0000F01F057
:1005D800004C02BF490011F4000F013BF9D041EA79
:1005E8000C018FE70CEAD15392EA0C0F18BF93EA7B
:1005F8000C0F0AD030F0004C18BF31F0004CD8D1A5
:1006080080EA010000F00040704790F0000F17BF2B
:1006180090F0004F084691F0000F91F0004F14D071
:1006280092EA0C0F01D142020FD193EA0C0F03D1C9
:100638004B0218BF084608D180EA010000F00040CC
:1006480040F0FE4040F40000704740F0FE4040F4A7
:10065800400070474FF0FF0C1CEAD0521EBF1CEA46
:10066800D15392EA0C0F93EA0C0F69D0A2EB030264
:1006780080EA010C49024FEA402037D04FF08053FE
:1006880043EA111143EA10130CF000408B4238BFC3
:100698005B0042F17D024FF4000C8B4224BF5B1AD1
:1006A80040EA0C00B3EB510F24BFA3EB510340EA1F
:1006B8005C00B3EB910F24BFA3EB910340EA9C00CD
:1006C800B3EBD10F24BFA3EBD10340EADC001B013D
:1006D80018BF5FEA1C1CE0D1FD2A3FF650AF8B42E1
:1006E80040EBC25008BF20F0010070470CF0004CEE
:1006F8004CEA50207F32C2BFD2F1FF0340EAC25019
:10070800704740F400004FF00003013A37E792F0D9
:10071800000F00F0004C02BF400010F4000F013A37
:10072800F9D040EA0C0093F0000F01F0004C02BF32
:10073800490011F4000F013BF9D041EA0C0195E79B
:100748000CEAD15392EA0C0F08D142027FF47DAF34
:1007580093EA0C0F7FF470AF084676E793EA0C0F24
:1007680004D14B023FF44CAF08466EE730F0004C22
:1007780018BF31F0004CCAD130F000427FF45CAFB2
:1007880031F000437FF43CAF5FE700BF42000ED278
:10079800B2F1FE4F0BD34FF09E03B3EB126209D4B4
:1007A8004FEA002343F0004323FA02F070474FF06A
:1007B8000000704712F1610F01D1420202D14FF0DF
:1007C800FF3070474FF00000704700BF53B94AB977
:1007D800002908BF00281CBF4FF0FF314FF0FF3041
:1007E80000F074B9ADF1080C6DE904CE00F006F81C
:1007F800DDF804E0DDE9022304B070472DE9F04795
:10080800089E0D4604468846002B4DD18A429446E0
:1008180068D9B2FA82F252B101FA02F3C2F12001A8
:1008280020FA01F10CFA02FC41EA030894404FEA6D
:100838001C45210CB8FBF5FE1FFA8CF705FB1E833F
:1008480041EA03430EFB07F199420BD91CEB030362
:100858000EF1FF3080F01E81994240F21B81AEF10B
:10086800020E63445B1AA4B2B3FBF5F005FB103328
:1008780044EA034400FB07F7A7420AD91CEB040427
:1008880000F1FF3380F00881A74240F205816444FB
:100898000238E41B40EA0E4000211EB1D440002378
:1008A800C6E90043BDE8F0878B4208D9002E00F066
:1008B800EE800021C6E900050846BDE8F087B3FAD6
:1008C80083F100294AD1AB4202D3824200F2F98077
:1008D800841A65EB030301209846002EE2D0C6E98E
:1008E8000048DFE702B9FFDEB2FA82F2002A40F0E0
:1008F8009180A1EB0C054FEA1C471FFA8CFE0121E1
:10090800B5FBF7F307FB1350250C45EA00450EFB32
:1009180003F0A84208D91CEB050503F1FF3802D201
:10092800A84200F2CB8043462D1AA4B2B5FBF7F0DB
:1009380007FB105544EA05440EFB00FEA64508D9FE
:100948001CEB040400F1FF3502D2A64500F2BB807F
:100958002846A4EB0E0440EA03409EE7C1F12007B5
:100968008B4022FA07FC4CEA030C20FA07F405FA3C
:1009780001F31C43FD404FEA1C4900FA01F3B5FBA3
:10098800F9F8200C1FFA8CFE09FB185540EA0545BA
:1009980008FB0EF0A84202FA01F20BD91CEB050580
:1009A80008F1FF3A80F08880A84240F28580A8F1DB
:1009B800020865442D1AA4B2B5FBF9F009FB1055DD
:1009C80044EA054500FB0EFEAE4508D91CEB0505BB
:1009D80000F1FF346CD2AE456AD90238654440EA6A
:1009E8000840A0FB0294A5EB0E05A542C846A64602
:1009F80056D353D05EB1B3EB080265EB0E0505FA8A
:100A080007F722FA01F3CD401F43C6E9007500211C
:100A1800BDE8F087C2F1200320FA03F10CFA02FCCA
:100A280025FA03F395400D434FEA1C471FFA8CFE45
:100A3800B3FBF7F107FB11302B0C43EA004301FB32
:100A48000EF0984204FA02F408D91CEB030301F1F2
:100A5800FF382FD298422DD9023963441B1AADB200
:100A6800B3FBF7F007FB103345EA034500FB0EF331
:100A7800AB4208D91CEB050500F1FF3816D2AB4292
:100A880014D902386544ED1A40EA014138E7314685
:100A9800304607E78646E5E61846FAE64B45A9D20A
:100AA800B9EB020864EB0C0E0138A3E74046EAE70D
:100AB800204694E74146D1E7D0467BE7023B6544B0
:100AC80032E7084609E76444023842E7704700BF46
:100AD80070B504460E461546002210210E4801F056
:100AE80035FC0E4A00231370547006E0981C16F863
:100AF80003C00A4C04F800C001339D42F6DC6423AD
:100B0800AA1C0649064803F049FC012210210248A4
:100B180001F01CFC002070BD00000258580400249D
:100B28005805002410B483B0019018E04FF46174A4
:100B38004FF0E0239A69A4EB04135901891816D4DD
:100B48004FF0E0239B699A42D4BF002001209942CC
:100B5800C8BF00200028F3D1019B1B1B0193019BF8
:100B6800ABB1019BB3F5617FE0D8019CE0E7094890
:100B780008444FF0E02399698842ACBF0023012361
:100B88008A42A8BF43F00103002BF2D1E4E703B087
:100B980010BC704700530700F8B504460D461646CA
:100BA8000B4F00221021384601F0D0FB1420FFF72C
:100BB800B9FF324629462046FFF78AFF1420FFF77F
:100BC800B1FF01221021384601F0C0FBF8BD00BF7B
:100BD8000000025810B588B0214803F017FB012423
:100BE8008DF80040224669461420FFF7D5FF8DF89E
:100BF8000440224601A91420FFF7CEFF10238DF8E8
:100C08000830224602A93020FFF7C6FF00238DF8DE
:100C18000C30224603A90D20FFF7BEFF80238DF874
:100C28001030224604A90820FFF7B6FF03238DF8E9
:100C38001430224605A90520FFF7AEFF1C238DF8C6
:100C48001830224606A91720FFF7A6FF8DF81C408A
:100C5800224607A9FF20FFF79FFF08B010BD00BF7D
:100C6800580500242DE9F0438DB00024079408941A
:100C780009940A940B94444BD3F8E02042F0800284
:100C8800C3F8E020D3F8E02002F080020192019A34
:100C9800D3F8E02042F00102C3F8E020D3F8E020C6
:100CA80002F001020292029AD3F8E02042F0040214
:100CB800C3F8E020D3F8E02002F004020392039A7C
:100CC800D3F8E02042F00202C3F8E020D3F8E02095
:100CD80002F002020492049AD3F8E02042F01002D3
:100CE800C3F8E020D3F8E02002F010020592059A3C
:100CF800D3F8E02042F00802C3F8E020D3F8E0304F
:100D080003F008030693069BDFF880902246102123
:100D1800484601F01BFB1E4D22460521284601F0DE
:100D280015FB4FF01008CDF81C800127089709948F
:100D380003260A9607A9484601F0F4F9CDF81C8065
:100D48004FF488130893099407A9124801F0EAF9A7
:100D580005230793089709940A9607A9284601F0DE
:100D6800E1F9022307930894099407A9284601F09A
:100D7800D9F9224621460A2000F0A4FE0A2000F0F4
:100D8800D7FE0DB0BDE8F0830044025800000258B9
:100D9800000402580008025872B6FEE700B59FB07A
:100DA8004C2200210BA805F063FD2022002103A896
:100DB80005F05EFD022001F0DFFA002300933A4BB4
:100DC800DA6A22F00102DA62DB6A03F001030093B7
:100DD800364B9A6942F440429A619B6903F4404356
:100DE8000093009B314B9B6913F4005FFAD0304BA2
:100DF800D3F8F42042F00202C3F8F420D3F8F43018
:100E080003F002030193019B00230293274B9A6985
:100E180042F440429A619B6903F440430293224B97
:100E2800DA6A42F00102DA62DB6A03F00103029334
:100E3800029B1E4B9B6913F4005FFAD003230B93AC
:100E48004FF480330C9301230E9340230F93022316
:100E5800149315931693F0221792189319931A93D3
:100E680008231B9300231C931D930BA801F0AEFAD3
:100E7800B0B93F2303930323049300230593082366
:100E880006934023079308934FF4806209920A93CC
:100E9800042103A801F000FF20B91FB05DF804FB8E
:100EA800FFF77AFFFFF778FF000400580048025860
:100EB8000044025800B5B1B0C0220021684605F0D0
:100EC800D7FC4FF000420023CDE90023684602F02A
:100ED8007FF910B931B05DF804FBFFF75DFF000042
:100EE80008B53D4B5B6913F4003F13D1BFF34F8F37
:100EF800BFF36F8F384B0022C3F85022BFF34F8FD8
:100F0800BFF36F8F5A6942F400325A61BFF34F8FB3
:100F1800BFF36F8F304B5B6913F4803F27D12E4BA3
:100F28000022C3F88420BFF34F8FD3F88040C4F366
:100F38004E3000E01846C4F3C90243F6E07303EAF2
:100F4800401343EA82732449C1F860321346013AD8
:100F5800002BF2D1431E0028ECD1BFF34F8F4B6911
:100F680043F480334B61BFF34F8FBFF36F8F00F0B3
:100F78003DFDFFF713FFFFF79DFFFFF773FE00F03E
:100F880033F800F059FC00F0ADFB00F075F900F003
:100F9800A9F900F001FA00F009FC00210F4804F05B
:100FA8001DFB08210E4804F019FBFFF713FE0D4C3A
:100FB80000220421204601F0C9F94FF4FA7000F02C
:100FC80055FD01220421204601F0C0F94FF4FA70C2
:100FD80000F04CFDEBE700BF00ED00E0E005002469
:100FE800100700240004025808B51448144B036085
:100FF8004FF4800343604FF4C02383600723C3602A
:101008000023036143614FF080628261C361036220
:1010180043628362C3624FF0804242638363C36367
:10102800036443648364C36403654365836503F0B1
:10103800EDF800B908BDFFF7AFFEFBE7580500243F
:101048000030014010B5B8B0044600213391349106
:10105800359136913791C02202A805F009FC226823
:10106800214B9A4201D038B010BD4FF48052002372
:10107800CDE902234FF480431A9302A802F0A8F89E
:1010880070BB1A4BD3F8F02042F48052C3F8F0201A
:10109800D3F8F02002F480520092009AD3F8E020AE
:1010A80042F00102C3F8E020D3F8E03003F0010376
:1010B8000193019BA0233393022334930024359496
:1010C80036940523379333A9094801F02BF82246B3
:1010D8002146232000F0F6FC232000F029FDC2E77A
:1010E800FFF75AFECDE700BF003001400044025828
:1010F8000000025882B0074BD3F8F42042F00202F5
:10110800C3F8F420D3F8F43003F002030193019BF1
:1011180002B0704700440258FEE7FEE7FEE7FEE72C
:10112800FEE770477047704708B500F08DFC08BDB2
:1011380008B5102001F011F908BD000008B50248F3
:1011480003F08FFD08BD00BFE005002408B5024884
:1011580003F087FD08BD00BFE005002408B502487C
:1011680003F07FFD08BD00BF2C06002408B5024827
:1011780003F077FD08BD00BF7806002408B50248D3
:1011880003F06FFD08BD00BFC406002408B502487F
:1011980003F080FA08BD00BF5805002408B50248CE
:1011A80004F090FC08BD00BF5C07002408B50248A5
:1011B80003F057FD08BD00BF10070024244B1B682F
:1011C80003F00F03062B06D8214A136823F00F03F8
:1011D80043F0070313601F4B1A6842F001021A60BC
:1011E80000221A6119681C4A0A401A60184B1B68C9
:1011F80013F0080F06D0164A136823F00F0343F0C4
:1012080007031360134B00229A61DA611A621349CB
:1012180099621349D962134919635A639963DA6366
:1012280019645A64196821F4802119601A660E4BF2
:101238001A680E4B1340B3F1005F03D20C4B012226
:10124800C3F808210B4B43F2D2021A60704700BF63
:1012580000200052004402587FEDF6EA0002020224
:101268000000FF01800201010010005C0000FFFF88
:10127800008000510040005200B58DB024220021AA
:1012880003A805F0F5FA002300930193029314488C
:101298004FF0804202600322426083604FF0FF32C9
:1012A800C2600361836101230393059305220792BA
:1012B80009930B9203A903F0B3FE50B900230093DE
:1012C80002936946064804F015FB28B90DB05DF88D
:1012D80004FBFFF761FDF1E7FFF75EFDF6E700BFEE
:1012E8002C06002400B58DB00023079308930993BA
:1012F8000A930B9304930593069300930193029327
:1013080003932348234A026017224260836009221C
:10131800C2600361836103F0F3FD48BB1C4803F01E
:101328004FFE40BB042307935023089300230993DF
:101338000B9307A9164804F019F9F8B90023049388
:10134800069304A9124804F0D5FAD0B900220092F5
:10135800012301930292039269460D4803F0F0FFBE
:1013680090B900210A4804F0EDF90DB05DF804FBCE
:10137800FFF712FDD2E7FFF70FFDD3E7FFF70CFDEC
:10138800DCE7FFF709FDE1E7FFF706FDE9E700BF46
:10139800780600240004004000B58DB000230793B0
:1013A800089309930A930B93049305930693009368
:1013B8000193029303932348234A02600422426064
:1013C80083600222C2600361836103F099FD48BB18
:1013D8001C4803F0F5FD40BB0423079350230893F2
:1013E800002309930B9307A9164804F0BFF8F8B92E
:1013F80000230493069304A9124804F07BFAD0B999
:1014080000220092012301930292039269460D483B
:1014180003F096FF90B900210A4804F093F90DB043
:101428005DF804FBFFF7B8FCD2E7FFF7B5FCD3E79C
:10143800FFF7B2FCDCE7FFF7AFFCE1E7FFF7ACFC36
:10144800E9E700BFC40600240008004000B583B0E7
:1014580003681E4A934205D01D4A934220D003B028
:101468005DF804FB1B4BD3F8F02042F00102C3F8EF
:10147800F020D3F8F03003F001030093009B002222
:101488001146182000F01EFB182000F051FB002226
:101498001146192000F016FB192000F049FBDEE781
:1014A8000C4BD3F8E82042F00802C3F8E820D3F840
:1014B800E83003F008030193019B00221146322013
:1014C80000F000FB322000F033FBC8E700000140C9
:1014D800000C00400044025800B589B00023039373
:1014E80004930593069307930368B3F1804F02D0E2
:1014F80009B05DF804FB164BD3F8E82042F001026E
:10150800C3F8E820D3F8E82002F001020192019A1A
:10151800D3F8E02042F00102C3F8E020D3F8E0302D
:1015280003F001030293029B032303930223049312
:101538000123079303A9074800F0F4FD0022114690
:101548001C2000F0BFFA1C2000F0F2FAD0E700BF20
:10155800004402580000025800B58BB000230593E0
:1015680006930793089309930368324A934205D078
:10157800314A93422FD00BB05DF804FB2F4BD3F8C0
:10158800E82042F00202C3F8E820D3F8E82002F08D
:1015980002020192019AD3F8E02042F00102C3F856
:1015A800E020D3F8E03003F001030293029B4023CC
:1015B80005930223069303220892099305A920485C
:1015C80000F0B0FD002211461D2000F07BFA1D201E
:1015D80000F0AEFACFE7194BD3F8E82042F0040246
:1015E800C3F8E820D3F8E82002F004020392039A33
:1015F800D3F8E02042F00802C3F8E020D3F8E03046
:1016080003F008030493049B4FF4805305930223CB
:10161800069303220892099305A90A4800F082FD5F
:10162800002211461E2000F04DFA1E2000F080FA1C
:10163800A1E700BF00040040000800400044025831
:1016480000000258000C025800B589B0002303932B
:10165800049305930693079303681D4A934205D0A4
:101668001C4A93421DD009B05DF804FB1A4BD3F80D
:10167800E02042F01002C3F8E020D3F8E03003F095
:1016880010030193019B4FF4007303930223049307
:10169800032306930123079303A9104800F042FD92
:1016A800E1E70D4BD3F8E02042F00102C3F8E02057
:1016B800D3F8E03003F001030293029B0423039361
:1016C80002230493079303A9054800F02BFDCAE7FA
:1016D80000000140000C004000440258001002586D
:1016E8000000025810B596B0002413941494159471
:1016F8000C940D940E940F941094119412942C221F
:10170800214601A805F0B4F82648274B03601723A3
:10171800436084600923C36004614461846103F009
:101728001FFC002832D1002313931493159313A997
:101738001C4804F0DFF800282BD160230C93052304
:101748000D9300220E920F921092119212920CA9F0
:10175800144803F00DFDF8B9002301930293039395
:10176800049305934FF400520692079308934FF0A1
:10177800007209920A930B9301A90A4804F00AF926
:1017880068B90848FFF760FF16B010BDFFF704FB03
:10179800C9E7FFF701FBD0E7FFF7FEFADCE7FFF741
:1017A800FBFAEEE7E00500240000014000B58BB02D
:1017B80000230793089309930093019302930393DB
:1017C8000493059306931948194A0260042242605B
:1017D80083600222C26003618023836103F0C0FB3F
:1017E800D0B900230793099307A9104804F082F899
:1017F800A8B9602300930123019300230293049363
:1018080008226946094803F0B3FC58B90748FFF7AE
:101818001BFF0BB05DF804FBFFF7BEFAE1E7FFF72B
:10182800BBFAE6E7FFF7B8FAF0E700BF10070024B5
:10183800000C00407047000008B51748174B0360BC
:101848004FF4E133436000238360C36003610C22DB
:1018580042618361C36103624362836204F01FFFD4
:1018680070B900210C4804F095FF60B900210A48BE
:1018780004F0B5FF50B9084804F06DFF48B908BD39
:10188800FFF78AFAEDE7FFF787FAEFE7FFF784FA41
:10189800F1E7FFF781FAF2E75C0700240010014046
:1018A80010B5B8B004460021339134913591369182
:1018B8003791C02202A804F0DBFF22681F4B9A422E
:1018C80001D038B010BD01220023CDE9022302A8BF
:1018D80001F07EFC78BB1A4BD3F8F02042F01002DE
:1018E800C3F8F020D3F8F02002F010020092009A1A
:1018F800D3F8E02042F00102C3F8E020D3F8E0304A
:1019080003F001030193019B4FF4C0633393022357
:1019180034930024359436940723379333A9094820
:1019280000F000FC22462146252000F0CBF82520B7
:1019380000F0FEF8C5E7FFF72FFACCE700100140EA
:101948000044025800000258DFF834D0FFF736FC94
:101958000C480D490D4A002302E0D458C450043302
:10196800C4188C42F9D30A4A0A4C002301E01360D8
:101978000432A242FBD304F057FFFFF7B1FA7047D5
:1019880000000824000000243C040024646A0008C5
:101998003C040024F8070024FEE70000104B1B78E5
:1019A8000BB90120704710B504464FF47A70B0FBAC
:1019B800F3F30C4A1068B0FBF3F000F0C7F868B90D
:1019C8000F2C01D901200AE0002221464FF0FF30F8
:1019D80000F078F8044B1C60002000E0012010BDE6
:1019E80008000024000000240C00002410B5032087
:1019F80000F056F801F044F80F498B69C3F303234C
:101A08000E4AD35C03F01F03D8408B6903F00F0321
:101A1800D35C03F01F0320FA03F3094A1360094B50
:101A280018600F20FFF7BAFF10B10124204610BD3F
:101A38000446FFF75FFBF9E700440258146A000800
:101A48000400002400000024034B1B78034A11689B
:101A58000B441360704700BF08000024F0070024FF
:101A6800014B1868704700BFF007002438B50446DA
:101A7800FFF7F6FF0546B4F1FF3F02D0044B1B7891
:101A88001C44FFF7EDFF401BA042FAD338BD00BF4E
:101A980008000024014B1868000C70470010005C17
:101AA8000649CB6823F4E0631B041B0C000200F416
:101AB800E0600343024A1A43CA60704700ED00E041
:101AC8000000FA0500B5174BDB68C3F30223C3F126
:101AD800070CBCF1040F28BF4FF0040C03F1040EEF
:101AE800BEF1060F14D9033B4FF0FF3E0EFA0CFC73
:101AF80021EA0C0199400EFA03F322EA0303194381
:101B0800002807DB0901C9B2074B19545DF804FB2B
:101B18000023E9E700F00F000901C9B2034B19548B
:101B2800F4E700BF00ED00E000E400E014ED00E0A1
:101B3800002807DB00F01F02400901239340024AF6
:101B480042F82030704700BF00E100E00138B0F1F2
:101B5800807F0BD24FF0E0235861054AF02182F8CC
:101B680023100020986107221A61704701207047EE
:101B780000ED00E070B50446FFF772FF002C00F09E
:101B88009181054694F83530DBB2022B06D08023CC
:101B98006365002384F83430012070BD23688C49C4
:101BA8008C4A934218BF8B4230D0183293422DD0C2
:101BB800183293422AD01832934227D018329342CF
:101BC80024D01832934221D0183293421ED002F505
:101BD800567293421AD01832934217D01832934251
:101BE80014D01832934211D0183293420ED01832C2
:101BF80093420BD01832934208D01832934205D042
:101C08001A6822F00E021A60266809E01A6822F0A3
:101C18001E021A602268536923F080035361266804
:101C280023686B496B4A934218BF8B4242D01832E3
:101C380093423FD0183293423CD01832934239D065
:101C48001832934236D01832934233D01832934226
:101C580030D002F5567293422CD01832934229D0D4
:101C68001832934226D01832934223D01832934226
:101C780020D0183293421DD0183293421AD018320D
:101C8800934217D0544A934214D01432934211D03D
:101C9800143293420ED0143293420BD01432934232
:101CA80008D01432934205D01432934202D0143231
:101CB800934204D1226E136823F48073136023685F
:101CC8004349444A934218BF8B422FD0183293425B
:101CD8002CD01832934229D01832934226D0183289
:101CE800934223D01832934220D0183293421DD009
:101CF80002F55672934219D01832934216D0183210
:101D0800934213D01832934210D0183293420DD018
:101D1800183293420AD01832934207D018329342AD
:101D280004D01A6822F001021A6003E01A6822F04F
:101D380001021A60336813F0010F0ED0FFF790FE0E
:101D4800431B052BF6D920236365032384F835301C
:101D5800002384F8343001201FE723681C491D4AFA
:101D6800934218BF8B4239D01832934236D018327A
:101D7800934233D01832934230D0183293422DD048
:101D8800183293422AD01832934227D002F556725D
:101D9800934223D01832934220D0183293421DD058
:101DA800183293421AD01832934217D018329342FD
:101DB80014D01832934211D0183293420ED0A16D2C
:101DC800E36D03F01F02012393404B600DE000BF59
:101DD800100002402800024008540258A16DE36D2B
:101DE80003F01F023F2393408B6023682E492F4A3C
:101DF800934218BF8B4242D0183293423FD01832D8
:101E080093423CD01832934239D01832934236D09C
:101E18001832934233D01832934230D002F55672BA
:101E280093422CD01832934229D01832934226D0AC
:101E38001832934223D01832934220D0183293425A
:101E48001DD0183293421AD01832934217D0184A2C
:101E5800934214D01432934211D0143293420ED0CC
:101E6800143293420BD01432934208D01432934266
:101E780005D01432934202D0143293420BD1636ED0
:101E8800A26E5A60E36E33B11A6822F480721A6047
:101E9800236F626F5A60012384F83530002084F87C
:101EA80034007AE6012078E610000240280002405B
:101EB80008540258002800F0298108B5024690F815
:101EC8003530DBB2022B03D080234365012008BDE7
:101ED8000368904890498B4218BF83420CBF012188
:101EE800002166D03030834263D01830834260D0FE
:101EF800183083425DD0183083425AD0183083425C
:101F080057D01830834254D000F55670834250D0D1
:101F1800183083424DD0183083424AD0183083425B
:101F280047D01830834244D01830834241D018300B
:101F380083423ED0183083423BD0196821F00E010D
:101F480019601368A0F5956073498B4218BF8342E6
:101F58006AD072498B4267D018318B4264D01831ED
:101F68008B4261D018318B425ED018318B425BD0E6
:101F780018318B4258D001F556718B4254D0183124
:101F88008B4251D018318B424ED018318B424BD0F6
:101F980018318B4248D018318B4245D018318B42CA
:101FA80042D018318B423FD0196821F001011960E5
:101FB8003EE0042082F8350081BB584A93422DD078
:101FC800183293422AD01832934227D018329342BB
:101FD80024D01832934221D0183293421ED002F5F1
:101FE800567293421AD01832934217D0183293423D
:101FF80014D01832934211D0183293420ED01832AE
:1020080093420BD01832934208D01832934205D02D
:102018001A6822F001021A60002058E71A6822F0B4
:1020280001021A60002052E7196821F001011960C5
:102038001368384838498B4218BF834242D0183158
:102048008B423FD018318B423CD018318B4239D06B
:1020580018318B4236D018318B4233D018318B422D
:1020680030D001F556718B422CD018318B4229D0D3
:1020780018318B4226D018318B4223D018318B422D
:1020880020D018318B421DD018318B421AD018310C
:102098008B4217D022498B4214D014318B4211D075
:1020A80014318B420ED014318B420BD014318B4239
:1020B80008D014318B4205D014318B4202D0143130
:1020C8008B4217D1116E0B6823F480730B60906DEF
:1020D800D36D03F01F0101238B404360536E916E53
:1020E8005960D36E33B1196821F480711960136F88
:1020F800516F5960012382F83530002382F834305B
:10210800136D2BB1104698470020E0E60120704778
:102118000020DCE610000240280002404000024097
:102128000854025870B582B000236EE085685E00DE
:102138000324B44025EA0405CC68B4402C438460E9
:10214800446824EA0C0C4C68C4F300149C4044EA2C
:102158000C0444606CE0DD08083550F8256003F095
:1021680007044FEA840C0F2404FA0CF426EA040E40
:102178000C6904FA0CF444EA0E0440F825406FE0B8
:10218800092400E0002404FA0EF42C430CF1020C9C
:102198006B4D45F82C404FF0B0442568D44325EAF0
:1021A8000206D1F804C01CF4801F01D042EA0506DB
:1021B8004FF0B0452E606D6804EA0506D1F804C0FA
:1021C8001CF4001F01D042EA05064FF0B0456E60CE
:1021D800D5F8845004EA0506D1F804C01CF4003F81
:1021E80001D042EA05064FF0B045C5F88460D5F83D
:1021F80080502C404E6816F4803F01D042EA050416
:102208004FF0B042C2F8804001330A6832FA03F452
:1022180000F093804FF0010C0CFA03FC1CEA020258
:10222800F2D04C6804F00304013C012C7FF67EAF29
:102238004C6804F00304032C0CD0C4685D004FF014
:10224800030C0CFA05FC24EA0C0C8C68AC4044EA3C
:102258000C04C4604C6804F00304022C3FF47BAF08
:1022680004684FEA430E4FF0030C0CFA0EFC24EA04
:102278000C0C4C6804F0030404FA0EF444EA0C0451
:1022880004604C6814F4403FBED02E4CD4F8F4508F
:1022980045F00205C4F8F450D4F8F44004F0020400
:1022A8000194019C4FEA930C0CF10205244C54F85C
:1022B800255003F003044FEA840E0F2404FA0EF4A9
:1022C80025EA0405204CA0423FF45CAF04F5806485
:1022D800A04222D004F58064A04220D004F5806496
:1022E800A0421ED004F58064A0421CD004F580648E
:1022F800A0421AD004F58064A04218D004F5806486
:10230800A04216D004F58064A04214D004F580647D
:10231800A0423FF435AF0A2435E7012433E702240D
:1023280031E703242FE704242DE705242BE70624AF
:1023380029E7072427E7082425E702B070BD00BF76
:102348000004005800440258000002580AB1816194
:102358007047090481617047704708B54FF0B04372
:10236800D3F88830034200D108BD4FF0B043C3F81A
:102378008800FFF7F1FFF7E7134BDB6813F0040F52
:1023880007D1114BDB6803F0070383421AD0012001
:10239800704710B50C4AD36823F007031843D06080
:1023A800FFF75EFB0446084B5B6813F4005F07D138
:1023B800FFF756FB001BB0F57A7FF4D9012000E047
:1023C800002010BD0020704700480258002800F087
:1023D800398338B50446036813F0010F25D0944AB1
:1023E800136903F03803926A102B15D0182B0FD0FD
:1023F8006368B3F5803F3FD0002B53D18C4B1A68EC
:1024080022F480321A601A6822F480221A6038E0B6
:1024180002F00302022AEBD1854B1B6813F4003F3C
:1024280003D06368002B00F00F83236813F0020FBA
:1024380000F0A1807E4A1369926A13F038035AD0DB
:10244800182B55D0E368002B00F0DE8078490A6825
:1024580022F0190213430B60FFF702FB0546744B89
:102468001B6813F0040F40F0AD80FFF7F9FA401B2A
:102478000228F4D90320EEE26D4A136843F480334E
:10248800136063682BB3FFF7EBFA0546684B1B68CC
:1024980013F4003FC9D1FFF7E3FA401B6428F5D9CC
:1024A8000320D8E2B3F5A02F09D0614B1A6822F4B3
:1024B80080321A601A6822F480221A60E1E75C4BC5
:1024C8001A6842F480221A601A6842F480321A604C
:1024D800D7E7FFF7C5FA0546554B1B6813F4003FCD
:1024E800A3D0FFF7BDFA401B6428F5D90320B2E258
:1024F80012F0030FA6D14E4B1B6813F0040F03D044
:10250800E368002B00F0A282494A136823F01903FC
:10251800E1680B431360FFF7A3FA0546444B1B68B9
:1025280013F0040F06D1FFF79BFA401B0228F5D9D8
:10253800032090E2FFF7AEFA41F20303984212D863
:102548002269402A07D03A494B6823F47C3343EA8E
:1025580002334B600FE0364A536823F47C3343F46C
:102568000033536007E0324A536823F0FE43216981
:1025780043EA01635360236813F0100F00F088806A
:102588002B4A136903F03803926A082B56D0182B8C
:1025980050D0E369002B00F0B880254A136843F057
:1025A80080031360FFF75CFA0546214B1B6813F4A0
:1025B800807F40F08880FFF753FA401B0228F4D947
:1025C800032048E2FFF766FA41F20303984212D863
:1025D8002269402A07D016494B6823F47C3343EA22
:1025E80002334B60C7E7124A536823F47C3343F441
:1025F80000335360BFE70E4A536823F0FE43216956
:1026080043EA01635360B6E7094A136823F00103FC
:102618001360FFF725FA0546054B1B6813F0040FF6
:10262800A9D0FFF71DFA401B0228F5D9032012E2B2
:102638000044025802F00302012AAAD1A14B1B68E8
:1026480013F4807F03D0E369802B40F00182FFF709
:1026580021FA41F20303984212D8226A202A07D0AD
:1026680098494B6823F0F84343EA82634B600FE0D4
:10267800944A536823F0F84343F08043536007E0DB
:10268800904AD36823F07C53216A43EA0163D360FC
:10269800236813F0080F60D06369002B49D0894A7A
:1026A800536F43F001035367FFF7DAF90546854B8B
:1026B8005B6F13F0020F50D1FFF7D2F9401B0228CD
:1026C800F5D90320C7E1FFF7E5F941F20303984282
:1026D80012D8226A202A07D07A494B6823F0F84397
:1026E80043EA82634B60D3E7764A536823F0F843A2
:1026F80043F080435360CBE7724AD36823F07C539E
:10270800216A43EA0163D360C2E76E4A136823F083
:1027180080031360FFF7A4F905466A4B1B6813F49E
:10272800807FB5D0FFF79CF9401B0228F5D903201C
:1027380091E1644A536F23F001035367FFF790F95F
:102748000546604B5B6F13F0020F06D0FFF788F960
:10275800401B0228F5D903207DE1236813F0200FE0
:1027680029D0A3699BB1574A136843F48053136077
:10277800FFF776F90546534B1B6813F4005F1AD12F
:10278800FFF76EF9401B0228F5D9032063E14D4A93
:10279800136823F480531360FFF762F90546494B29
:1027A8001B6813F4005F06D0FFF75AF9401B022894
:1027B800F5D903204FE1236813F0040F21D1636A90
:1027C800002B00F047813F4A126902F03802182AAC
:1027D80000F0EE80022B79D03A4A136823F0807318
:1027E8001360FFF73DF90446364B1B6813F0007F72
:1027F80000F0DC80FFF734F9001B0228F4D903202D
:1028080029E1314A136843F480731360FFF728F90C
:1028180005462D4B1B6813F4807F06D1FFF720F97E
:10282800401B6428F5D9032015E1A368012B0AD0C1
:102838000BBB244B1A6F22F001021A671A6F22F0A1
:1028480004021A6704E01F4A136F43F00103136779
:10285800A36833B3FFF704F905461A4B1B6F13F04F
:10286800020FACD1FFF7FCF8401B41F288339842C5
:10287800F3D90320EFE0052B09D0124B1A6F22F091
:1028880001021A671A6F22F004021A67E0E70D4B7B
:102898001A6F42F004021A671A6F42F001021A67AF
:1028A800D6E7FFF7DDF80546064B1B6F13F0020F5E
:1028B80085D0FFF7D5F8401B41F288339842F3D909
:1028C8000320C8E00044025800480258694A1368C7
:1028D80023F080731360FFF7C3F80546654B1B6848
:1028E80013F0007F06D0FFF7BBF8401B0228F5D98C
:1028F8000320B0E05F4B996A5F4A0A40A16AE06A28
:1029080041EA00110A439A62226B013AC2F30802B3
:10291800616B0139490289B20A43A16B0139090483
:1029280001F4FE010A43E16B0139090601F0FE4199
:102938000A431A63DA6A22F00102DA62596B4F4AD3
:102948000A40A16C42EAC1025A63DA6A22F00C0218
:10295800216C0A43DA62DA6A22F00202616C0A43E5
:10296800DA62DA6A42F48032DA62DA6A42F400320F
:10297800DA62DA6A42F48022DA62DA6A42F0010242
:10298800DA621A6842F080721A60FFF769F8044642
:10299800384B1B6813F0007F06D1FFF761F8001B66
:1029A8000228F5D9032056E0002054E0002052E028
:1029B800304A916A106B012B4ED001F00303A26AD2
:1029C80093424BD1C1F30511E36A994248D1C0F350
:1029D8000802236B013B9A4244D1C0F34622636B41
:1029E800013B9A4240D1C0F30642A36B013B9A4295
:1029F8003CD1C0F30660E36B013B984238D11D4BD4
:102A08005B6BC3F3CC03A26C9A4201D1002022E095
:102A1800184AD36A23F00103D362FFF721F8054669
:102A2800FFF71EF8A842FBD0124A516B134B0B401C
:102A3800A16C43EAC1035363D36A43F00103D36231
:102A4800002008E001207047012004E0012002E096
:102A5800012000E0002038BD0120FCE70120FAE752
:102A68000120F8E70120F6E70120F4E70120F2E76A
:102A78000120F0E7004402580CFCFFFF0700FFFFAD
:102A8800F8B57E4B1B6903F03803102B00F0F28079
:102A9800182B10D013B17A4C2046F8BD774B1B6821
:102AA80013F0200F00F0E880744B1868C0F3C100E1
:102AB800744CC440F0E7714B9D6A05F003059C6AAD
:102AC800C4F30514D86A00F001005B6BC3F3CC03B0
:102AD80003FB00F0FDF7B2FC0646002CDCD0012D0C
:102AE80076D0022D00F0A4800DB32046FDF7A6FC99
:102AF80001466548FDF7AEFD0446604B186BC0F310
:102B08000800FDF79BFC05464FF064513046FDF781
:102B1800EDFC01462846FDF7E1FB4FF07E51FDF73D
:102B2800DDFB01462046FDF7E1FC044671E0534B0E
:102B38001B6813F0200F29D0504F3B68C3F3C10323
:102B48005048D840FDF77AFC05462046FDF776FC4C
:102B580001462846FDF77EFD0446386BC0F30800A1
:102B6800FDF76CFC05464FF064513046FDF7BEFC9E
:102B780001462846FDF7B2FB4FF07E51FDF7AEFB4C
:102B880001462046FDF7B2FC044642E02046FDF728
:102B980055FC01463D48FDF75DFD0446374B186B73
:102BA800C0F30800FDF74AFC05464FF06451304673
:102BB800FDF79CFC01462846FDF790FB4FF07E513F
:102BC800FDF78CFB01462046FDF790FC044620E00B
:102BD8002046FDF733FC01462B48FDF73BFD044634
:102BE800264B186BC0F30800FDF728FC05464FF08C
:102BF80064513046FDF77AFC01462846FDF76EFB26
:102C08004FF07E51FDF76AFB01462046FDF76EFC4A
:102C180004461A4B1B6BC3F34623581CFDF70EFCE6
:102C280001462046FDF716FDFDF7B0FD044633E7E3
:102C38002046FDF703FC01461548FDF70BFD044649
:102C48000E4B186BC0F30800FDF7F8FB05464FF074
:102C580064513046FDF74AFC01462846FDF73EFB25
:102C68004FF07E51FDF73AFB01462046FDF73EFC4A
:102C78000446CEE7074C0FE7024C0DE70044025824
:102C880000093D000090D0030024744A0024744CCD
:102C98000024F44A00127A00002800F0328170B54E
:102CA8000D4604469B4B1B6803F00F038B420BD267
:102CB800984A136823F00F030B431360136803F05B
:102CC8000F038B4240F01F81236813F0040F0CD0D0
:102CD8002269914B9B6903F070039A4205D98E498A
:102CE8008B6923F070031A438A61236813F0080F75
:102CF8000CD06269884BDB6903F070039A4205D9EE
:102D08008549CB6923F070031A43CA61236813F01D
:102D1800100F0CD0A269804BDB6903F4E0639A4280
:102D280005D97D49CB6923F4E0631A43CA61236856
:102D380013F0200F0CD0E269774B1B6A03F0700385
:102D48009A4205D974490B6A23F070031A430A6240
:102D5800236813F0020F0CD0E2686F4B9B6903F0F5
:102D68000F039A4205D96C498B6923F00F031A4364
:102D78008A61236813F0010F41D0674A936923F4ED
:102D88007063A1680B4393616368022B0AD0032B1D
:102D980027D0012B2CD0604A126812F0040F06D1FC
:102DA8000120ADE0126812F4003F00F0AE805A49ED
:102DB8000A6922F0070213430B61FEF751FE06462B
:102DC800554B1B6903F038036268B3EBC20F16D08A
:102DD800FEF746FE801B41F288339842F0D9032063
:102DE8008EE04D4A126812F0007FE0D1012087E0A2
:102DF800494A126812F4807FD9D1012080E0236803
:102E080013F0020F0CD0E268434B9B6903F00F03E9
:102E18009A4205D240498B6923F00F031A438A610D
:102E28003C4B1B6803F00F03AB420AD9394A1368BD
:102E380023F00F032B431360136803F00F03AB4217
:102E480065D1236813F0040F0CD02269324B9B69BB
:102E580003F070039A4205D22F498B6923F070035F
:102E68001A438A61236813F0080F0CD062692A4B51
:102E7800DB6903F070039A4205D22749CB6923F036
:102E880070031A43CA61236813F0100F0CD0A269AB
:102E9800214BDB6903F4E0639A4205D21E49CB69F2
:102EA80023F4E0631A43CA61236813F0200F0CD09F
:102EB800E269194B1B6A03F070039A4205D216495E
:102EC8000B6A23F070031A430A62FFF7D9FD12490F
:102ED8008B69C3F30323114AD35C03F01F03D84063
:102EE8008B6903F00F03D35C03F01F0320FA03F38D
:102EF8000B4A13600B4B18600B4B1868FEF74EFD1E
:102F080070BD012070470120FAE70120F8E7012091
:102F1800F6E700BF0020005200440258146A000877
:102F280004000024000000240C00002408B5FFF76A
:102F3800A7FD0B4A9369C3F303230A49CB5C03F04B
:102F48001F0320FA03F3926902F00F02885C00F075
:102F58001F0023FA00F0044A1060044A136008BDF9
:102F680000440258146A00080400002400000024E9
:102F780008B5FFF7DBFF054BDB69C3F30213044A0F
:102F8800D35C03F01F03D84008BD00BF00440258BB
:102F9800146A000808B5FFF7C9FF054BDB69C3F3DE
:102FA8000223044AD35C03F01F03D84008BD00BFC6
:102FB80000440258146A0008404B9B6A03F003035C
:102FC800032B79D070B505460E463C4A136823F0AA
:102FD80080631360FEF744FD0446384B1B6813F00A
:102FE800006F06D0FEF73CFD031B022BF5D903202A
:102FF80070BD324B9A6A22F47C32296842EA013267
:103008009A626A68013AC2F30802A968013949025A
:1030180089B20A43E9680139090401F4FE010A4347
:1030280029690139090601F0FE410A439A63DA6AFF
:1030380022F0C00269690A43DA62DA6A22F02002E1
:10304800A9690A43DA62DA6A22F01002DA62D96BF5
:103058001B4A0A40E96942EAC102DA63DA6A42F0C5
:103068001002DA62C6B91A46DB6A43F40023D36257
:10307800124A136843F080631360FEF7F1FC0446BC
:103088000E4B1B6813F0006F14D1FEF7E9FC001B10
:103098000228F5D90320ABE7012E05D0074AD36AE9
:1030A80043F40013D362E3E7044AD36A43F480137A
:1030B800D362DDE700209BE70120704700440258F7
:1030C8000700FFFF404B9B6A03F00303032B79D0F3
:1030D80070B505460E463C4A136823F080531360CA
:1030E800FEF7BEFC0446384B1B6813F0005F06D0A1
:1030F800FEF7B6FC031B022BF5D9032070BD324B3B
:103108009A6A22F07C72296842EA01529A626A68D5
:10311800013AC2F30802A9680139490289B20A438F
:10312800E9680139090401F4FE010A4329690139F2
:10313800090601F0FE410A431A64DA6A22F4406281
:1031480069690A43DA62DA6A22F40072A9690A43F1
:10315800DA62DA6A22F48072DA62596C1B4A0A402F
:10316800E96942EAC1025A64DA6A42F48072DA62B0
:10317800C6B91A46DB6A43F48003D362124A13685D
:1031880043F080531360FEF76BFC04460E4B1B683C
:1031980013F0005F14D1FEF763FC001B0228F5D979
:1031A8000320ABE7012E05D0074AD36A43F08073AA
:1031B800D362E3E7044AD36A43F40003D362DDE74A
:1031C80000209BE701207047004402580700FFFFDA
:1031D800F8B50446036813F0006F30D0836EB3F57A
:1031E800001F26D00ED8EBB1B3F5801F07D10221FE
:1031F8000830FFF7E1FE054645B12E4621E00126DD
:1032080035461EE0B3F5401F09D10025984A136DD5
:1032180023F44013A16E0B431365002611E0012629
:1032280035460EE0924AD36A43F40033D362002550
:10323800ECE702212830FFF745FF0546DCE70026CA
:103248003546236813F4807F14D0A36D042B32D83D
:10325800DFE803F003232A080800854AD36A43F409
:103268000033D36255BB824A136D23F00703A16D67
:103278000B431365236813F4007F31D0E36D802B73
:103288004CD020D8002B43D0402B19D1002104F179
:103298000800FFF791FE05461AE0002104F1080036
:1032A800FFF78AFE0546DDE7002104F12800FFF755
:1032B80009FF0546D6E701263546DBE72E46D9E75E
:1032C800012635460CE0C02B02D0B3F5807F1CD117
:1032D8005DBB674A136D23F4E073E16D0B4313651F
:1032E800236813F4806F46D0D4F8A830B3F5800F64
:1032F80039D01FD88BB3B3F5001F18D1002104F1C2
:103308000800FFF759FE05461AE001263546E7E7AB
:10331800574AD36A43F40033D362D9E7002104F152
:103328002800FFF7CFFE0546D2E72E46D8E701264C
:10333800354620E0B3F5C00F02D0B3F5000F09D130
:10334800C5B94B4A936D23F46003D4F8A8100B4316
:10335800936510E0012635460DE0454AD36A43F4EB
:103368000033D362ECE7002104F12800FFF7AAFE3E
:103378000546E5E72E46236813F4006F24D0D4F8F9
:10338800AC30B3F1007F42D00ED8002B39D0B3F166
:10339800807F06D1002104F10800FFF70DFE0546E5
:1033A80008E0012635460FE0B3F1407F02D0B3F1C3
:1033B800806F23D1002D31D12D4A936D23F0E06326
:1033C800D4F8AC100B439365236813F0007F2ED01C
:1033D800E36C202B40D026D833B1102B20D1244ABF
:1033E800D36A43F40033D362002D3CD1204AD36C16
:1033F80023F03003E16C0B43D36418E00126354613
:10340800E2E71B4AD36A43F40033D362D2E70021D0
:1034180004F12800FFF756FE0546CBE72E46D3E712
:103428000126354603E0302BDED0012635462368D9
:1034380013F4805F2DD0236EB3F5005F4FD019D8F9
:10344800002B46D0B3F5805F0FD1002104F10800AE
:10345800FFF7B2FD054613E0022104F10800FFF76B
:10346800ABFD0546C0E72E46E1E70126354610E0EC
:1034780000440258B3F5405F02D0B3F5804F25D120
:10348800002D33D1774A136D23F4E043216E0B43AB
:103498001365236813F4005F38D0636EB3F5003FFB
:1034A80053D028D843B1B3F5803F21D1012104F18D
:1034B8000800FFF781FD0546002D4DD1694A136DBF
:1034C80023F4E023616E0B4313651FE001263546A4
:1034D800DFE7644AD36A43F40033D362D0E70021BC
:1034E80004F12800FFF7EEFD0546C9E72E46D0E7B0
:1034F800012635460AE0B3F5802FDDD0B3F5A02FBD
:10350800DAD0B3F5403FD7D001263546236813F407
:10351800804F31D0D4F8B030B3F1005F45D020D817
:1035280043B1B3F1805F19D1012104F10800FFF71D
:1035380043FD0546002D3FD14A4A936D23F0E043F1
:10354800D4F8B0100B43936516E0012104F128006C
:10355800FFF7B8FD0546AFE72E46D7E70126354603
:103568000AE0B3F1804FE5D0B3F1A04FE2D0B3F158
:10357800405FDFD001263546236813F4004F09D099
:10358800236FB3F1805F19D0B3F1005F24D0D3B1BA
:1035980001263546236813F0807F33D0A36C032BB4
:1035A8005BD8DFE803F027225327012104F1280024
:1035B800FFF788FD0546BDE72E46DDE7294AD36AB1
:1035C80043F40033D36275B9264A136D23F0405390
:1035D800216F0B431365DDE7012104F10800FFF7B4
:1035E800EBFC0546EFE72E46D4E71E4AD36A43F4C0
:1035F8000033D362A5BB1B4AD36C23F00303A16C31
:103608000B43D364236813F4800F2DD1236813F080
:10361800010F00F0A580E36F282B00F29F80DFE800
:1036280003F08D9D9D9D9D9D9D9D879D9D9D9D9D2F
:103638009D9D969D9D9D9D9D9D9D8D9D9D9D9D9DC9
:103648009D9D8D9D9D9D9D9D9D9D8D00022104F1BB
:103658000800FFF7B1FC0546CCE701263546D1E75F
:103668002E46CFE700440258914A136843F480730A
:103678001360FEF7F5F907468D4B1B6813F4807F3E
:1036880005D1FEF7EDF9C01B6428F5D90325002DF7
:103698004AD1884B1B6FD4F8B420534013F4407FB1
:1036A8000CD0844B1A6F22F44072196F41F48031A8
:1036B8001967196F21F4803119671A67D4F8B43083
:1036C800B3F5807F15D08DBBD4F8B43003F44072C5
:1036D800B2F5407F1ED0774A136923F47C531361F7
:1036E80074490B6FD4F8B420C2F30B0213430B6771
:1036F8008CE7FEF7B5F907466E4B1B6F13F0020F08
:10370800E1D1FEF7ADF9C01B41F288339842F3D9F5
:103718000325D8E76748026922F47C52664901EA22
:10372800131313430361DBE72E466FE72E466DE75D
:10373800012104F10800FFF73FFC0546E5B95D4AA1
:10374800536D23F03803E16F0B43536508E0012103
:1037580004F12800FFF7B6FC0546EFE701263546D9
:10376800236813F0020F17D0A36F052B28D8DFE8C2
:1037780003F00B05200B0B0B2E46F1E7012104F19A
:103788000800FFF719FC0546EDB94A4A536D23F0C6
:103798000703A16F0B435365236813F0040F23D06D
:1037A800D4F89430052B45D8DFE803F0150F3D1504
:1037B8001515012104F12800FFF784FC0546E3E70D
:1037C80001263546E8E72E46E6E7012104F1080020
:1037D800FFF7F2FB054685BB364A936D23F00703D6
:1037E800D4F894100B439365236813F0200F34D05A
:1037F800D4F89030B3F1005F4ED023D843B1B3F181
:10380800805F1CD1002104F10800FFF7D5FB0546B5
:10381800002D48D1274A536D23F0E043D4F8901087
:103828000B43536519E0012104F12800FFF74AFC16
:103838000546D0E701263546D6E72E46D4E70126C9
:1038480035460AE0B3F1804FE2D0B3F1A04FDFD0A4
:10385800B3F1405FDCD001263546236813F0400FF2
:1038680037D0D4F89C30B3F5006F53D026D843B185
:10387800B3F5806F19D1002104F10800FFF79CFB14
:103888000546002D4DD10B4A936D23F4E053D4F82F
:103898009C100B4393651CE0022104F12800FFF7FC
:1038A80011FC0546B4E72E46D7E70126354610E059
:1038B8000048025800440258CFFFFF00B3F5805F6C
:1038C800DFD0B3F5A05FDCD0B3F5406FD9D00126C7
:1038D8003546236813F0800F33D0D4F8A030B3F501
:1038E800804F00F0A38021D843B1B3F5005F1AD10F
:1038F800002104F10800FFF75FFB0546002D40F0AA
:103908009C80814A936D23F46043D4F8A0100B4344
:10391800936516E0022104F12800FFF7D3FB054662
:10392800AFE72E46D5E7012635460AE0B3F5004F46
:10393800E4D0B3F5204FE1D0B3F5C04FDED0012677
:103948003546236813F0080F0CD0D4F88430B3F54B
:10395800805F74D06C4A536D23F44053D4F88410BC
:103968000B435365236813F0100F0CD0D4F898302C
:10397800B3F5807F6CD0644A936D23F44073D4F818
:1039880098100B439365236813F4002F0BD0D4F8D9
:10399800A430B3F5803F74D0B3F5003F67D0002B57
:1039A8005FD001263546236813F4802F0CD0D4F855
:1039B8008830B3F5001F7CD0B3F5401F6FD0B3F546
:1039C800801F67D001263546236813F4803F08D04E
:1039D800236D002B76D0B3F5803F00F0818001265F
:1039E8003546236813F0005F40F08380236813F4A2
:1039F800003F00F08E80D4F88030B3F5807F00F06F
:103A0800EC8040F28380B3F5007F03D0B3F5407FAC
:103A180040F0E180002D40F0E6803B4A536D23F4EE
:103A28004073D4F880100B43536572E0022104F10F
:103A38002800FFF747FB054660E72E4681E702218D
:103A480004F12800FFF73EFB002883D0012681E718
:103A5800022104F12800FFF735FB00288BD001264E
:103A680089E7002104F10800FFF7A6FA05467DB9A9
:103A7800254A936D23F44033D4F8A4100B4393657F
:103A880091E7022104F12800FFF71CFB0546EEE749
:103A98002E4688E71C4AD36A43F40033D3627DB9C3
:103AA800194A536D23F44013D4F888100B43536517
:103AB8008AE7012104F12800FFF704FB0546EEE739
:103AC8002E4681E7104AD36A43F40033D36275B9AE
:103AD8000D4AD36C23F48033216D0B43D36480E704
:103AE800022104F10800FFF767FA0546EFE72E46C2
:103AF80077E7022104F12800FFF7E4FA00283FF4F1
:103B080075AF012672E700BF00440258002B81D030
:103B18000126236813F4801F06D04F4A136D23F043
:103B28000043616F0B431365236813F0805F07D070
:103B3800494A136923F48043D4F8B8100B4313613E
:103B4800236813F4001F06D0434A136D23F08073D3
:103B5800E16E0B431365236813F0804F09D03E4B89
:103B68001A6922F400421A611A69D4F8BC100A438F
:103B78001A612368002B06DA374AD36C23F04053C6
:103B8800616D0B43D364236813F4000F07D0324AE6
:103B9800536D23F44003D4F88C100B4353656368CA
:103BA80013F0010F21D1636813F0020F26D1636867
:103BB80013F0040F2BD1636813F0080F30D163683A
:103BC80013F0100F35D1636813F0200F3AD106B106
:103BD80001263046F8BD01269BE71F4AD36A43F405
:103BE8000033D36216E72E4693E7002104F108005C
:103BF800FFF7E2F90028D6D00646D4E7012104F100
:103C08000800FFF7D9F90028D1D00646CFE70221EE
:103C180004F10800FFF7D0F90028CCD00646CAE71F
:103C2800002104F12800FFF74DFA0028C7D0064606
:103C3800C5E7012104F12800FFF744FA0028C2D0A3
:103C48000646C0E7022104F12800FFF73BFA0028E6
:103C5800BDD00646BBE700BF0044025808B5FFF7D1
:103C680065F9054B1B6AC3F30213044AD35C03F0DE
:103C78001F03D84008BD00BF00440258146A00085A
:103C88002DE9F0410446864B9D6A9E6AC6F30536C7
:103C9800D86AC0F30010DB6BC3F3CC0303FB00F05E
:103CA800FCF7CCFB002E00F0F58005F00305074675
:103CB800012D79D0022D00F0CB800DB33046FCF7F2
:103CC800BDFB01467748FCF7C5FC0546744B986B6D
:103CD800C0F30800FCF7B2FB06464FF064513846C3
:103CE800FCF704FC01463046FCF7F8FA4FF07E5129
:103CF800FCF7F4FA01462846FCF7F8FB054674E0A1
:103D0800674B1B6813F0200F2CD0DFF89481D8F88C
:103D18000030C3F3C1036448D840FCF78FFB054665
:103D28003046FCF78BFB01462846FCF793FC05461A
:103D3800D8F83800C0F30800FCF780FB06464FF0BF
:103D480064513846FCF7D2FB01463046FCF7C6FA08
:103D58004FF07E51FCF7C2FA01462846FCF7C6FB35
:103D6800054642E03046FCF769FB01464F48FCF740
:103D780071FC05464A4B986BC0F30800FCF75EFBE4
:103D880006464FF064513846FCF7B0FB0146304612
:103D9800FCF7A4FA4FF07E51FCF7A0FA014628463A
:103DA800FCF7A4FB054620E03046FCF747FB01463C
:103DB8003C48FCF74FFC0546394B986BC0F30800AC
:103DC800FCF73CFB06464FF064513846FCF78EFB87
:103DD80001463046FCF782FA4FF07E51FCF77EFA36
:103DE80001462846FCF782FB05462D4EB06BC0F312
:103DF8004620FCF723FB4FF07E51FCF76FFA014693
:103E08002846FCF727FCFCF7C1FC2060B06BC0F328
:103E18000640FCF713FB4FF07E51FCF75FFA0146B2
:103E28002846FCF717FCFCF7B1FC6060B06BC0F3E8
:103E38000660FCF703FB4FF07E51FCF74FFA014692
:103E48002846FCF707FCFCF7A1FCA060BDE8F08160
:103E58003046FCF7F3FA01461548FCF7FBFB05462C
:103E68000F4B986BC0F30800FCF7E8FA06464FF0D2
:103E780064513846FCF73AFB01463046FCF72EFA07
:103E88004FF07E51FCF72AFA01462846FCF72EFB34
:103E98000546AAE7002323606360A360D6E700BF56
:103EA800004402580024744A0090D0030024744C43
:103EB8000024F44A2DE9F0410446864B9D6A9E6A27
:103EC800C6F30556D86AC0F300205B6CC3F3CC0375
:103ED80003FB00F0FCF7B2FA002E00F0F58005F0C5
:103EE80003050746012D79D0022D00F0CB800DB3D4
:103EF8003046FCF7A3FA01467748FCF7ABFB0546CA
:103F0800744B186CC0F30800FCF798FA06464FF09B
:103F180064513846FCF7EAFA01463046FCF7DEF908
:103F28004FF07E51FCF7DAF901462846FCF7DEFA35
:103F3800054674E0674B1B6813F0200F2CD0DFF8A0
:103F48009481D8F80030C3F3C1036448D840FCF723
:103F580075FA05463046FCF771FA01462846FCF723
:103F680079FB0546D8F84000C0F30800FCF766FA6C
:103F780006464FF064513846FCF7B8FA0146304619
:103F8800FCF7ACF94FF07E51FCF7A8F9014628463A
:103F9800FCF7ACFA054642E03046FCF74FFA01461A
:103FA8004F48FCF757FB05464A4B186CC0F308000E
:103FB800FCF744FA06464FF064513846FCF796FA87
:103FC80001463046FCF78AF94FF07E51FCF786F936
:103FD80001462846FCF78AFA054620E03046FCF7F9
:103FE8002DFA01463C48FCF735FB0546394B186C61
:103FF800C0F30800FCF722FA06464FF06451384631
:10400800FCF774FA01463046FCF768F94FF07E5128
:10401800FCF764F901462846FCF768FA05462D4E78
:10402800306CC0F34620FCF709FA4FF07E51FCF7DC
:1040380055F901462846FCF70DFBFCF7A7FB206065
:10404800306CC0F30640FCF7F9F94FF07E51FCF7ED
:1040580045F901462846FCF7FDFAFCF797FB606036
:10406800306CC0F30660FCF7E9F94FF07E51FCF7BD
:1040780035F901462846FCF7EDFAFCF787FBA06006
:10408800BDE8F0813046FCF7D9F901461548FCF740
:10409800E1FA05460F4B186CC0F30800FCF7CEF99F
:1040A80006464FF064513846FCF720FA0146304680
:1040B800FCF714F94FF07E51FCF710F90146284639
:1040C800FCF714FA0546AAE7002323606360A3609F
:1040D800D6E700BF004402580024744A0090D00379
:1040E8000024744C0024F44A10B40268536991699E
:1040F80041F00801916101688A6942F010028A6101
:1041080001680A6822F001020A6001680C69284AFD
:1041180022400A6101688A6822F440428A6090F865
:104128008120D2B2042A0DD013F0200F0AD0D0F883
:10413800842042F08002C0F8842001688A6942F035
:1041480020028A6190F88120D2B2032A0DD013F0A0
:10415800400F0AD0D0F8842042F00402C0F884202E
:1041680001688A6942F040028A6113F4007F0AD02C
:10417800D0F8842042F00102C0F8842001688A69DE
:1041880042F400728A6113F4807F0AD0D0F8843038
:1041980043F00803C0F884300268936943F48073DD
:1041A80093610023A0F86230A0F86A3010BC704711
:1041B80090FCFFFFC36B5B09C0680830C00803FBB5
:1041C800000070472DE9F04107460E4615461C468B
:1041D800DDF8188000E0B4B13B685B6936EA030398
:1041E8000CBF01230023AB420AD1FDF739FCA0EB39
:1041F8000800A042EFD3B4F1FF3FECD0032000E069
:104208000020BDE8F0810320FBE70000002800F053
:10421800B78070B504460023836205685C4B5D4E29
:104228009D4218BFB54214BF0126002607D0A3F54A
:1042380074439D4203D0C3680F2B00F2A38020462D
:10424800FFF7B8FF2EB1544B9D4202D0082800F268
:104258009B804F4A4F4B9D4218BF954203D003F5B0
:1042680080639D4202D1102800F2908094F881303A
:10427800F3B1022384F881302268136823F0010324
:10428800136021688A6802F4F812A369B3F1806F99
:1042980014D0636813F4800F23D0E368062B20D969
:1042A80021680B6823F48073206D03430B601DE0C5
:1042B80084F880302046FCF7C5FEDAE76368B3F57A
:1042C800800F06D0002BE4D1A36BB3F1805FE0D15F
:1042D80002E0A06B0028F5D10B6843F480530B6013
:1042E800D7E721680B6823F480730B60E369A16A40
:1042F8000B431343E26B1343E16822680B4393605B
:10430800636B626A1343A26B1343A2691343226966
:10431800134362691343226A134362681343E26CCE
:104328001343A2681343A26C1343A16D22680B4385
:10433800D36063686BB92268936823F4C05343F46D
:10434800006393602268936823F4C06343F4806336
:1043580093602268136D23F001031365636813F4F7
:10436800800F06D02268D36823F00043616D0B43A9
:10437800D3600020C4F88400012384F8813070BD24
:10438800012070470120FAE70120F8E70120F6E74D
:104398000030014000380040003C00402DE9F04763
:1043A80082B01D46D0F8008090F88030012B00F0D4
:1043B8005A8104468A469146012380F88030FDF7E9
:1043C8004FFB074694F88160F6B2012E39D1B9F156
:1043D800000F18BFBAF1000F3BD0032384F88130D7
:1043E8000023C4F88430C4F85CA0A4F86090A4F852
:1043F80062906366A4F86830A4F86A30636723673C
:10440800A368B3F5C02F28D02268D36823F4C0234B
:1044180043F40033D36023685968944A0A4049EA50
:1044280002025A602268136843F00103136063684C
:10443800B3F5800F17D0E3680F2B23D8072B59D873
:10444800B8E0002384F880300226304602B0BDE888
:10445800F087002384F88030F7E72268136843F474
:1044680000631360D7E72268136843F4007313608E
:10447800E1E7FDF7F5FAC01BA84202D3B5F1FF3F0B
:1044880019D1C5B1B4F862309BB2002B00F0CD80D1
:1044980023685A6912F0020FEBD0E26D12681A62B3
:1044A800E36D0433E365B4F8622092B2013A92B244
:1044B800A4F86220E6E72046FFF716FE002384F8FA
:1044C8008030D4F8843043F48073C4F884300123F6
:1044D80084F881300326B8E7E36D1B88A8F82030FC
:1044E800E36D0233E365B4F862309BB2013B9BB2E3
:1044F800A4F86230B4F862309BB2002B00F09580CB
:104508002268536913F0020F15D0B4F862309BB2D9
:10451800012BE1D9E36B002BDED0E36D1B6813623E
:10452800E36D0433E365B4F862309BB2023B9BB29F
:10453800A4F86230DEE7FDF793FAC01BA84202D365
:10454800B5F1FF3F01D1002DD4D12046FFF7CCFDB6
:10455800002384F88030D4F8843043F48073C4F89E
:104568008430012384F8813003266EE7B4F8623082
:104578009BB2012B10D9E36B73B1E36D1B88A8F8CC
:104588002030E36D0233E365B4F862309BB2023B3E
:104598009BB2A4F862300DE0E36D1B7882F82030FE
:1045A800E36D0133E365B4F862309BB2013B9BB223
:1045B800A4F86230B4F862309BB2002B35D0226880
:1045C800536913F0020F15D0B4F862309BB2032B75
:1045D800CCD9E36B402BC9D9E36D1B681362E36D3B
:1045E8000433E365B4F862309BB2043B9BB2A4F891
:1045F8006230DFE7FDF734FAC01BA84202D3B5F1F9
:10460800FF3F01D1002DD5D12046FFF76DFD0023D6
:1046180084F88030D4F8843043F48073C4F884304C
:10462800012384F8813003260FE700972B460022E8
:1046380008212046FFF7C6FD28B1D4F8843043F09E
:104648002003C4F884302046FFF74EFD002384F889
:104658008030012384F88130D4F88430002B7FF433
:10466800F4AE0026F1E60226EFE600BF0000FFFFE9
:10467800704770477047704708B5806B0023A0F8F3
:104688006A30A0F86230012380F88130FFF7F3FF29
:1046980008BD70472DE9F843044606683269736916
:1046A80002EA0305D6F8089090F88170FFB213F477
:1046B800006F02D012F0080F3FD105F06403042BFD
:1046C80042D0002305F04508B8F1010F44D005F0A9
:1046D8002602022A45D0002B46D115F0080F79D0C2
:1046E8002268936943F0080393612268936943F051
:1046F800100393612268936943F40063936122680D
:10470800136923F00803136123689B6813F4404F6F
:104718003BD02046FFF7E8FC012384F88130D4F829
:104728008430002B4AD1052F4CD0042F4ED0032FB4
:104738001AD12046FFF79CFF16E0B36943F40063E3
:10474800B361FFF7A6FF0FE0636F20469847236F1A
:10475800204698470123B5E7236F204698474346EC
:10476800B5E7636F20469847BDE8F883072B1CD947
:10477800636E328E1A80636E02336366B4F86A30F1
:104788009BB2013B9BB2A4F86A30B4F86A309BB282
:10479800002BBED0E3680F2BE8D92268636E126B3A
:1047A8001A60636E04336366E8E72268636E92F802
:1047B80030201A70636E01336366DFE72046FFF727
:1047C8005AFFD1E72046FFF755FFCDE72046FFF710
:1047D80050FFC9E715F4587FC6D015F0400F0AD02E
:1047E800D4F8843043F00403C4F884302268936911
:1047F80043F04003936115F4007F0AD0D4F8843065
:1048080043F00103C4F884302268936943F40073C9
:10481800936115F4807F0AD0D4F8843043F00803FC
:10482800C4F884302268936943F48073936115F067
:10483800200F0AD0D4F8843043F08003C4F88430C1
:104848002268936943F020039361D4F88430002BE5
:104858008AD02268136823F0010313602268116963
:104868001A4B0B40136109F44049B9F5404F25D163
:104878002268936823F440439360E36F5BB1144A62
:104888001A65E06FFDF716FB28B1D4F8843043F0C1
:104898004003C4F88430A36F002B3FF465AF0C4A83
:1048A8001A65A06FFDF706FB00283FF45DAFD4F84A
:1048B800843043F04003C4F8843055E7012384F87A
:1048C80081302046FFF7D7FE4EE700BF94FCFFFF7C
:1048D80081460008F0B4036A23F001030362036A07
:1048E800466884691F4A22400D68154323F0020375
:1048F8008C6823431C4A1D4CA04218BF90420CBF31
:10490800012200220CD004F58044A04214BF0024E8
:104918000124174FB84203D014B9164CA04205D150
:1049280023F00803CC68234323F004035AB9124A3E
:10493800904214BF002201220D4CA04203D012B9AC
:104948000C4A904207D126F4407C4A6942EA0C0C92
:104958008E6946EA0C06466085614A6842630362CE
:10496800F0BC70478CFFFEFF0000014000040140CE
:1049780000400140004801400044014070B4036A0F
:1049880023F480730362036A4568C4691A4A2240A3
:104998000E68164323F400738A6843EA0223174A11
:1049A800174CA04218BF90420CBF0122002206D12A
:1049B80023F40063CC6843EA042323F480635AB9E0
:1049C800104A904214BF002201220F4CA04203D08B
:1049D80012B90E4A904207D125F4405C4A694CEA64
:1049E800021C8D694CEA05154560C6614A68C263B8
:1049F800036270BC704700BF8CFFFEFF00000140DF
:104A080000040140004401400040014000480140CA
:104A180070B4036A23F480530362036A4468C56967
:104A2800144A2A400D6842EA052223F400538D688F
:104A380043EA0533104E114DA84218BFB0420DD0BD
:104A480005F58045A84214BF0025012506F58046D6
:104A5800B04203D015B90A4DA84204D124F48044C9
:104A68004D6944EA85144460C2614A68026403627D
:104A780070BC7047FF8CFFFE00000140000401403D
:104A88000048014070B4036A23F480330362036A68
:104A98004268456D144C2C400D682C4323F40033B8
:104AA8008D6843EA0543114E114DA84218BFB04224
:104AB8000DD005F58045A84214BF0025012506F54F
:104AC8008046B04203D015B90A4DA84204D122F459
:104AD80080324D6942EA0522426044654A6882652F
:104AE800036270BC704700BF8FFFFEFF00000140EB
:104AF800000401400048014070B4036A23F48013A5
:104B08000362036A4468456D144A2A400D6842EA04
:104B1800052223F400138D6843EA0553104E114D06
:104B2800A84218BFB0420DD005F58045A84214BF71
:104B38000025012506F58046B04203D015B90A4D77
:104B4800A84204D124F480244D6944EA85244460B1
:104B580042654A68C265036270BC7047FF8FFFFEFA
:104B680000000140000401400048014010B4036AFD
:104B7800046A24F001040462846924F0F00C4CEA0D
:104B8800021223F00A030B438261036210BC7047D0
:104B980030B4046A24F0100404628469056A24F4B9
:104BA800407C4CEA022C2CF4704C1B039BB243EA69
:104BB8000C0325F0A005090101F0A0012943836138
:104BC800016230BC704710B4046A24F01004046217
:104BD8008469036A24F4704C4CEA023223F0A0037F
:104BE80043EA01138261036210BC704730B4046A5F
:104BF80024F480740462C469056A24F0030C4CEA46
:104C0800020C2CF0F00C1B01DBB243EA0C0325F478
:104C18002065090201F420612943C361016230BCA7
:104C2800704730B4046A24F480540462C469056A85
:104C380024F4407C4CEA022C2CF4704C1B039BB2ED
:104C480043EA0C0325F42045090301F420412943D4
:104C5800C361016230BC7047704770477047704746
:104C6800704710B5044603681A6912F0020F11D094
:104C7800DA6812F0020F0DD06FF002021A610123F8
:104C8800037703689B6913F0030F79D0FCF7D2FD13
:104C98000023237723681A6912F0040F12D0DA6808
:104CA80012F0040F0ED06FF004021A61022323776A
:104CB80023689B6913F4407F68D02046FCF7BAFD4F
:104CC8000023237723681A6912F0080F12D0DA68D4
:104CD80012F0080F0ED06FF008021A610423237730
:104CE8002368DB6913F0030F57D02046FCF7A2FDB9
:104CF8000023237723681A6912F0100F12D0DA689C
:104D080012F0100F0ED06FF010021A6108232377EB
:104D18002368DB6913F4407F46D02046FCF78AFD00
:104D28000023237723681A6912F0010F03D0DA6889
:104D380012F0010F3FD123681A6912F0800F03D0D7
:104D4800DA6812F0800F3DD123681A6912F4807F67
:104D580003D0DA6812F0800F3BD123681A6912F089
:104D6800400F03D0DA6812F0400F39D123681A696E
:104D780012F0200F03D0DA6812F0200F37D110BDDF
:104D8800FFF76CFF2046FFF76AFF81E72046FFF731
:104D980065FF2046FFF763FF92E72046FFF75EFFB7
:104DA8002046FFF75CFFA3E72046FFF757FF2046A2
:104DB800FFF755FFB4E76FF001021A612046FFF7CD
:104DC8004CFFB8E76FF080021A61204600F02BFE16
:104DD800BAE76FF480721A61204600F025FEBCE73E
:104DE8006FF040021A612046FFF73AFFBEE76FF006
:104DF80020021A61204600F015FEC0E730B50368AE
:104E0800394A904214BF4FF0000E4FF0010EB0F136
:104E1800804F14BF72464EF00102AAB9334CA0422B
:104E280014BF00240124324DA8420DD064B904F106
:104E3800804404F58234A04214BF0024012405F5FF
:104E48000065A84200D01CB123F070034C682343CE
:104E580012BB264A904214BF00220122244CA042D1
:104E68001AD0CAB902F1804202F58232904214BFC8
:104E78000022012204F50064A0420DD062B91D4A47
:104E8800904214BF0022012204F59A34A04203D0B4
:104E980012B9194A904204D123F4407CCB6843EA02
:104EA8000C0323F080034A69134303608A68C262D3
:104EB8000A688262114A904214BF73464EF0010399
:104EC80063B90C4B984214BF0023012302F57052BA
:104ED800904203D013B9084B984201D10B69036380
:104EE8000123436130BD00BF0000014000080040BD
:104EF8000004004000440140004801400004014013
:104F080060B310B5044690F83D3013B3022384F81B
:104F18003D30214651F8040BFFF770FF012384F858
:104F2800483084F83E3084F83F3084F8403084F8C4
:104F3800413084F8423084F8433084F8443084F8AF
:104F4800453084F8463084F8473084F83D300020F6
:104F580010BD80F83C30FCF7FFFAD7E70120704716
:104F680060B310B5044690F83D3013B3022384F8BB
:104F78003D30214651F8040BFFF740FF012384F828
:104F8800483084F83E3084F83F3084F8403084F864
:104F9800413084F8423084F8433084F8443084F84F
:104FA800453084F8463084F8473084F83D30002096
:104FB80010BD80F83C30FCF749FAD7E7012070476C
:104FC80060B310B5044690F83D3013B3022384F85B
:104FD8003D30214651F8040BFFF710FF012384F8F8
:104FE800483084F83E3084F83F3084F8403084F804
:104FF800413084F8423084F8433084F8443084F8EF
:10500800453084F8463084F8473084F83D30002035
:1050180010BD80F83C30FFF71FFED7E7012070472E
:10502800002852D070B50D46044690F83D30002B4C
:1050380046D0022384F83D3022689168244B0B4007
:105048009360214651F8040BFFF7D8FE2068816869
:105058008369026A2E680E431E491940AB68D5F869
:1050680018C043EA0C2343EA010C1B4B0CEA030368
:10507800E968D5F81CC041EA0C2119432B6A1B03C7
:10508800D5F810C043EA0C130B4322F0AA016A6852
:105098006D6942EA05120A43866021688B612368BC
:1050A8001A62012384F8483084F83E3084F83F308F
:1050B80084F8443084F8453084F83D30002070BDD1
:1050C80080F83C30FCF708FAB3E70120704700BFCE
:1050D800F8BFFEFFFCFCFFFF0303FFFF70B4036A89
:1050E80023F010030362036A456884691A4A224060
:1050F8000E6842EA062623F020038A6843EA021370
:10510800164A174CA04218BF90420CBF0122002239
:1051180006D123F08003CC6843EA041323F040034C
:105128005AB9104A904214BF002201220E4CA042E4
:1051380003D012B90D4A904207D125F4406C4A6950
:105148004CEA820C8D694CEA8505456086614A689F
:105158008263036270BC7047FF8CFFFE0000014051
:105168000004014000440140004001400048014063
:1051780038B590F83C30012B00F0958004460D4678
:10518800012380F83C30142A00F28880DFE802F01E
:105198000B8686861F868686348686864886868619
:1051A8005D86868671000068FFF794FB2268936924
:1051B80043F0080393612268936923F00403936121
:1051C8002268936929690B439361002067E00068AE
:1051D800FFF784FF2268936943F4006393612268B0
:1051E800936923F48063936122689369296943EA88
:1051F80001239361002052E00068FFF7BFFB22689B
:10520800D36943F00803D3612268D36923F0040308
:10521800D3612268D36929690B43D36100203EE03A
:105228000068FFF7F5FB2268D36943F40063D36194
:105238002268D36923F48063D3612268D36929691A
:1052480043EA0123D361002029E00068FFF71AFC34
:105258002268536D43F0080353652268536D23F0A9
:10526800040353652268536D29690B435365002075
:1052780015E00068FFF740FC2268536D43F40063B3
:1052880053652268536D23F4806353652268536D18
:10529800296943EA01235365002000E00120002327
:1052A80084F83C3038BD0220FCE7000070B4944616
:1052B800046A24F0010404628469066A1D4DB0F191
:1052C800804F18BFA84223D01B4A904214BF002227
:1052D8000122A5F57C45A8421AD0CAB902F180423C
:1052E80002F58232904214BF0022012205F50065C2
:1052F800A8420DD062B9114A904214BF002201227F
:1053080005F54065A84203D012B944F0010203E054
:1053180024F0030242EA0C0222F0F0021B01DBB285
:10532800134326F00A0201F00A0111438361016266
:1053380070BC704700000140000800400040014078
:1053480038B590F83C30012B5AD004460D4601235D
:1053580080F83C3052B1042A1AD0082A2BD00C2AE3
:105368003BD00120002384F83C3038BDCB684A6824
:1053780009680068FFF79AFF2268936923F00C0315
:10538800936122689369A9680B4393610020E9E758
:10539800CB684A6809680068FFF7FAFB22689369D6
:1053A80023F44063936122689369A96843EA01235F
:1053B80093610020D6E7CB684A6809680068FFF760
:1053C80015FC2268D36923F00C03D3612268D369E2
:1053D800A9680B43D3610020C4E7CB684A68096811
:1053E8000068FFF71EFC2268D36923F44063D36189
:1053F8002268D369A96843EA0123D3610020B1E791
:105408000220B2E710B4846824F47F4C42EA0322F5
:105418000A4342EA0C02826010BC704710B5046867
:10542800A3684C4A1A404B6813434B4A1A400B680E
:105438001343A3604B68602B68D01CD8402B50D016
:1054480008D9502B15D10A6989680068FFF78EFBC7
:10545800002035E0202B60D003D9302B07D0012065
:105468002EE0002B5BD0102B5BD1002028E0002021
:1054780026E0012024E0702B2BD001D201201FE070
:10548800364A93424FD008D9B3F5001F57D018D9E0
:10549800334A934259D1002012E0303A934244D023
:1054A80007D9304A934246D01032934245D1002062
:1054B80006E0B3F5801F3AD0B3F1101F39D10020B0
:1054C80010BD294A93423CD0103293423BD1002070
:1054D800F6E70B698A68C9680068FFF793FF002040
:1054E800EEE70B68052B32D003681C6A1A6A22F0B3
:1054F80001021A620268936923F0F003096943EA1A
:105508000113936103681C620020D9E70A6989685E
:105518000068FFF758FB0020D2E70020D0E7002002
:10552800CEE70120CCE70020CAE70020C8E700202A
:10553800C6E70120C4E70020C2E70120C0E7002039
:10554800BEE70020BCE70120BAE70120B8E7012048
:10555800B6E700BF8FFFCFFFF8FFFEFF5000100037
:1055680010002000300010006000100090F83C305F
:10557800012B22D010B50446012380F83C300223C9
:1055880080F83D30FFF74AFF80B92268D36823F0DE
:105598004003D3602268D36823F48043D360012397
:1055A80084F83D30002384F83C3010BD012084F895
:1055B8003D00002384F83C30F7E70220704701F0F3
:1055C8001F01012303FA01FC036A23EA0C030362A7
:1055D800036A02FA01F10B430362704710B50446EF
:1055E800084600294ED194F83E30DBB2013B18BF83
:1055F8000123002B40F09B8000286ED1022384F801
:105608003E30012201462068FFF7D9FF23684A4946
:105618004A4A934218BF8B420BD002F5705293420C
:1056280007D002F58062934203D002F5806293426C
:1056380003D15A6C42F400425A6423683E4AB3F1DB
:10564800804F18BF934264D0A2F57C42934260D049
:1056580002F5806293425CD002F58062934258D092
:1056680002F57842934254D0A2F56C42934250D04E
:1056780002F5943293424CD01A6842F001021A6043
:10568800002055E004290CD0082911D00C2916D087
:1056980010291BD094F84330DBB2013B18BF01231B
:1056A800A7E794F83F30DBB2013B18BF0123A0E71E
:1056B80094F84030DBB2013B18BF012399E794F816
:1056C8004130DBB2013B18BF012392E794F8423026
:1056D800DBB2013B18BF01238BE7042809D0082857
:1056E8000BD00C280DD010280FD0022384F843309B
:1056F80087E7022384F83F3083E7022384F84030A9
:105708007FE7022384F841307BE7022384F84230A4
:1057180077E799680A4A0A40062A18BFB2F5803F17
:1057280007D01A6842F001021A60002000E0012048
:1057380010BD0020FCE700BF00000140000401404C
:105748000700010010B504460B4611BB90F83E1047
:10575800C9B2002B39D194F84420D2B2012A08BF2B
:10576800012940F0BD80002B3FD1022284F83E2061
:10577800002B56D1022284F844200C2B00F2B28070
:10578800DFE803F05FB0B0B08EB0B0B094B0B0B0A6
:105798009A00042909D008290BD00C290DD010290A
:1057A8000FD090F84310C9B2D3E790F83F10C9B2B0
:1057B800CFE790F84010C9B2CBE790F84110C9B2D2
:1057C800C7E790F84210C9B2C3E7042B05D0082BED
:1057D80007D094F84720D2B2C0E794F84520D2B257
:1057E800BCE794F84620D2B2B8E7042B09D0082BBE
:1057F8000BD00C2B0DD0102B0FD0022284F8432095
:10580800B6E7022284F83F20B2E7022284F840205B
:10581800AEE7022284F84120AAE7022284F8422057
:10582800A6E7042B05D0082B07D0022284F84720CE
:10583800A3E7022284F845209FE7022284F8462045
:105848009BE72168CA6842F00202CA600122194631
:105858002068FFF7B4FE2368244AB3F1804F18BFCD
:1058680093422FD0A2F57C4293422BD002F580625E
:10587800934227D002F58062934223D002F5784202
:1058880093421FD0A2F56C4293421BD002F594328A
:10589800934217D01A6842F001021A60002022E0F1
:1058A8002168CA6842F00402CA60CFE72168CA6862
:1058B80042F00802CA60C9E72168CA6842F01002CB
:1058C800CA60C3E799680A4A0A40062A18BFB2F5AF
:1058D800803F09D01A6842F001021A60002002E0F5
:1058E800012000E0012010BD0020FCE7000001407D
:1058F8000700010090F83C30012B45D070B401231B
:1059080080F83C30022380F83D3003685A689C6870
:105918001E4E1F4DAB4218BFB34203D122F4700292
:105928004D682A4322F070020D682A435A600368C2
:10593800164AB3F1804F18BF934217D0A2F57C42A4
:10594800934213D002F5806293420FD002F5806231
:1059580093420BD002F57842934207D0A2F56C42ED
:10596800934203D002F59432934204D124F0800488
:105978008A6814439C60012380F83D30002380F836
:105988003C30184670BC7047022070470000014048
:105998000004014090F83C30012B3CD030B4012386
:1059A80080F83C30CB6823F440738A68134323F4AF
:1059B80080634A68134323F400630A68134323F49B
:1059C80080530A69134323F400534A69134323F4A9
:1059D80080438A6A134323F470238A6943EA0243A3
:1059E80002680E4D0E4CA24218BFAA420CD123F4F5
:1059F80070034C6A43EA045323F08073CC69234351
:105A080023F00073096A0B435364002380F83C3089
:105A1800184630BC70470220704700BF00000140A4
:105A2800000401407047704770470000026852E860
:105A3800003F23F4907342E800310029F6D1026850
:105A480002F1080353E8001F0D4B0B40083242E8EF
:105A580000310029F3D1C36E012B06D02023C0F8F2
:105A68008C300023C36643677047026852E8003FE2
:105A780023F0100342E800310029F6D1EEE700BF19
:105A8800FEFFFFEF704708B5026852E8003F23F0B9
:105A9800400342E800310029F6D12023C0F88830BD
:105AA80000238367FFF7EEFF08BD704708B5806BDA
:105AB8000023A0F85E30A0F85630FFF7F6FF08BDC7
:105AC8007047000070B504460168CB6908688D68A6
