:020000040800F2
:1000000040070024B1020008C1540008AD4F0008A9
:10001000BD54000821040008296C000800000000FD
:100020000000000000000000000000006B59000804
:100030002504000800000000C55400086D590008A0
:10004000CB020008CB020008CB020008CB0200085C
:10005000CB020008CB020008CB020008CB0200084C
:10006000CB020008CB02000827040008CB020008DE
:10007000CB020008CB020008CB020008CB0200082C
:10008000CB020008CB020008CB020008CB0200081C
:10009000CB020008CB020008CB02000831040008A4
:1000A000CB020008CB020008CB020008CB020008FC
:1000B000CB020008CB020008AD5B0008CB020008B1
:1000C000CB020008CB020008CB020008B957000899
:1000D000CB020008196C0008CB020008CB02000814
:1000E000CB020008CB02000800000000CB02000891
:1000F000CB020008CB020008CB020008CB020008AC
:10010000CB020008CB020008CB020008CB0200089B
:10011000CB020008CB020008CB020008CB0200088B
:10012000CB020008CB020008CB020008CB0200087B
:10013000CB020008CB020008CB020008CB0200086B
:1001400000000000000000000000000000000000AF
:10015000CB020008CB020008CB020008CB0200084B
:10016000CB020008CB020008CB020008CB0200083B
:10017000CB020008CB020008CB020008CB0200082B
:10018000CB020008CB020008CB020008CB0200081B
:10019000CB020008CB020008CB020008CB0200080B
:1001A000CB020008CB020008CB020008CB020008FB
:1001B000CB020008CB020008CB020008CB020008EB
:1001C000CB020008CB020008CB020008CB020008DB
:1001D000CB020008CB020008CB020008CB020008CB
:1001E000CB020008CB020008CB020008CB020008BB
:1001F000CB020008CB020008CB020008CB020008AB
:10020000CB020008CB020008CB020008CB0200089A
:10021000CB020008CB020008CB020008CB0200088A
:10022000CB020008CB020008CB020008000000004F
:10023000CB020008CB02000800000000CB0200083F
:10024000CB020008CB020008CB020008CB0200085A
:10025000CB020008CB020008CB020008CB0200084A
:10026000CB020008CB020008CB020008CB0200083A
:10027000CB020008CB020008CB02000800000000FF
:10028000CB020008CB020008CB02000800000000EF
:1002900000000000CB020008DFF810D000F092F858
:1002A00000480047756E0008AFF300804007002447
:1002B0000648804706480047FEE7FEE7FEE7FEE700
:1002C000FEE7FEE7FEE7FEE7FEE7FEE7B15A0008BD
:1002D000990200082DE9F05F0546002092469B46F2
:1002E00088460646814640241BE02846414647464C
:1002F000224600F057F853465A46C01A914110D38F
:1003000011461846224600F03EF82D1A67EB010808
:100310004F4622460120002100F035F817EB000976
:100320004E41201EA4F10104DFDC484631462A4636
:100330004346BDE8F09FD2B201E000F8012B491E10
:10034000FBD270470022F6E710B513460A46044672
:100350001946FFF7F0FF204610BD30B50B460146A9
:1003600000202022012409E021FA02F59D4205D354
:1003700003FA02F5491B04FA02F52844151EA2F1FE
:100380000102F1DC30BD202A04DB203A00FA02F140
:10039000002070479140C2F1200320FA03F3194373
:1003A00090407047202A04DB203A21FA02F0002115
:1003B000704721FA02F3D040C2F120029140084375
:1003C00019467047064C074D06E0E06840F001030F
:1003D00094E8070098471034AC42F6D3FFF760FF6B
:1003E0001C7000083C70000870B504460D461646A7
:1003F00000221021094800F095FD142006F0FCFCB5
:1004000032462946204605F0DFF9142006F0F4FCB8
:1004100001221021014800F085FD70BD0000025846
:1004200000BFFEE7704710B5102000F067FC10BD5C
:1004300010B5402000F062FC10BD72B600BFFEE7B0
:100440002DE9F041044600F079FD804614B9012001
:10045000BDE8F08194F83500022808D0802060655E
:1004600000BF002084F8340000BF0120F0E7FE49FF
:100470002068884249D0FC4918312068884244D01D
:10048000F9493031206888423FD0F7494831206827
:1004900088423AD0F44960312068884235D0F24928
:1004A00078312068884230D0EF4990312068884206
:1004B0002BD0ED49A8312068884226D0EB4920682E
:1004C000884222D0E9491831206888421DD0E74986
:1004D00030312068884218D0E44948312068884289
:1004E00013D0E2496031206888420ED0DF4978316C
:1004F0002068884209D0DD4990312068884204D0C4
:10050000DA49A8312068884201D1012000E00020AA
:1005100068B12068006820F01E002168086020682B
:10052000406920F0800021684861256806E0206865
:10053000006820F00E00216808602568CA4920681C
:10054000884270D0C8491831206888426BD0C649AB
:1005500030312068884266D0C349483120688842DB
:1005600061D0C1496031206888425CD0BE49783191
:100570002068884257D0BC4990312068884252D0C8
:10058000B949A831206888424DD0B84920688842CE
:1005900049D0B64918312068884244D0B349303137
:1005A000206888423FD0B1494831206888423AD01B
:1005B000AE4960312068884235D0AC497831206836
:1005C000884230D0A9499031206888422BD0A74971
:1005D000A8312068884226D0A5492068884222D0C8
:1005E000A3491431206888421DD0A14928312068D0
:1005F000884218D09E493C312068884213D09C49DB
:100600005031206888420ED0994964312068884270
:1006100009D0974978312068884204D094498C31B8
:100620002068884201D1012000E0002028B1206E1E
:10063000006820F48070216E08608B492068884231
:1006400049D0894918312068884244D086493031E0
:10065000206888423FD084494831206888423AD097
:10066000814960312068884235D07F4978312068DF
:10067000884230D07C499031206888422BD07A491A
:10068000A8312068884226D078492068884222D044
:1006900076491831206888421DD07449303120686D
:1006A000884218D0714948312068884213D06F4978
:1006B0006031206888420ED06C49783120688842C9
:1006C00009D06A4990312068884204D06749A8312E
:1006D0002068884206D12068006820F00100216867
:1006E000086005E02068006820F0010021680860CB
:1006F00011E000F023FCA0EB080005280BD9202016
:100700006065032084F8350000BF002084F83400C1
:1007100000BF01209CE6286800F001000028E8D115
:1007200051492068884249D04F4918312068884291
:1007300044D04D493031206888423FD04A49483141
:10074000206888423AD0484960312068884235D0D4
:10075000454978312068884230D04349903120683B
:1007600088422BD04049A8312068884226D03F4992
:100770002068884222D03D491831206888421DD027
:100780003A4930312068884218D0384948312068C9
:10079000884213D035496031206888420ED03349F1
:1007A00078312068884209D03049903120688842E9
:1007B00004D02E49A8312068884201D1012000E0F0
:1007C000002040B1A66D94F85C0000F01F013F20AE
:1007D0008840B06007E0A76D94F85C0000F01F014E
:1007E00001208840786020492068884276D01E49E0
:1007F00018312068884271D01B4930312068884206
:100800006CD0194948312068884267D01649603158
:100810002068884262D014497831206888425DD0CF
:10082000114990312068884258D00F49A83120687A
:10083000884253D00D49206888424FD00B49183167
:10084000206888424AD0094930312068884245D022
:10085000064948312068884240D004496031206808
:1008600088423BD0014905E01000024010040240DC
:10087000085402587831206888422FD025492068D2
:1008800088422BD0234918312068884226D022493B
:100890002068884222D020491431206888421DD027
:1008A0001D4928312068884218D01B493C312068F6
:1008B000884213D018495031206888420ED016491A
:1008C00064312068884209D0134978312068884211
:1008D00004D011498C312068884201D1012000E008
:1008E000002068B1D4E919104860E06E40B1E06EB4
:1008F000006820F48070E16E0860D4E91C10486044
:10090000012084F8350000BF002084F8340000BFC7
:1009100000BF9DE5A00402400854025870B504468B
:100920000CB9012070BD94F83500022803D0802056
:1009300060650120F6E7DC492068884249D0DA4941
:1009400018312068884244D0D74930312068884225
:100950003FD0D5494831206888423AD0D2496031E9
:100960002068884235D0D04978312068884230D01C
:10097000CD499031206888422BD0CB49A8312068DE
:10098000884226D0C9492068884222D0C7491831F8
:10099000206888421DD0C54930312068884218D06F
:1009A000C24948312068884213D0C049603120686C
:1009B00088420ED0BD4978312068884209D0BB49B1
:1009C00090312068884204D0B849A8312068884214
:1009D00001D1012000E00020F0B3042084F83500AC
:1009E000B149206888424BD0AF491831206888420D
:1009F00046D0AD4930312068884241D0AA494831BB
:100A0000206888423CD0A84960312068884237D0AD
:100A1000A54978312068884232D0A34990312068B6
:100A200088422DD0A049A8312068884228D09F490B
:100A30002068884224D09D491831206888421FD000
:100A40009A493031206888421AD098494831206844
:100A5000884215D0954900E020E060312068884246
:100A60000ED0924978312068884209D08F49903160
:100A70002068884204D08D49A8312068884206D178
:100A80002068006820F001002168086009E1206802
:100A9000006820F001002168086002E12068006819
:100AA00020F00E00216808607F492068884249D004
:100AB0007D4918312068884244D07B493031206814
:100AC00088423FD078494831206888423AD07649F8
:100AD00060312068884235D0734978312068884277
:100AE00030D071499031206888422BD06E49A831AE
:100AF0002068884226D06D492068884222D06B4900
:100B00001831206888421DD06849303120688842F9
:100B100018D0664948312068884213D06349603153
:100B2000206888420ED0614978312068884209D017
:100B30005E4990312068884204D05C49A831206821
:100B4000884206D12068006820F001002168086012
:100B500005E02068006820F0010021680860524923
:100B60002068884270D050491831206888426BD084
:100B70004D4930312068884266D04B494831206861
:100B8000884261D048496031206888425CD046493B
:100B900078312068884257D0434990312068884294
:100BA00052D04149A831206888424DD03F49206841
:100BB000884249D03D4918312068884244D03B4999
:100BC0003031206888423FD0384948312068884217
:100BD0003AD0364960312068884235D0334978317F
:100BE0002068884230D031499031206888422BD02B
:100BF0002E49A8312068884226D02D492068884295
:100C000022D02B491431206888421DD02849283130
:100C10002068884218D026493C312068884213D089
:100C200023495031206888420ED021496431206820
:100C3000884209D01E4978312068884204D01C4976
:100C40008C312068884201D1012000E00020D8B119
:100C5000206E006820F48070216E0860A56D94F805
:100C60005C0000F01F01012088406860D4E9191081
:100C70004860E06E40B1E06E006820F48070E16E84
:100C80000860D4E91C104860012084F8350000BFDA
:100C9000002084F8340000BF206D10B12046216D83
:100CA000884700203EE60000100002401004024089
:100CB0000854025810B504460E4800684CF25031F2
:100CC000884203DC172000F0BDF911E0402C0CD164
:100CD000084800684CF25031884206DD0020064981
:100CE0000870401E0349086002E0172000F0CCF9AC
:100CF00010BD0000000000240600002410B50446CA
:100D000004480068204020B1024804602046FFF7F4
:100D1000D1FF10BD88000058F8B502460B460021EF
:100D20006F4DD7E001278F401E6806EA0704002CAC
:100D300072D01E7906F00306012E04D01E7906F04B
:100D40000306022E13D190684F000326BE40B04325
:100D50004F00DE68BE4030439060506801268E40F0
:100D6000B0431E79C6F300168E40304350601E79A2
:100D700006F00306032E09D0D0684F000326BE40BC
:100D8000B0434F009E68BE403043D0601E7906F0ED
:100D90000306022E13D1CF0802F1200656F82700D1
:100DA0004E07F70E0F26BE40B0434F07FF0E1E69D9
:100DB000BE403043CF0802F1200646F827001068F5
:100DC0004F000326BE40B0431E7906F003064F00D5
:100DD000BE40304310605E6806F44036002E78D086
:100DE00000BF404E366846F002063E4F3E603E462B
:100DF000366806F00206009600BF00BF3A4E8F0824
:100E000056F827008E07370F0F26BE40B043374EE7
:100E1000B24202D100262EE05BE0354EB24201D153
:100E2000012628E0334EB24201D1022623E0324EA1
:100E3000B24201D103261EE0304EB24201D1042657
:100E400019E02F4EB24201D1052614E02D4EB242D8
:100E500001D106260FE02C4EB24201D107260AE04E
:100E60002A4EB24201D1082605E0294EB24201D1F4
:100E7000092600E00A268F073F0FBE4030431A4E76
:100E80008F0846F827004FF0B0463068A0435E68F0
:100E900006F4801606B120434FF0B046306070680B
:100EA000A0435E6806F4001606B120434FF0B0463A
:100EB00070606868A0435E6806F4003606B120439F
:100EC00068602868A0435E6806F4803606B1204357
:100ED0002860491C1E68CE40002E7FF423AFF8BD69
:100EE00080000058F44402580804005800000258DA
:100EF0000004025800080258000C02580010025862
:100F00000014025800180258001C02580020025811
:100F100000240258024613690B400BB1012000E087
:100F2000002070470AB1816101E00B0483617047C2
:100F300001480068000C70470010005C0148006820
:100F4000704700000800002403480068034909783E
:100F5000084401490860704708000024100000247C
:100F600010B5032000F0E2F801F0F4FB1049096825
:100F7000C1F303210F4A515C01F01F0120FA01F473
:100F80000B48006800F00F001146085C00F01F00DD
:100F900024FA00F00849086008480460032000F0C3
:100FA0000FF808B1012010BD00F036F80020FAE774
:100FB000184402580C700008180000241400002483
:100FC00070B504461148007808B9012070BD0F487B
:100FD00000784FF47A71B1FBF0F00D490968B1FB6C
:100FE000F0F5284602F0E0FC08B10120EEE7102CF5
:100FF00007D200222146501E00F05AF8054804602E
:1010000001E00120E2E70020E0E7000010000024FA
:10101000140000240C00002408B500BF0848006834
:1010200040F00200064908600846006800F002002F
:10103000009000BF00BF052000F078F808BD000058
:10104000F444025810B501460846002817DB00F0AA
:101050001F0301229A400B4B440943F8242000BF90
:1010600000BF00BFBFF34F8F00BF00BF00BF00BF76
:1010700000BF00BFBFF36F8F00BF00BF00BF00BF46
:1010800010BD000080E100E00146084600280DDBAD
:1010900000BF00BF00F01F0301229A4043099B00DC
:1010A00003F1E023C3F8002100BF00BF00BF704779
:1010B0002DE9F05F80460D46164605F0C7FD074650
:1010C00039462A46334601F00700C0F1070ABAF153
:1010D000040F02D94FF0040A01E0C0F1070AD1461B
:1010E00000F1040ABAF1070F02D24FF0000A01E042
:1010F000A0F1030AD4464FF0010A0AFA09FAAAF14C
:10110000010A0AEA020A0AFA0CFA4FF0010B0BFA7A
:101110000CFBABF1010B0BEA030B4AEA0B04214673
:10112000404605F09BFDBDE8F09F000000BF00F0C9
:101130000702064B19684FF6FF031940044B0B4397
:1011400043EA0221014B196000BF70470CED00E03B
:101150000000FA0570B5044615480068C0F3800029
:1011600048B91348006800F00700A04201D00120F0
:1011700070BD0020FCE70E48006820F00700204307
:101180000B490860FFF7DAFE054607E0FFF7D6FED9
:10119000401BB0F57A7F01D90120E9E704480838FF
:1011A0000068C0F340300028F0D00020E0E70000E5
:1011B0000C48025810B501F083FA05490968C1F3DB
:1011C0000211044A515C01F01F01C84010BD00002B
:1011D000204402580C70000870B50146844D2D68FB
:1011E00005F00303824D2D68C5F30530804D2D1D9C
:1011F0002D68C5F300147E4D14352D68C5F3CC055C
:1012000015FB04F501EE105AB8EE411AF0EE410A52
:1012100000286FD023B1012B4ED0022B6BD16BE095
:10122000734D283D2D68C5F340153DB3704D283DE5
:101230002D68C5F3C1066F4D25FA06F201EE102A9E
:10124000F8EE411A01EE100AB8EE411A81EE812A39
:101250009FED691AC0EE811A654D10352D68C5F3F2
:10126000080501EE105AB8EE411A31EE811AF7EE78
:10127000001A31EE211A22EE010A1CE001EE100ADA
:10128000B8EE411ADFED5D1A81EE812A9FED5A1A00
:10129000C0EE811A564D10352D68C5F3080501EED4
:1012A000105AB8EE411A31EE811AF7EE001A31EEFB
:1012B000211A22EE010A5BE001EE100AB8EE411A93
:1012C000DFED4F1A81EE812A9FED4B1AC0EE811A95
:1012D000474D10352D68C5F3080501EE105AB8EEDC
:1012E000411A31EE811AF7EE001A31EE211A22EE80
:1012F000010A3DE077E01DE001EE100AB8EE411A68
:101300009FED402AC2EE011A9FED3B1A80EE812A22
:10131000374D10352D68C5F3080501EE105AB8EEAB
:10132000411A32EE011AB7EE002A31EE021A21EE0E
:10133000810A1DE001EE100AB8EE411ADFED301A05
:1013400081EE812A9FED2C1AC0EE811A284D1035AE
:101350002D68C5F3080501EE105AB8EE411A31EEBA
:10136000811AF7EE001A31EE211A22EE010A00BFAF
:1013700000BF1F4D10352D68C5F3462501EE105AEC
:10138000B8EE411AF7EE001A31EE211AC0EE011A3A
:10139000BCEEE11A81ED001A154D10352D68C5F32C
:1013A000064501EE105AB8EE411AF7EE001A31EE7A
:1013B000211AC0EE011ABCEEE11A81ED011A0C4DA2
:1013C00010352D68C5F3066501EE105AB8EE411AC6
:1013D000F7EE001A31EE211AC0EE011ABCEEE11A46
:1013E00081ED021A03E000250D604D608D6070BD37
:1013F000284402580090D003000000460024744C9A
:101400000024744A0024F44A70B50146844D2D68C6
:1014100005F00303824D2D68C5F30550804D2D1D49
:101420002D68C5F300247E4D1C352D68C5F3CC0511
:1014300015FB04F501EE105AB8EE411AF0EE410A20
:1014400000286FD023B1012B4ED0022B6BD16BE063
:10145000734D283D2D68C5F340153DB3704D283DB3
:101460002D68C5F3C1066F4D25FA06F201EE102A6C
:10147000F8EE411A01EE100AB8EE411A81EE812A07
:101480009FED691AC0EE811A654D18352D68C5F3B8
:10149000080501EE105AB8EE411A31EE811AF7EE46
:1014A000001A31EE211A22EE010A1CE001EE100AA8
:1014B000B8EE411ADFED5D1A81EE812A9FED5A1ACE
:1014C000C0EE811A564D18352D68C5F3080501EE9A
:1014D000105AB8EE411A31EE811AF7EE001A31EEC9
:1014E000211A22EE010A5BE001EE100AB8EE411A61
:1014F000DFED4F1A81EE812A9FED4B1AC0EE811A63
:10150000474D18352D68C5F3080501EE105AB8EEA1
:10151000411A31EE811AF7EE001A31EE211A22EE4D
:10152000010A3DE077E01DE001EE100AB8EE411A35
:101530009FED402AC2EE011A9FED3B1A80EE812AF0
:10154000374D18352D68C5F3080501EE105AB8EE71
:10155000411A32EE011AB7EE002A31EE021A21EEDC
:10156000810A1DE001EE100AB8EE411ADFED301AD3
:1015700081EE812A9FED2C1AC0EE811A284D183574
:101580002D68C5F3080501EE105AB8EE411A31EE88
:10159000811AF7EE001A31EE211A22EE010A00BF7D
:1015A00000BF1F4D18352D68C5F3462501EE105AB2
:1015B000B8EE411AF7EE001A31EE211AC0EE011A08
:1015C000BCEEE11A81ED001A154D18352D68C5F3F2
:1015D000064501EE105AB8EE411AF7EE001A31EE48
:1015E000211AC0EE011ABCEEE11A81ED011A0C4D70
:1015F00018352D68C5F3066501EE105AB8EE411A8C
:10160000F7EE001A31EE211AC0EE011ABCEEE11A13
:1016100081ED021A03E000250D604D608D6070BD04
:10162000284402580090D003000000460024744C67
:101630000024744A0024F44A2DE9F04104460025B0
:10164000A8464FF00062D4E9001011400020134674
:1016500059404040014331D1A06E48B1B0F5801FE0
:101660000DD0B0F5001F11D0B0F5401F16D114E019
:10167000F948006840F40030F749086010E00221A2
:1016800004F1080003F034FF054609E0022104F1EB
:10169000280003F0DFFF054602E001E0012500BF5E
:1016A00000BF55B9EC482430006820F44010A16E0A
:1016B0000843E9492431086000E0A8464FF48073EC
:1016C000D4E90010194000205940404001432ED178
:1016D000A06D05281BD2DFE800F0030A11181900DD
:1016E000DD48006840F40030DB49086011E000216B
:1016F00004F1080003F0FCFE05460AE0002104F1B5
:10170000280003F0A7FF054603E002E001E0012501
:1017100000BF00BF55B9D0482430006820F0070052
:10172000A16D0843CC492431086000E0A8464FF47D
:101730000073D4E900101940002059404040014393
:1017400034D1E06D802818D003DC40B140281DD191
:101750000CE0C02818D0B0F5807F17D115E0BE4846
:10176000006840F40030BC49086011E0002104F139
:10177000080003F0BDFE05460AE0002104F1280040
:1017800003F068FF054603E002E001E0012500BF29
:1017900000BF55B9B0482430006820F4E070E16D16
:1017A0000843AD492431086000E0A8464FF4806347
:1017B000D4E900101940002059404040014339D17C
:1017C000D4F8A800B0F5800F1AD004DC50B1B0F501
:1017D000001F1ED10DE0B0F5C00F18D0B0F5000FFE
:1017E00017D115E09C48006840F400309A49086021
:1017F00011E0002104F1080003F07AFE05460AE03A
:10180000002104F1280003F025FF054603E002E073
:1018100001E0012500BF00BF5DB98F482C30006892
:1018200020F46000D4F8A81008438B492C310860DC
:1018300000E0A8464FF40062D4E9001011400020F7
:10184000134659404040014339D1D4F8AC00B0F1BF
:10185000007F1AD004DC50B1B0F1807F1ED10DE0C2
:10186000B0F1407F18D0B0F1806F17D115E07A4801
:10187000006840F400307849086011E0002104F16C
:10188000080003F035FE05460AE0002104F12800B7
:1018900003F0E0FE054603E002E001E0012500BFA1
:1018A00000BF5DB96C482C30006820F0E060D4F8CF
:1018B000AC10084368492C31086000E0A8464FF09E
:1018C0000073D4E900011840002158404940084302
:1018D00028D1E06CA8B1102804D0202809D03028E5
:1018E00010D10DE05C48006840F400305A490860AF
:1018F0000AE0022104F1080003F0FAFD054603E0C6
:1019000002E001E0012500BF00BF55B95248203078
:10191000006820F03000E16C08434F492031086036
:1019200000E0A8464FF48053D4E90010194000208D
:1019300059404040014337D1206EB0F5005F1AD0C6
:1019400004DC50B1B0F5805F1ED10DE0B0F5405F12
:1019500018D0B0F5804F17D115E03F48006840F42B
:1019600000303D49086011E0002104F1080003F057
:10197000BFFD05460AE0002104F1280003F06AFEDD
:10198000054603E002E001E0012500BF00BF55B9B4
:1019900031482430006820F4E040216E08432E498D
:1019A0002431086000E0A8464FF40053D4E9001049
:1019B0001940002059404040014335D1606EB0F5D8
:1019C000403F1ED007DC68B1B0F5803F0BD0B0F5CA
:1019D000003F19D10EE0B0F5802F13D0B0F5A02F45
:1019E00012D110E012E0012104F1080003F080FDA3
:1019F00005460BE0012104F1280003F02BFE05460B
:101A000004E003E002E001E0012500BF00BF55B99A
:101A100011482430006820F4E020616E08430E492C
:101A20002431086000E0A8464FF48043D4E9000167
:101A30001840002158404940084337D1D4F8B0003D
:101A4000B0F1405F20D009DC78B1B0F1805F0DD0FB
:101A5000B0F1005F1BD110E02C440258B0F1804F70
:101A600013D0B0F1A04F12D110E012E0012104F127
:101A7000080003F03DFD05460BE0012104F12800BC
:101A800003F0E8FD054604E003E002E001E0012583
:101A900000BF00BF4DB9FE48006820F0E040D4F818
:101AA000B0100843FA49086000E0A8464FF400422D
:101AB000D4E9001011400020134659404040014332
:101AC00029D1206FB0B1B0F1805F03D0B0F1005FD9
:101AD00011D108E0EE482C38006840F40030EC49A1
:101AE0002C39086009E0012104F1080003F000FD31
:101AF000054602E001E0012500BF00BF55B9E448FA
:101B00000838006820F04050216F0843E049083948
:101B1000086000E0A8464FF08072D4E90010114040
:101B2000002013465940404001432AD1A06CB8B16F
:101B3000012804D002280BD0032812D10FE0D4488A
:101B40002C38006840F40030D1492C3908600AE094
:101B5000022104F1080003F0CBFC054603E002E09B
:101B600001E0012500BF00BF55B9C9480C38006825
:101B700020F00300A16C0843C5490C39086000E05F
:101B8000A8464FF48002D4E900011040002113461A
:101B90005840494008437DD1BE48006840F48070F9
:101BA000BC490860FFF7CAF9064606E0FFF7C6F928
:101BB000801B642801D9032505E0B648006800F4BD
:101BC00080700028F2D000BF85BBB1481830006893
:101BD00000F44070B4F8B41001F44071884213D09E
:101BE000AB481830006820F44077A94818300068E6
:101BF00040F48030A649183108600846006820F497
:101C00008030086008460760D4F8B400B0F5807FE3
:101C100015D1FFF793F9064609E0FFF78FF9801B0E
:101C200041F28831884202D9032507E038E098481C
:101C300018300068C0F340000028EED000BF55BB4C
:101C400000BFB4F8B40000F44070B0F5407F0ED18E
:101C50008F484838006820F47C518F4AD4F8B4008B
:101C6000104041EA10108A494839086007E0884866
:101C70004838006820F47C50854948390860844819
:101C800018300068B4F8B410C1F30B010843804960
:101C9000183101E005E001E0086002E0A84600E03C
:101CA000A8460122D4E90001104000211346584003
:101CB0004940084330D1E06F18281AD005DC48B1FC
:101CC000082808D0102817D10CE0202812D0282886
:101CD00012D110E012E0012104F1080003F008FC29
:101CE00005460BE0012104F1280003F0B3FC054692
:101CF00004E003E002E001E0012500BF00BF55B9A8
:101D00006348001F006820F03800E16F0843604915
:101D1000091F086000E0A8460222D4E90001104033
:101D20000021134658404940084329D1A06F062896
:101D300016D2DFE800F003040B12131412E00121A5
:101D400004F1080003F0D4FB05460BE0012104F187
:101D5000280003F07FFC054604E003E002E001E018
:101D6000012500BF00BF55B94948001F006820F099
:101D70000700A16F08434649091F086000E0A84614
:101D80000423D4E900101940002059404040014389
:101D900029D1D4F89400062816D2DFE800F0030415
:101DA0000B12131412E0012104F1080003F0A0FB50
:101DB00005460BE0012104F1280003F04BFC054629
:101DC00004E003E002E001E0012500BF00BF4DB9DF
:101DD0002F48006820F00700D4F8941008432C49DD
:101DE000086000E0A8462023D4E900011840002143
:101DF00058404940084337D1D4F89000B0F1405FD3
:101E00001ED007DC68B1B0F1805F0BD0B0F1005F8D
:101E100019D10EE0B0F1804F13D0B0F1A04F12D124
:101E200010E012E0002104F1080003F061FB054618
:101E30000BE0022104F1280003F00CFC054604E04D
:101E400003E002E001E0012500BF00BF5DB91048DA
:101E5000001F006820F0E040D4F8901008430C49BF
:101E6000091F086000E0A8464023D4E9001019408B
:101E700000205940404001433CD1D4F89C00B0F5CB
:101E8000406F25D00EDCA0B1B0F5806F12D005E018
:101E90005844025800480258FFFCFF0FB0F5006F8D
:101EA00019D10EE0B0F5805F13D0B0F5A05F12D16C
:101EB00010E012E0002104F1080003F019FB0546D0
:101EC0000BE0022104F1280003F0C4FB054604E006
:101ED00003E002E001E0012500BF00BF4DB9FE486C
:101EE000006820F4E050D4F89C100843FA490860D8
:101EF00000E0A8468023D4E9001019400020594092
:101F00004040014335D1D4F8A000B0F5C04F1ED0F9
:101F100007DC68B1B0F5005F0BD0B0F5804F19D188
:101F20000EE0B0F5004F13D0B0F5204F12D110E005
:101F300012E0002104F1080003F0DAFA05460BE094
:101F4000022104F1280003F085FB054604E003E0CC
:101F500002E001E0012500BF00BF4DB9DE48006886
:101F600020F46040D4F8A0100843DB49086000E08A
:101F7000A8460823D4E900101940002059404040E9
:101F8000014317D1D4F88400B0F5805F07D1022156
:101F900004F1280003F05EFB08B14FF00108CE48C1
:101FA000001F006820F44050D4F884100843CA4948
:101FB000091F08601023D4E900101940002059407F
:101FC0004040014315D1D4F89800B0F5807F07D187
:101FD000022104F1280003F03DFB08B14FF0010895
:101FE000BD48006820F44070D4F898100843BA49FE
:101FF00008604FF40022D4E900011040002113468C
:1020000058404940084327D1D4F8A40030B1B0F576
:10201000803F0AD0B0F5003F0FD10DE0002104F160
:10202000080003F065FA054609E0022104F12800E2
:1020300003F010FB054602E001E0012500BF00BFF0
:102040004DB9A548006820F44030D4F8A4100843E6
:10205000A149086000E0A8464FF48023D4E90001BC
:10206000184000215840494008432DD1D4F8880039
:10207000B0F5801F06D0B0F5001F0CD0B0F5401FA2
:1020800011D10FE094482C38006840F40030924998
:102090002C39086009E0012104F1280003F0DAFA84
:1020A000054602E001E0012500BF00BF5DB98A4896
:1020B000001F006820F44010D4F8881008438649B7
:1020C000091F086000E0A8464FF48032D4E90001FF
:1020D00010400021134658404940084325D1206D47
:1020E00018B1B0F5803F10D108E07B482C3800686B
:1020F00040F4003078492C39086008E0022104F1EE
:10210000080003F0F5F9054601E0012500BF00BF16
:1021100055B971480C38006820F48030216D0843AF
:102120006D490C39086000E0A8464FF00052D4E930
:10213000001011400020134659404040014307D190
:10214000022104F1280003F085FA08B14FF00108DC
:102150004FF40033D4E900011840002158404940B1
:10216000084329D1D4F88000A0B1B0F5807F06D013
:10217000B0F5007F0CD0B0F5407F0CD109E0564897
:102180002C38006840F4003053492C39086004E0D2
:1021900003E002E001E0012500BF00BF5DB94E4849
:1021A000001F006820F44070D4F8801008434A49AA
:1021B000091F086000E0A8464FF48012D4E900101F
:1021C00011400020134659404040014309D1424884
:1021D0000838006820F00040616F08433E49083924
:1021E00008604FF08052D4E90010114000201346DF
:1021F0005940404001430AD137484838006820F42C
:102200008040D4F8B81008433349483908604FF487
:102210000012D4E9001011400020134659404040FC
:10222000014309D12C480838006820F08070E16E25
:1022300008432949083908604FF08042D4E900106A
:1022400011400020134659404040014311D100BFC6
:1022500021484838006820F400401F494839086088
:1022600008460068D4F8BC1008431B494839086088
:1022700000BF4FF00042D4E9001011400020134687
:1022800059404040014309D113480C38006820F000
:102290004050616D084310490C3908604FF400024A
:1022A000D4E900101140002013465940404001433A
:1022B0000AD10948001F006820F44000D4F88C10AF
:1022C00008430549091F0860012300216068184080
:1022D00001224940504001E058440258014306D1D0
:1022E00004F1080003F004F9054605B1A8460222EE
:1022F00000216068104049405040014307D101214E
:1023000004F1080003F0F4F8054605B1A8460423DB
:10231000002061681940042240405140084307D121
:10232000022104F1080003F0E3F8054605B1A846D0
:1023300008230021606818400822494050400143AA
:1023400006D104F1280003F085F9054605B1A84639
:10235000102200216068104049405040014307D1DD
:10236000012104F1280003F075F9054605B1A846DE
:10237000202200206168114040405140084307D1AD
:10238000022104F1280003F065F9054605B1A846CD
:10239000B8F1000F02D10020BDE8F0810120FBE779
:1023A0002DE9F04104460D4614B90120BDE8F08145
:1023B000BD48006800F00F00A8420ED2BA4800687D
:1023C00020F00F002843B84908600846006800F074
:1023D0000F00A84201D00120E8E7207800F00400B7
:1023E00004280ED1B1492069096801F070018842C2
:1023F00007D9AE48006820F0700021690843AB4956
:102400000860207800F00800082811D1A749091DAC
:102410006069096801F07001884209D9A348001D6C
:10242000006820F0700061690843A049091D086038
:10243000207800F01000102811D19C49091DA069D6
:10244000096801F4E061884209D99848001D0068D4
:1024500020F4E060A16908439449091D08602078D0
:1024600000F02000202811D190490831E069096866
:1024700001F07001884209D98C480830006820F0CA
:102480007000E1690843894908310860207800F04C
:10249000020002280ED18549E068096801F00F01A9
:1024A000884207D98148006820F00F00E16808439E
:1024B0007E490860207800F00100002850D07B4859
:1024C000006820F47060A16808437849086060687B
:1024D000022807D1754818380068C0F34040F8B9A1
:1024E000012063E76068032807D170481838006846
:1024F000C0F34060A0B9012058E76068012807D107
:102500006A4818380068C0F3002048B901204DE738
:10251000664818380068C0F3800008B9012045E714
:1025200062480838006820F00700616808435F4986
:1025300008390860FEF702FD064608E0FEF7FEFCDB
:10254000801B41F28831884201D903202EE7574889
:102550000838006800F038006168B0EBC10FEDD1B9
:10256000207800F0020002280ED15049E068096886
:1025700001F00F01884207D24C48006820F00F009C
:10258000E1680843494908604748006800F00F00C7
:10259000A8420ED94448006820F00F002843424961
:1025A00008600846006800F00F00A84201D0012032
:1025B000FCE6207800F0040004280ED13B49206995
:1025C000096801F07001884207D23848006820F09D
:1025D00070002169084335490860207800F0080040
:1025E000082811D13149091D6069096801F070019D
:1025F000884209D22D48001D006820F070006169F2
:1026000008432A49091D0860207800F010001028AE
:1026100011D12649091DA069096801F4E0618842C9
:1026200009D22248001D006820F4E060A169084337
:102630001E49091D0860207800F02000202811D1D3
:102640001A490831E069096801F07001884209D22D
:1026500016480830006820F07000E169084313490B
:102660000831086000F076F810490968C1F30321C9
:102670000F4A515C01F01F0120FA01F70B48006876
:1026800000F00F001146085C00F01F0027FA00F070
:10269000084908600848076008480068FEF790FC91
:1026A0008046404682E6000000200052184402584E
:1026B0000C70000818000024140000240C000024F2
:1026C00010B500F047F80D490968C1F303210C4A21
:1026D000515C01F01F0120FA01F40848006800F085
:1026E0000F001146085C00F01F0024FA00F00549B5
:1026F0000860054804600846006810BD1844025888
:102700000C700008180000241400002400B5FFF726
:10271000D7FF05490968C1F30211044A515C01F071
:102720001F01C84000BD00001C4402580C70000886
:1027300000B5FFF7C5FF05490968C1F30221044A46
:10274000515C01F01F01C84000BD00001C4402584C
:102750000C700008F0B5824E366806F0380636B1C7
:10276000082E15D0102E15D0182E7DD114E07C4ED9
:10277000103E3668C6F3401646B1794E103E3668B4
:10278000C6F3C107774E26FA07F000E07548E5E08A
:102790007548E3E07548E1E0714E1836366806F09A
:1027A00003046F4E18363668C6F305116C4E1C369E
:1027B000366806F001056A4E24363668C6F3CC0644
:1027C00016FB05F601EE106AB8EE410A002971D039
:1027D00024B1012C50D0022C6DD16DE0604E103E22
:1027E0003668C6F340163EB35D4E103E3668C6F3FB
:1027F000C1075C4E26FA07F301EE103AF8EE411AD3
:1028000001EE101AB8EE411A81EE812A9FED581A96
:10281000C0EE011A524E20363668C6F3080601EEA5
:10282000106AB8EE411A31EE811AF7EE001A31EE55
:10283000211A62EE010A1EE001EE101AB8EE411AEA
:10284000DFED4C1A81EE812A9FED491AC0EE011A84
:10285000434E20363668C6F3080601EE106AB8EE1D
:10286000411A31EE811A00E076E0F7EE001A31EEFF
:10287000211A62EE010A5BE001EE101AB8EE411A6D
:102880009FED3D2AC2EE011A9FED391A80EE012A12
:10289000334E20363668C6F3080601EE106AB8EEED
:1028A000411A32EE011AB7EE002A31EE021A61EE39
:1028B000810A3DE04EE01DE001EE101AB8EE411A2B
:1028C000DFED2E1A81EE812A9FED291AC0EE011A42
:1028D000234E20363668C6F3080601EE106AB8EEBD
:1028E000411A31EE811AF7EE001A31EE211A62EE2A
:1028F000010A1DE001EE101AB8EE411A9FED1E2AE2
:10290000C2EE011A9FED1A1A80EE012A144E2036EB
:102910003668C6F3080601EE106AB8EE411A32EEC8
:10292000011AB7EE002A31EE021A61EE810A00BFE9
:1029300000BF0B4E20363668C6F34626721C01EEE9
:10294000102AB8EE411AC0EE811ABCEEE11A11EE5F
:10295000100A00E0002001E0034800BF00BFF0BD06
:10296000104402580090D00300093D0000127A0084
:10297000000000460024744C0024744A0024F44AE9
:102980002DE9F047044614B90120BDE8F08720780E
:1029900000F00100002870D0FA48006800F0380804
:1029A000F8481830D0F80090B8F1100F06D0B8F100
:1029B000180F0FD109F0030002280BD1F14810388D
:1029C0000068C0F3404000286AD06068002867D1E2
:1029D0000120DAE700BF6068B0F5803F08D1E94820
:1029E0001038006840F48030E649103908602EE065
:1029F000606868B9E3481038006820F48030E14925
:102A0000103908600846006820F4802008601EE045
:102A10006068B0F5A02F0DD1DA481038006840F496
:102A20008020D849103908600846006840F480309A
:102A300008600CE0D3481038006820F48030D14999
:102A4000103908600846006820F48020086000BF44
:102A5000606898B1FEF772FA054606E0FEF76EFA76
:102A6000401B642801D903208FE7C648103800684E
:102A7000C0F340400028F1D012E012E0FEF75EFA09
:102A8000054606E0FEF75AFA401B642801D90320E8
:102A90007BE7BC4810380068C0F340400028F1D103
:102AA00000BF207800F00200022874D1B548006809
:102AB00000F03808B3481830D0F80090B8F1000F93
:102AC00005D0B8F1180F56D109F00300D0BBAD48BE
:102AD00010380068C0F3800018B1E06808B9012020
:102AE00053E7A8481038006820F01900E16808434F
:102AF000A44910390860FEF721FA054606E0FEF702
:102B00001DFA401B022801D903203EE79D481038DA
:102B10000068C0F380000028F1D000BFFEF708FA7B
:102B200041F2030188421AD8206940280BD1954808
:102B30000C38006820F47C3040F4003091490C39A6
:102B4000086017E017E08F480C38006820F47C30EC
:102B5000216940EA01308B490C3908600AE0894854
:102B60000C38006820F0FE40217C40EA0160854975
:102B70000C39086066E0E06888B382481038006865
:102B800020F01900E16808437E4910390860FEF71B
:102B9000D5F9054607E056E0FEF7D0F9401B0228BC
:102BA00001D90320F1E6774810380068C0F38000AF
:102BB0000028F1D000BFFEF7BBF941F203018842C3
:102BC0001AD8206940280BD16E480C38006820F4D0
:102BD0007C3040F400306B490C39086017E017E096
:102BE00068480C38006820F47C30216940EA0130E4
:102BF00064490C3908600AE062480C38006820F02B
:102C0000FE40217C40EA01605E490C39086019E011
:102C10005C481038006820F001005A4910390860FB
:102C2000FEF78CF9054606E0FEF788F9401B0228FE
:102C300001D90320A9E6534810380068C0F380008A
:102C40000028F1D100BF207800F0100010287CD1BE
:102C50004C48006800F038084A481830D0F8009016
:102C6000B8F1080F06D0B8F1180F3DD109F00300F4
:102C7000012839D1434810380068C0F3002020B142
:102C8000E069802801D001207FE600BFFEF750F9FF
:102C900041F2030188421AD8206A20280AD1394813
:102CA0000C38006820F0F84040F0804035490C397D
:102CB000086018E033480C38006820F0F84094F8B9
:102CC000201040EA81602F490C3908600BE02D4844
:102CD000001F006820F07C5094F8201040EA01604A
:102CE0002849091F086066E0E06978B32548103874
:102CF000006840F08000234910390860FEF71EF993
:102D0000054606E0FEF71AF9401B022801D9032008
:102D10003BE61C4810380068C0F300200028F1D0C2
:102D200000BFFEF705F941F2030188421CD8206A72
:102D300020280CD113480C38006820F0F84040F0EF
:102D4000804010490C3908601AE035E01CE00D485D
:102D50000C38006820F0F84094F8201040EA8160B8
:102D600008490C3908600BE00648001F006820F095
:102D70007C5094F8201040EA01600249091F086065
:102D800019E0000010440258FA48006820F0800062
:102D9000F8490860FEF7D2F8054606E0FEF7CEF8DF
:102DA000401B022801D90320EFE5F2480068C0F378
:102DB00000200028F2D100BF207800F00800082889
:102DC00036D16069D0B1EB487430006840F0010042
:102DD000E84974310860FEF7B1F8054606E0FEF7F1
:102DE000ADF8401B022801D90320CEE5E14874303C
:102DF0000068C0F340000028F1D019E0DD487430CD
:102E0000006820F00100DB4974310860FEF796F895
:102E1000054606E0FEF792F8401B022801D9032080
:102E2000B3E5D44874300068C0F340000028F1D105
:102E3000207800F02000202830D1A069B8B1CD481A
:102E4000006840F48050CB490860FEF777F80546EB
:102E500006E0FEF773F8401B022801D9032094E531
:102E6000C4480068C0F340300028F2D016E0C148E2
:102E7000006820F48050BF490860FEF75FF80546FF
:102E800006E0FEF75BF8401B022801D903207CE531
:102E9000B8480068C0F340300028F2D1207800F034
:102EA000040004287DD1B448006840F48070B24921
:102EB0000860FEF743F8054606E0FEF73FF8401BC2
:102EC000642801D9032060E5AB48006800F48070F5
:102ED0000028F2D000BFA068012808D1A5487030B2
:102EE000006840F00100A349703108602DE0A0683F
:102EF00068B9A0487030006820F001009D49703129
:102F000008600846006820F0040008601DE0A06822
:102F100005280DD197487030006840F004009549AD
:102F2000703108600846006840F0010008600CE05D
:102F300090487030006820F001008E4970310860C0
:102F40000846006820F00400086000BFA068A0B137
:102F5000FDF7F4FF054608E0FDF7F0FF401B41F2E6
:102F60008831884201D903200FE58248703000681B
:102F7000C0F340000028EFD013E0FDF7DFFF054667
:102F800008E0FDF7DBFF401B41F28831884201D9A0
:102F90000320FAE4774870300068C0F3400000284E
:102FA000EFD1606A00287DD072481030006800F0D0
:102FB0003800182877D0606A022875D16D480068FB
:102FC00020F080706B490860FDF7B8FF054606E009
:102FD000FDF7B4FF401B022801D90320D5E4654862
:102FE0000068C0F340600028F2D100BFD4E90A10A5
:102FF00041EA00105F492831096840F2F3329143F9
:1030000008435C4928310860208E401EC0F3080048
:10301000616B491E4FF47E4202EA41210843218F31
:10302000491ED20102EA014108433C21095D491EC3
:10303000120202EA016108434E493031086000BFC4
:10304000081F006820F00100091F0860494834305B
:1030500000684FF6F8718843A16C40EAC100454909
:103060003431086043482C30006820F00C00216C9B
:10307000084340492C3108600846006820F00200EF
:10308000616C08433B492C3108600846006840F4F5
:10309000803008600846006840F400300860084648
:1030A000006802E093E038E01FE040F48020086010
:1030B0000846006840F0010008602E48006840F0B3
:1030C00080702C490860FDF739FF054606E0FDF7E2
:1030D00035FF401B022801D9032056E4254800682B
:1030E000C0F340600028F2D071E02248006820F070
:1030F000807020490860FDF721FF054606E0FDF7D6
:103100001DFF401B022801D903203EE41948006836
:10311000C0F340600028F2D159E016482830076813
:10312000144830300668606A012821D007F0030196
:10313000A06A81421CD1C7F30511E06A884217D109
:10314000C6F30801206B401E814211D1606B401E06
:10315000C6F3462188420BD1A06B401EC6F3064140
:10316000884205D1E06B401EC6F30661884205D057
:1031700001200AE40044025800480258154800683B
:10318000C0F3CC07A06CB84221D0124808380068C0
:1031900020F001000F4908390860FDF7CFFE054611
:1031A00000BFFDF7CBFE401BFBD00A4800684FF67E
:1031B000F8718843A16C40EAC100064908600548DF
:1031C0000838006840F00100024908390860002012
:1031D0004AE4000034440258704700002DE9F05FD3
:1031E0000446206807692068D0F8148007EA0805BB
:1031F0002068D0F808904FF0000A94F881602068A9
:1032000000F1300B08F40060B0F5006F0ED107F04C
:10321000080008280AD12068806940F4006021680D
:103220008861204600F053FABDE8F09F05F04000A9
:1032300070B905F0200058B905F00400042807D142
:103240002046616F88472046216F88474FF0010A6A
:1032500005F0400050B905F0010038B105F0040058
:1032600020B92046216F88474FF0010A05F0200061
:1032700058B905F00200022807D105F0040020B972
:103280002046616F88474FF0010ABAF1000F00D065
:10329000CAE705F00800082863D12068806940F07B
:1032A0000800216888612068806940F0100021686A
:1032B00088612068806940F4006021688861206826
:1032C000006920F00800216808612068806800F427
:1032D000404038BB22E0E0680F2807D92068006B27
:1032E000616E0860606E001D606612E0E06807288D
:1032F00007D9BBF80000616E0880606E801C6066B4
:1033000007E0206890F83000616E0870606E401C25
:103310006066B4F86A00401EA4F86A00B4F86A0057
:103320000028D8D1204602F079FA012084F88100E3
:10333000D4F8840018B12046FFF74EFF74E7052E3D
:1033400003D1204600F02FFB0AE0042E03D12046D3
:1033500000F0BCF904E0032E02D1204600F022FB6D
:1033600062E705F4587000287DD005F0400058B1A0
:10337000D4F8840040F00400C4F884002068806918
:1033800040F040002168886105F4007058B1D4F81D
:10339000840040F00100C4F884002068806940F493
:1033A00000702168886105F4807058B1D4F88400F9
:1033B00040F00800C4F884002068806940F4807000
:1033C0002168886105F0200058B1D4F8840040F0ED
:1033D0008000C4F884002068806940F020002168E3
:1033E0008861D4F88400A8B32068006820F0010048
:1033F000216808602068006940F26B3188432168C9
:10340000086109F44040B0F5404F25D1206880683C
:1034100020F4404021688860E06F60B11348E16F9C
:103420000865E06FFDF77AFA28B1D4F8840040F01F
:103430004000C4F88400A06F60B10C48A16F08651B
:10344000A06FFDF76BFA28B1D4F8840040F040007B
:10345000C4F8840006E006E0012084F881002046DC
:10346000FFF7BAFEE0E600BFDEE60000F358000812
:1034700070B504460CB9012070BD606A00B900BF88
:103480000021A1626349206888420CD0624920680B
:10349000884208D061492068884204D0E0680F283B
:1034A00001D90120E8E7204602F031FA05465949E2
:1034B0002068884209D058492068884205D0574979
:1034C0002068884201D0082D0DD8524920688842D2
:1034D00007D051492068884203D05049206888426B
:1034E00003D1102D01D90120C6E794F8810028B935
:1034F000002084F88000204600F092F8022084F832
:1035000081002068006820F00100216808602068C0
:10351000806800F4F816A069B0F1806F11D160687E
:10352000B0F5800F01D1A06B28B1606848B9A06BDD
:10353000B0F1805F05D12068006840F480502168B8
:103540000860606800F48000B0F5800F0BD1E0687F
:10355000072808D32068006820F48070216D084394
:103560002168086005E02068006820F48070216808
:103570000860A16AE06908433043E16B0843E168F1
:10358000084321688860616A606B0843A16B084347
:10359000A16908432169084361690843216A084316
:1035A00061680843E16C0843A1680843A16C0843C3
:1035B000A16D08432168C860606878B92068806898
:1035C00020F4C05040F40060216888602068806862
:1035D00020F4C06040F48060216888602068006D3D
:1035E00020F0010021680865606800F48000B0F5F3
:1035F000800F07D12068C06820F00040616D08434B
:103600002168C8600020C4F88400012084F881008B
:10361000002031E70030014000380040003C00400D
:1036200010B5B8B00446142132A8FCF78BFEC021B7
:1036300002A8FCF787FE2249206888423ED1811407
:103640000020CDE9021088001A9002A8FDF7F4FFCF
:1036500008B1FCF7F2FE00BF1A48006840F4805041
:10366000184908600846006800F48050019000BFC7
:1036700000BF00BF13481038006840F00100114936
:10368000103908600846006800F00100019000BF92
:1036900000BFA0203290022033900020349035905B
:1036A0000520369032A90848FDF736FB0022114666
:1036B0002320FDF7FDFC2320FDF7E6FC38B010BD0C
:1036C00000300140F0440258000002587047704733
:1036D0002DE9F84F0446884617461D46206800F13C
:1036E00020094FF0000A00BF94F88000012802D1A1
:1036F0000220BDE8F88F012084F8800000BFFDF7AC
:103700001DFC064694F88100012808D04FF0020AFB
:1037100000BF002084F8800000BF5046E9E7B8F100
:10372000000F00D047B94FF0010A00BF002084F815
:10373000800000BF5046DCE703205C3484F825009D
:103740000020A062C4F80080A780E780A060A0816C
:10375000E081A06160615C3CA068B0F5C02F06D13B
:103760002068006840F400602168086007E0206875
:10377000C06820F4C02040F400302168C860206890
:1037800040686FF30F003843216848602068006884
:1037900040F00100216808606068B0F5800F05D135
:1037A0002068006840F4007021680860E0680F2815
:1037B00033D92DE02068406900F0020002280CD1C6
:1037C000E06D006821680862E06D001DE065B4F8F6
:1037D0006200401EA4F862001AE0FDF7AFFB801BF8
:1037E000A84201D3681C00B995B9204602F016F82A
:1037F00000BF002084F8800000BFD4F8840040F4AB
:103800008070C4F88400012084F88100032070E7F0
:10381000B4F862000028CDD1A4E0E068072846D9BA
:1038200040E02068406900F0020002281FD1B4F88F
:10383000620001280ED9E06B60B1E06D006821687C
:103840000862E06D001DE065B4F86200801EA4F817
:10385000620027E0E06D0088A9F80000E06D801CA0
:10386000E065B4F86200401EA4F862001AE0FDF7BB
:1038700065FB801BA84201D3681C00B995B920469E
:1038800001F0CCFF00BF002084F8800000BFD4F816
:10389000840040F48070C4F88400012084F8810022
:1038A000032026E7B4F862000028BAD15AE055E0B8
:1038B0002068406900F00200022834D1B4F86200A8
:1038C00003280FD9E06B40280CD9E06D006821680F
:1038D0000862E06D001DE065B4F86200001FA4F806
:1038E00062003BE0B4F8620001280ED9E06B60B1E1
:1038F000E06D0088A9F80000E06D801CE065B4F878
:103900006200801EA4F8620028E0E06D0078216863
:1039100081F82000E06D401CE065B4F86200401EB4
:10392000A4F862001AE0FDF709FB801BA84201D34E
:10393000681C00B995B9204601F070FF00BF002057
:1039400084F8800000BFD4F8840040F48070C4F88C
:103950008400012084F881000320CAE6B4F86200E4
:103960000028A5D12B46002208212046009601F010
:10397000DBFF28B1D4F8840040F02000C4F88400B4
:10398000204601F04BFF00BF002084F8800000BFFC
:10399000012084F88100D4F8840008B10120A8E651
:1039A0005046A6E67047704770B504462546681E27
:1039B000B0F1807F01D301200FE0681E4FF0E021BD
:1039C00048610F214FF0FF3003F048F900204FF01D
:1039D000E021886107200861002070BD70477047B2
:1039E0007047000010B50346002200BF93F83C006A
:1039F000012801D1022010BD012083F83C0000BF46
:103A000022F0FF00CC6840EA040222F440708C6887
:103A100040EA040222F480604C6840EA040222F486
:103A200000600C6840EA040222F480500C6940EA0D
:103A3000040222F400504C6940EA040222F480405F
:103A40008C6A40EA040222F470200C8B40EA0442A3
:103A50000F4C1868A04203D00E4C1868A0420ED13B
:103A600022F470008C8C40EA045222F08070CC6901
:103A700040EA040222F000700C6A40EA040218686E
:103A8000426400BF002083F83C0000BF00BFB2E7E3
:103A9000000001400004014030B502460B4600BF63
:103AA00092F83C00012801D1022030BD012082F8AB
:103AB0003C0000BF022082F83D0010684168106899
:103AC0008468214D1068A84203D0204D1068A84298
:103AD00003D121F470015868014321F07001186886
:103AE000014310684160184D1068A8421BD010684F
:103AF000B0F1804F17D0164D1068A84213D0154D65
:103B00001068A8420FD0144D1068A8420BD00F4D7A
:103B10001068A84207D0114D1068A84203D0104D7C
:103B20001068A84205D124F0800498680443106806
:103B30008460012082F83D0000BF002082F83C0034
:103B400000BF00BFB1E700000000014000040140D9
:103B50000004004000080040000C00400018004035
:103B60000040014010B504460CB9012010BD94F886
:103B70003D0028B9002084F83C00204600F02AF8D7
:103B8000022084F83D00211D206802F017F8012072
:103B900084F8480000BF84F83E0001213F20015511
:103BA0004020015541200155422001554320015537
:103BB00000BF00BF012084F8440045200155462085
:103BC00001554720015500BF012084F83D00002029
:103BD000CCE7000010B586B00446142101A8FCF71C
:103BE000B1FB3149206888420DD100BF2F480068E1
:103BF00040F001002D4908600846006800F001000F
:103C0000009000BF4EE02068B0F1804F0FD100BFA0
:103C100026480838006840F0010024490839086047
:103C20000846006800F00100009000BF3AE020491B
:103C30002068884236D100BF1C480838006840F030
:103C400004001A49083908600846006800F00400BA
:103C5000009000BF00BF00BF14481038006840F05B
:103C600008001249103908600846006800F0080092
:103C7000009000BF00BF4FF48050019002200290DE
:103C800000200390032004900220059001A9094818
:103C9000FDF742F8022211461E20FDF709FA1E2008
:103CA000FDF7F2F906B010BD00000140F0440258E3
:103CB00000080040000C02582DE9F04104460D4672
:103CC000002700BF94F83C00012802D10220BDE883
:103CD000F081012084F83C0000BF022084F83D0000
:103CE000206886684048064026F47F462068866043
:103CF0002868702826D00CDC00F00F01002966D15E
:103D00000011072863D2DFE800F0555657584B37AB
:103D10004100B0F1101F52D009DCB0F5805F10D027
:103D2000B0F5005F1BD0B0F5801F50D146E0A0F584
:103D300080102038002843D0102842D0202846D1B7
:103D400040E046E0D5E902136A68206801F0ADFF63
:103D50002068866846F077062068866039E0D5E9F5
:103D600002136A68206801F0A0FF2068806840F4B0
:103D70008040216888602CE0EA686968206802F069
:103D8000F3F95021206801F09BFF22E0EA6869689E
:103D9000206802F045FA6021206801F091FF18E0E8
:103DA000EA686968206802F0DFF94021206801F0C4
:103DB00087FF0EE000BF00BF00BF00BF00BF00BF15
:103DC00000BF00BF2968206801F07AFF01E00127E9
:103DD00000BF00BF012084F83D0000BF002084F830
:103DE0003C0000BF384672E788FFCEFF10B504469E
:103DF00035492068884265D1207F012862D1334847
:103E00000068012805DA002201213148FDF78AF80F
:103E100053E02E480068012826DB2C480068102853
:103E200022DC012211462A48FDF77CF82748006869
:103E300008280ADC02212648FDF76CF823490968A6
:103E4000C1F10801234A505437E02048006808288F
:103E500033DD02211E48FDF75DF81C490968C1F1F8
:103E600018011C4A505428E018480068112821DB2A
:103E700019480078F0B90021184800F0E5FB00204F
:103E80000AE0C0F10F01134A515C154A128801EB98
:103E90004201134A1180401C1028F2DB01200E4918
:103EA00008700F4801880FA002F0C0FE1720FDF730
:103EB000EBF802E01720FDF7E7F804480068401C23
:103EC0000249086010BD0000000800400000002406
:103ED000000402588C01002406000024F400002491
:103EE0000400002425640D0A000000002DE9F041C3
:103EF00004460D461646002700BF94F83C000128F2
:103F000002D10220BDE8F081012084F83C0000BF0E
:103F100096B9EB68D5E90012206802F039F92068FB
:103F2000806920F00C002168886120688069A96898
:103F300008432168886141E0042E13D1EB68D5E97C
:103F40000012206802F080F92068806920F4406047
:103F50002168886120688069A96840EA0120216899
:103F600088612BE0082E12D1EB68D5E90012206899
:103F700002F087F92068C06920F00C002168C86150
:103F80002068C069A96808432168C86116E00C2E42
:103F900013D1EB68D5E90012206802F08EF9206891
:103FA000C06920F440602168C8612068C069A968C0
:103FB00040EA01202168C86100E0012700BF00201D
:103FC00084F83C0000BF38469CE710B504460CB9A5
:103FD000012010BD94F83D0028B9002084F83C0071
:103FE000204600F029F8022084F83D00211D2068B9
:103FF00001F0E4FD012084F8480000BF84F83E0091
:1040000001213F200155402001554120015542200A
:1040100001554320015500BF00BF012084F8440032
:1040200045200155462001554720015500BF01207C
:1040300084F83D000020CCE7704700002DE9F043F4
:1040400004460D46002715B994F83E0015E0042DEE
:1040500002D13F20005D10E0082D02D14020005D1C
:104060000BE00C2D02D14120005D06E0102D02D1A5
:104070004220005D01E04320005D804615B994F8C0
:1040800044000BE0042D02D14520005D06E0082D20
:1040900002D14620005D01E04720005D8146B8F175
:1040A000010F02D1B9F1010F02D00120BDE8F08368
:1040B0001DB9022084F83E001AE0042D03D102212C
:1040C0003F20015514E0082D03D102214020015565
:1040D0000EE00C2D03D102214120015508E0102DE6
:1040E00003D102214220015502E002214320015563
:1040F0001DB9022084F844000EE0042D03D10221F2
:104100004520015508E0082D03D102214620015524
:1041100002E002214720015535B1042D0BD0082DB6
:1041200010D00C2D1CD114E02068C06840F00200B3
:104130002168C86016E02068C06840F0040021686B
:10414000C8600FE02068C06840F008002168C860BF
:1041500008E02068C06840F010002168C86001E0F5
:10416000012700BF00BFA7BB01222946206801F03C
:104170008BFD1C49206888421BD02068B0F1804F1D
:1041800017D019492068884213D0184920688842FE
:104190000FD01749206888420BD016492068884202
:1041A00007D015492068884203D014492068884206
:1041B00010D120688068124900EA0106062E0FD04F
:1041C000B6F5803F0CD02068006840F001002168FF
:1041D000086005E02068006840F001002168086080
:1041E000384663E70000014000040040000800403A
:1041F000000C004000040140001800400040014055
:104200000700010010B5044620680069C0F34000B3
:10421000D8B12068C068C0F34000B0B16FF00200B0
:1042200021680861012020772068806900F0030080
:1042300018B12046FFF7DAFD05E0204600F012F93C
:10424000204600F000FA0020207720680069C0F3C3
:104250008000D8B12068C068C0F38000B0B16FF0B2
:10426000040021680861022020772068806900F43A
:10427000407018B12046FFF7B9FD05E0204600F078
:10428000F1F8204600F0DFF900202077206800696F
:10429000C0F3C000D8B12068C068C0F3C000B0B19E
:1042A0006FF0080021680861042020772068C06949
:1042B00000F0030018B12046FFF798FD05E0204606
:1042C00000F0D0F8204600F0BEF9002020772068EA
:1042D0000069C0F30010D8B12068C068C0F30010B6
:1042E000B0B16FF0100021680861082020772068C5
:1042F000C06900F4407018B12046FFF777FD05E073
:10430000204600F0AFF8204600F09DF9002020770D
:104310002068006900F0010058B12068C06800F012
:10432000010030B16FF0010021680861204600F003
:104330003DFA20680069C0F3C01058B12068C06819
:10434000C0F3C01030B16FF08000216808612046D2
:10435000FFF745FB20680069C0F3002058B12068D2
:10436000C068C0F3C01030B16FF48070216808617C
:104370002046FFF733FB20680069C0F3801058B176
:104380002068C068C0F3801030B16FF04000216831
:104390000861204600F041FA20680069C0F340102F
:1043A00058B12068C068C0F3401030B16FF02000F1
:1043B000216808612046FFF713FB10BD10B586B0D9
:1043C0000446142101A8FBF7BDFF2249206888425A
:1043D0001DD100BF2048006840F010001E49086051
:1043E0000846006800F01000009000BF00BF4FF4C6
:1043F000007001900220029000200390032004909E
:104400000120059001A91548FCF786FC1FE02068F3
:10441000B0F1804F1BD100BF0F48006840F0010091
:104420000D4908600846006800F00100009000BFD8
:1044300000BF012001900220029000200390032081
:1044400004900120059001A90548FCF765FC06B021
:1044500010BD000000000140E04402580010025866
:104460000000025870472DE9F04104460D461646FB
:10447000002700BF94F83C00012802D10220BDE8CB
:10448000F081012084F83C0000BF0C2E51D005DCE7
:104490004EB1042E1ED0082E7AD133E0102E60D0FB
:1044A000142EF9D175E02946206801F015FC20682A
:1044B000806940F00800216888612068806920F0E8
:1044C000040021688861206880692969084321689F
:1044D000886178E02946206801F054FC20688069F2
:1044E00040F40060216888612068806920F4806061
:1044F0002168886120688069296940EA0120216873
:10450000886160E02946206801F096FC2068C06957
:1045100040F008002168C8612068C06920F00400EC
:104520002168C8612068C069296908432168C86199
:1045300049E02946206801F0D9FC2068C06940F4B0
:1045400000602168C8612068C06920F4806021682B
:10455000C8612068C069296940EA01202168C861F2
:1045600031E02946206801F0FBFC2068406D40F0F6
:104570000800216848652068406D20F0040021682B
:1045800048652068406D29690843216848651AE03C
:1045900017E02946206801F01BFD2068406D40F4BB
:1045A0000060216848652068406D20F480602168C3
:1045B00048652068406D296940EA01202168486506
:1045C00001E0012700BF00BF00BF002084F83C00CD
:1045D00000BF384653E710B504460CB9012010BDA2
:1045E00094F83D0028B9002084F83C00204600F0F3
:1045F00029F8022084F83D00211D206801F0DEFA30
:10460000012084F8480000BF84F83E0001213F20CB
:1046100001554020015541200155422001554320BC
:10462000015500BF00BF012084F84400452001551A
:10463000462001554720015500BF012084F83D0068
:104640000020CCE77047704770B504460D4615B999
:1046500094F83E0015E0042D02D13F20005D10E0EB
:10466000082D02D14020005D0BE00C2D02D141202D
:10467000005D06E0102D02D14220005D01E04320E4
:10468000005D012801D0012070BD1DB9022084F811
:104690003E001AE0042D03D102213F20015514E011
:1046A000082D03D10221402001550EE00C2D03D12D
:1046B00002214120015508E0102D03D102214220A2
:1046C000015502E0022143200155012229462068BC
:1046D00001F0DAFA2B49206888420FD02A49206875
:1046E00088420BD029492068884207D02849206891
:1046F000884203D027492068884201D1012000E088
:10470000002028B12068406C40F4004021684864D3
:104710001C49206888421BD02068B0F1804F17D018
:104720001D492068884213D01C49206888420FD058
:104730001B49206888420BD013492068884207D063
:1047400018492068884203D010492068884210D157
:1047500020688068144900EA0106062E0FD0B6F5DD
:10476000803F0CD02068006840F00100216808609C
:1047700005E02068006840F0010021680860002022
:1047800082E70000000001400004014000400140B9
:10479000004401400048014000040040000800407F
:1047A000000C00400018004007000100704770B581
:1047B00004460D4600BF94F83C00012801D10220B8
:1047C00070BD012084F83C0000BF022084F83D0049
:1047D0002946204601F034FC48B1012084F83D0010
:1047E00000BF002084F83C0000BF0120E8E72068FB
:1047F000C06820F040002168C8602068C06820F4CC
:1048000080402168C860012084F83D0000BF00207E
:1048100084F83C0000BF00BFD2E77047014600BFEC
:1048200091F88400012801D102207047012081F80D
:10483000840000BF2420C1F8880008680268086866
:10484000006820F001000B68186022F00052002080
:104850004866086802602020C1F8880000BF002078
:1048600081F8840000BF00BFDFE77047704770B574
:1048700004460D4600BF94F88400012801D10220AF
:1048800070BD012084F8840000BF2420C4F8880093
:10489000206806682068006820F001002168086030
:1048A0002068806820F06060284321688860204686
:1048B00001F022FD206806602020C4F8880000BFB7
:1048C000002084F8840000BF00BFD9E770B504461B
:1048D0000D4600BF94F88400012801D1022070BD6C
:1048E000012084F8840000BF2420C4F888002068D8
:1048F00006682068006820F00100216808602068D0
:10490000806820F06040284321688860204601F0DC
:10491000F3FC206806602020C4F8880000BF002057
:1049200084F8840000BF00BFD9E770477047704724
:104930002DE9F04704462068C569206806682068AC
:10494000876840F60F0005EA0009B9F1000F0FD1A2
:1049500005F0200060B106F0200010B907F080508B
:1049600030B1606F10B12046616F8847BDE8F087B5
:10497000B9F1000F7ED0FE48384018B9FD483040EC
:104980000028F7D005F0010058B106F4807040B15E
:10499000012021680862D4F8900040F00100C4F8BA
:1049A000900005F0020058B107F0010040B102206C
:1049B00021680862D4F8900040F00400C4F8900028
:1049C00005F0040058B107F0010040B1042021684F
:1049D0000862D4F8900040F00200C4F8900005F09E
:1049E000080070B106F0200010B9E148384040B12D
:1049F000082021680862D4F8900040F00800C4F84C
:104A0000900005F4006060B106F0806048B14FF49A
:104A1000006021680862D4F8900040F02000C4F8DB
:104A20009000D4F89000002852D005F0200050B13A
:104A300006F0200010B907F0805020B1606F10B16F
:104A40002046616F8847D4F890A02068806800F005
:104A50004000402802D00AF0280070B3204601F040
:104A600075FD2068806800F04000402826D100BF16
:104A700000BF00E02DE02168083151E8001F21F05F
:104A800040002168083141E80002002AF1D100BF4E
:104A9000D4F8800068B1B848D4F880100865D4F81C
:104AA0008000FBF73BFF98B1D4F88000016D884788
:104AB0000EE02046FFF73BFF0AE003E02046FFF749
:104AC00036FF05E02046FFF732FF0020C4F89000D3
:104AD0004CE7E06E01287DD105F01000002879D068
:104AE00006F010000028FAD0102021680862206823
:104AF000806800F0400040286DD1D4F88000006844
:104B00009E4988426BD0D4F8800000689B491831D8
:104B1000884264D0D4F880000068984930318842D7
:104B20005DD0D4F88000006894494831884256D05E
:104B3000D4F8800000689149603188424FD0D4F8A1
:104B4000800000688D497831884248D0D4F88000D0
:104B500000688A499031884241D0D4F880000068CA
:104B60008649A83188423AD0D4F880000068844948
:104B7000884234D0D4F880000068814918318842D6
:104B80002DD0D4F8800000687D493031884226D08D
:104B9000D4F8800000687A49483188421FD0D4F8A0
:104BA0008000006876496031884218D0D4F88000CF
:104BB000006873497831884211D0D4F880000068C9
:104BC0006F49903188420AD0D4F8800000686C495F
:104BD000A83102E0AEE069E001E0884204D1D4F8F7
:104BE00080000068406803E0D4F8800000684068F6
:104BF0001FFA80F8B8F1000F57D0B4F85C004045B8
:104C000053DDA4F85E80D4F88000C069B0F5807FE1
:104C100040D000BF00BF216851E8001F21F4807020
:104C2000226842E800010029F5D100BF00BF00BFA3
:104C30002168083151E8001F21F001002168083186
:104C400041E80002002AF3D100BF00BF00BF216885
:104C5000083151E8001F21F040002168083141E887
:104C60000002002AF3D100BF2020C4F88C000020ED
:104C7000E06600BF00BF216851E8001F21F010006E
:104C8000226842E800010029F5D100BFD4F8800075
:104C9000FBF7D6FB02202067B4F85C00B4F85E2076
:104CA000801A81B22046FFF7E0FD5FE634F85C0F22
:104CB0006188401A1FFA80F860885C3CC8B3B8F17C
:104CC000000F36D000BF00BF216851E8001F21F45B
:104CD0009070226842E800010029F5D100BF00BFB2
:104CE00000BF2168083151E8001F214AD24301EA80
:104CF00002002168083141E80002002AF1D100BF1A
:104D00002020C4F88C000020E066606700BF00BF70
:104D1000216851E8001F21F01000226842E80001DC
:104D20000029F5D100BF0220206741462046FFF749
:104D30009CFD1BE605F4801050B107F4800038B1EB
:104D40004FF48010216808622046FFF7EFFD0DE662
:104D500005F08000B0B106F0800010B907F4000043
:104D600080B1A06F10B12046A16F8847FEE500001A
:104D7000010000102001000433650008100002400B
:104D80001004024005F0400030B106F0400018B1B8
:104D9000204601F011FCE9E505F4000030B106F011
:104DA000804018B12046FFF7C0FDDFE505F08070B8
:104DB00030B106F0004018B12046FFF757FDD5E5A9
:104DC00000BFD3E510B504460CB9012010BDA069A1
:104DD00000B100E000BFD4F8880028B9002084F8B2
:104DE0008400204600F02AF82420C4F888002068B7
:104DF000006820F0010021680860204601F0F4FB03
:104E0000012800D1E2E7A06A10B1204601F0A0FA23
:104E10002068406820F490402168486020688068DD
:104E200020F02A00216888602068006840F00100B6
:104E300021680860204601F007FBC7E710B5B8B04D
:104E40000446142132A8FBF77DFAC02102A8FBF723
:104E500079FA2249206888423ED101210020CDE91B
:104E60000210219002A8FCF7E7FB08B1FBF7E5FA76
:104E700000BF1B48006840F0100019490860084650
:104E8000006800F01000019000BF00BF00BF144890
:104E90001038006840F001001149103908600846D8
:104EA000006800F00100019000BF00BF4FF4C06037
:104EB00032900220339000203490359007203690B5
:104EC00032A90848FBF728FF002211462520FCF7ED
:104ED000EFF82520FCF7D8F838B010BD00100140DD
:104EE000F0440258000002582DE9F84F04460E46DF
:104EF00017469946D4F88800202854D106B117B92E
:104F00000120BDE8F88F00205434E0632120606365
:104F1000FCF714F8824627806780543CA068B0F5FF
:104F2000805F04D1206910B90025B04602E0354603
:104F30004FF0000820E05346002280212046CDF8A3
:104F4000009001F017FE20B12020C4F88800032053
:104F5000D7E745B9B8F80000C0F3080021688862B7
:104F600008F1020803E02878216888626D1CB4F813
:104F70005600401EA4F85600B4F856000028DAD1B6
:104F80005346002240212046CDF8009001F0F2FD6A
:104F900020B12020C4F888000320B2E72020C4F804
:104FA00088000020ADE70220ABE7704700BFFEE7B6
:104FB00000B589B02148FEF75BFA21A0006808908F
:104FC000012208A91420FBF70FFA1DA00068079022
:104FD000012207A91420FBF707FA1AA0006806901F
:104FE000012206A93020FBF7FFF9002005900122DD
:104FF00005A90D20FBF7F8F913A000680490012221
:1050000004A90820FBF7F0F910A000680390012222
:1050100003A90520FBF7E8F90DA000680290012222
:1050200002A91720FBF7E0F905A000680190012212
:1050300001A9FF20FBF7D8F909B000BD200000242A
:1050400001000000100000008000000003000000CC
:105050001C00000000B587B0142102A8FBF772F90C
:1050600000BF5048006840F080004E490860084684
:10507000006800F08000019000BF00BF00BF08463C
:10508000006840F0010008600846006800F0010078
:10509000019000BF00BF00BF0846006840F0040058
:1050A00008600846006800F00400019000BF00BFDF
:1050B00000BF0846006840F002000860084600682B
:1050C00000F00200019000BF00BF00BF084600686A
:1050D00040F0100008600846006800F010000190E1
:1050E00000BF00BF00BF0846006840F0080008602D
:1050F0000846006800F00800019000BF00BF0022D1
:1051000010212948FBF70EFF002205212748FBF755
:1051100009FF10200290012003900020049003203A
:10512000059002A92048FBF7F7FD402002904FF4BC
:10513000881003900020049002A91B48FBF7ECFDA7
:10514000102002904FF4881003900020049002A9D0
:105150001748FBF7E1FD0520029001200390002095
:1051600004900320059002A91048FBF7D5FD02200A
:10517000029000200390049002A90C48FBF7CCFD9C
:10518000002211460A20FBF793FF0A20FBF77CFF61
:10519000012211461720FBF78BFF1720FBF774FF46
:1051A00007B000BDE0440258000002580004025855
:1051B0000008025810B51548154908604FF48000E2
:1051C00048604FF4C021124881600721C16000216E
:1051D000016141614FF0806181610021C161016223
:1051E00041628162C1624FF080414163002181636D
:1051F000C163016441648164C16401654165816585
:10520000FEF736F908B1FBF718F910BD0030014080
:105210002000002400B599B000201590169017903A
:1052200018901290139014901C210BA8FBF78AF889
:105230002C216846FBF786F82E482F490860172076
:10524000486000212C4881600921C1600021016172
:1052500041618161FEF786FC08B1FBF7EEF84FF47F
:105260008050159015A92448FEF726FD08B1FBF7DC
:10527000E4F82148FFF7AFF908B1FBF7DEF80020AA
:1052800012901390149012A91B48FEF705FC08B168
:10529000FBF7D3F860200B9005200C9000200D90B8
:1052A0000E900F901090119000220BA91248FFF75A
:1052B000DAF808B1FBF7C1F80020009001900290E5
:1052C000039004904FF40050059000200690079042
:1052D0004FF000700890002009900A906946064837
:1052E000FEF780FB08B1FBF7A8F80348FFF766F864
:1052F00019B000BD00000140A800002400B58FB027
:1053000000200B900C900D900E90089009900A9040
:105310001C2101A8FBF716F84FF080401F490860D8
:105320000220486000211D4881600121C1600021E8
:10533000016180218161FEF715FC08B1FBF77DF862
:105340004FF480500B900BA91448FEF7B5FC08B140
:10535000FBF773F81148FFF73EF908B1FBF76DF85A
:10536000002008900A9008A90C48FEF795FB08B1A8
:10537000FBF763F860200190012002900020039069
:105380000590002201A90548FFF76DF808B1FBF769
:1053900054F80248FFF712F80FB000BDF4000024E3
:1053A00000B58DB0142108A8FAF7CCFF00200590B5
:1053B00006900790019002900390049022482349A0
:1053C0000860022048600021204881600121C160FE
:1053D000002101618161FEF7C5FB08B1FBF72DF8E3
:1053E0001A48FEF7F2FD08B1FBF727F804200890F1
:1053F0005020099000200A900C9008A91348FFF74C
:10540000D6F908B1FBF719F800200590079005A917
:105410000E48FEF741FB08B1FBF70FF800200190A2
:1054200001200290002003900490002201A9074867
:10543000FEF75CFD08B1FBF700F800210348FEF71A
:10544000FDFD0DB000BD000000080040400100243B
:1054500010B51848184908604FF4E1304860002141
:1054600015488160C16001610C21416100218161A9
:10547000C1610162416200200F4988620846FFF75E
:10548000A1FC08B1FAF7D9FF00210B48FFF71EFA7B
:1054900008B1FAF7D2FF00210748FFF7E8F908B191
:1054A000FAF7CBFF0448FFF7B9F908B1FAF7C5FFDF
:1054B00010BD0000001001409C01002400BFFEE769
:1054C00000BFFEE7704700B5B1B0C0216846FAF7EB
:1054D00039FF4FF000410020CDE9001015906846DB
:1054E000FCF7AAF808B1FAF7A8FF31B000BD000038
:1054F0002DE9F04104460E4600275548006800F0AB
:105500000300032802D10120BDE8F081504828386B
:10551000006820F080604E4928390860FBF70EFDD6
:10552000054606E0FBF70AFD401B022801D90320CF
:10553000EAE7474828380068C0F3C0600028F1D186
:1055400000BF4348006820F47C30216840EA013005
:105550003F490860A088401EC0F30800A168491EAA
:105560004FF47E4202EA41210843A189491ED2013B
:1055700002EA01410843217C491E120202EA01614C
:10558000084333491031086000BF3148001D0068EE
:1055900020F0C000616908432D49091D08600846D4
:1055A000006820F02000A16908432949091D08600E
:1055B0000846006820F01000086025481430006894
:1055C0004FF6F8718843E16940EAC100204914317F
:1055D00008601F48001D006840F010001C49091DAC
:1055E00008602EB90846006840F40020086012E008
:1055F000012E08D11648001D006840F4801014499F
:10560000091D086007E01248001D006840F4001002
:105610000F49091D08600E482838006840F0806076
:105620000B4928390860FBF789FC054606E0FBF7C3
:1056300085FC401B022801D9032065E7044828386F
:105640000068C0F3C0600028F1D038465CE7000075
:10565000284402582DE9F04104460E4600275548DB
:10566000006800F00300032802D10120BDE8F081AA
:1056700050482838006820F080504E49283908608A
:10568000FBF75CFC054606E0FBF758FC401B0228D4
:1056900001D90320EAE7474828380068C0F3407082
:1056A0000028F1D100BF4348006820F07C702188B9
:1056B00040EA01503F490860A088401EC0F308003E
:1056C000A168491E4FF47E4202EA41210843A189A4
:1056D000491ED20102EA01410843217C491E1202FF
:1056E00002EA0161084333491831086000BF3148BC
:1056F000001D006820F44060616908432D49091DC0
:1057000008600846006820F40070A1690843294930
:10571000091D08600846006820F48070086025486C
:105720001C3000684FF6F8718843E16940EAC10017
:1057300020491C3108601F48001D006840F480703B
:105740001C49091D08602EB90846006840F4800015
:10575000086012E0012E08D11648001D006840F4D0
:1057600000001449091D086007E01248001D006888
:1057700040F080700F49091D08600E482838006805
:1057800040F080500B4928390860FBF7D7FB0546ED
:1057900006E0FBF7D3FB401B022801D9032065E795
:1057A000044828380068C0F340700028F1D038461B
:1057B0005CE700002844025810B50248FDF70EFDD2
:1057C00010BD00002000002470B505460E461446AA
:1057D000002210210E48FBF7A5FB00200D490870A0
:1057E00008464570002004E0325C0A4B811C5A5484
:1057F000401CA042F8DB6423A21C06490648FDF7C2
:1058000067FF012210210248FBF78CFB002070BDCE
:105810000000025830020024200000240268516970
:105820000268926942F0080203689A61026892690C
:1058300042F0100203689A610268126822F00102C5
:1058400003681A600268126940F26F339A43036872
:105850001A610268926822F4404203689A6090F8E4
:105860008120042A0ED001F020025AB1D0F8842001
:1058700042F08002C0F884200268926942F020025F
:1058800003689A6190F88120032A0ED001F040024B
:105890005AB1D0F8842042F00402C0F88420026893
:1058A000926942F0400203689A6101F400725AB1B1
:1058B000D0F8842042F00102C0F884200268926986
:1058C00042F4007203689A6101F480725AB1D0F810
:1058D000842042F00802C0F884200268926942F4F1
:1058E000807203689A610022A0F86220A0F86A2002
:1058F000704770B50546AC6B002062342081208073
:105900000120E077623C2046FDF766FC70BD10B5D3
:1059100001460124C86B04EB5013C868421CD01D1B
:10592000C20802FB03F010BD2DE9F04106460D460A
:1059300017461C46DDF818800BE0FBF7FFFAA0EBDA
:105940000800A04201D3601C00B914B90320BDE8CF
:10595000F081306840692840A84201D1012000E070
:105960000020B842E9D00020F1E7704710B5FBF7FE
:10597000EBFA10BD00B59DB04C210AA8FAF7E2FC85
:10598000202102A8FAF7DEFC0220FBF7E3FB00BFB0
:10599000002001904348006820F001004149086060
:1059A0000846006800F0010001903F48006840F49C
:1059B00040403D4908600846006800F440400190BE
:1059C00000BF00BF00BF3848006800F40050B0F5C9
:1059D000005FF8D100BF3548006840F0020033494D
:1059E00008600846006800F00200019000BF00BF98
:1059F00000BF002001902C48006840F440402A4934
:105A000008600846006800F440400190254800689E
:105A100040F00100234908600846006800F00100DA
:105A2000019000BF00BF00BF1F48006800F4005095
:105A3000B0F5005FF8D103200A904FF480300B904E
:105A400001200D9040200E9002201390022114910D
:105A50001591F021169102211791189119910821A1
:105A60001A9100211B911C910AA8FCF789FF08B12B
:105A7000FAF7E3FC3F2002900320039000200490FB
:105A800008200590402006900790000108904020D3
:105A90000990042102A8FCF783FC08B1FAF7CDFCB9
:105AA0001DB000BD2C04005818480258F444025898
:105AB0003448006840F47000324908603248006899
:105AC00000F00F00072806D22F48006820F00F00D2
:105AD000C01D2D4908602D48006840F001002B4989
