:020000040800F2
:1000000068070024B1020008E5660008B162000834
:10001000E1660008F50300082D7F000800000000DD
:100020000000000000000000000000005F6C0008FD
:10003000FF06000800000000E9660008616C000887
:10004000CB020008CB020008CB020008CB0200085C
:10005000CB020008CB020008CB020008CB0200084C
:10006000CB020008CB020008CB020008F90300080D
:10007000CB020008CB020008CB020008CB0200082C
:10008000CB020008CB020008CB020008CB0200081C
:10009000CB020008CB020008CB020008CB0200080C
:1000A000CB020008CB020008CB020008A16E0008BA
:1000B000B16E0008CB020008CB020008CB0200089A
:1000C000CB020008CB020008CB020008DD69000863
:1000D000CB0200081D7F0008CB020008CB020008FD
:1000E000CB020008CB02000800000000CB02000891
:1000F000CB020008CB020008CB020008CB020008AC
:10010000CB020008CB020008CB020008CB0200089B
:10011000CB020008CB020008CB020008CB0200088B
:10012000CB020008CB020008CB020008CB0200087B
:10013000CB020008CB020008CB020008CB0200086B
:1001400000000000000000000000000000000000AF
:10015000CB020008CB020008CB020008CB0200084B
:10016000CB020008CB020008CB020008CB0200083B
:10017000CB020008CB020008CB020008CB0200082B
:10018000CB020008CB020008CB020008CB0200081B
:10019000CB020008CB020008CB020008CB0200080B
:1001A000CB020008CB020008CB020008CB020008FB
:1001B000CB020008CB020008CB020008CB020008EB
:1001C000CB020008CB020008CB020008CB020008DB
:1001D000CB020008CB020008CB020008CB020008CB
:1001E000CB020008CB020008CB020008CB020008BB
:1001F000CB020008CB020008CB020008CB020008AB
:10020000CB020008CB020008CB020008CB0200089A
:10021000CB020008CB020008CB020008CB0200088A
:10022000CB020008CB020008CB020008000000004F
:10023000CB020008CB02000800000000CB0200083F
:10024000CB020008CB020008CB020008CB0200085A
:10025000CB020008CB020008CB020008CB0200084A
:10026000CB020008CB020008CB020008CB0200083A
:10027000CB020008CB020008CB02000800000000FF
:10028000CB020008CB020008CB02000800000000EF
:1002900000000000CB020008DFF810D000F07CF86E
:1002A000004800477D840008AFF300806807002401
:1002B0000648804706480047FEE7FEE7FEE7FEE700
:1002C000FEE7FEE7FEE7FEE7FEE7FEE7A56D0008B6
:1002D000990200082DE9F05F0546002092469B46F2
:1002E00088460646814640241BE02846414647464C
:1002F000224600F041F853465A46C01A914110D3A5
:1003000011461846224600F028F82D1A67EB01081E
:100310004F4622460120002100F01FF817EB00098C
:100320004E41201EA4F10104DFDC484631462A4636
:100330004346BDE8F09FD2B201E000F8012B491E10
:10034000FBD270470022F6E710B513460A46044672
:100350001946FFF7F0FF204610BD202A04DB203AA3
:1003600000FA02F1002070479140C2F1200320FA08
:1003700003F3194390407047202A04DB203A21FA06
:1003800002F00021704721FA02F3D040C2F12002AE
:100390009140084319467047064C074D06E0E06857
:1003A00040F0010394E8070098471034AC42F6D3BC
:1003B000FFF776FF348600085486000870B50446BF
:1003C0000D46164600221021094801F0F5FE1420C2
:1003D00008F016F832462946204606F06FFB142036
:1003E00008F00EF801221021014801F0E5FE70BD71
:1003F0000000025800BFFEE710B5024800F0BEFD45
:1004000010BD0000DC0100240146374A0868904214
:1004100049D0354A18320868904244D0324A3032C6
:10042000086890423FD0304A4832086890423AD03B
:100430002D4A60320868904235D02B4A78320868DD
:10044000904230D0284A9032086890422BD0264AF9
:10045000A8320868904226D0244A0868904222D0E8
:10046000224A1832086890421DD0204A303208686B
:10047000904218D01D4A48320868904213D01B4A57
:100480006032086890420ED0184A7832086890426C
:1004900009D0164A90320868904204D0134AA83214
:1004A0000868904201D1012000E00020B0B10A7834
:1004B000103A1823B2FBF3F000F007020C4B9A5CE1
:1004C000CA65032805D90A686FF30902121D8A65F7
:1004D00003E00A686FF309028A6503E0086820F008
:1004E000FF008865886D70471000024010040240CC
:1004F000F485000810B502682B4C0368A34222D093
:10050000294C14340368A3421DD0274C28340368B7
:10051000A34218D0244C3C340368A34213D0224C8D
:1005200050340368A3420ED01F4C64340368A342C6
:1005300009D01D4C78340368A34204D01A4C8C3483
:100540000368A34201D1012300E000238BB10378AB
:10055000083B1424B3FBF4F1144B03EB8103036653
:10056000124B8033436601F01F040123A3408366CE
:1005700018E00378103B1824B3FBF4F10C4B9A42BB
:1005800004D80B4BA83B9A4200D30831094B03EB2C
:1005900081030366074B8033436601F01F04012388
:1005A000A340836610BD000008540258005802584A
:1005B000B8040240000802400179A9B3082940D8D4
:1005C000204B02689A4222D01E4B143302689A4292
:1005D0001DD01C4B283302689A4218D0194B3C336B
:1005E00002689A4213D0174B503302689A420ED0D9
:1005F000144B643302689A4209D0124B7833026874
:100600009A4204D00F4B8C3302689A4201D10122E6
:1006100000E000224AB14A1E0B4B03EB8202C26685
:10062000094A4032026708E00BE04A1E074B03EB21
:100630008202C266054A403202674A1E0123934085
:100640004367704708540258005902580009024095
:10065000014600208A69D2B98A6A32B1012A0DD0D6
:10066000022A03D0032A10D10EE000BFCA6A02F0AA
:100670008072B2F1807F00D1012007E0CA6AB2F136
:10068000C07F00D1012001E000E000BF36E08A69B0
:10069000B2F5005F1BD18A6A32B1012A07D0022A63
:1006A00003D0032A11D10AE000BF01200EE0CA6A7C
:1006B00002F08072B2F1807F00D1012006E0CA6AA8
:1006C000B2F1C07F00D1012000E000BF16E08A6ACD
:1006D00032B1012A05D0022A04D0032A0CD103E04A
:1006E00000BF00BF012008E0CA6A02F08072B2F1C8
:1006F000807F00D1012000E000BF00BF704770473D
:1007000072B600BFFEE700002DE9F041044601F09B
:100710005FFD804614B90120BDE8F08194F83500F2
:10072000022808D08020606500BF002084F83400D3
:1007300000BF0120F0E7FE492068884249D0FC490B
:1007400018312068884244D0F94930312068884205
:100750003FD0F7494831206888423AD0F4496031A7
:100760002068884235D0F24978312068884230D0FC
:10077000EF499031206888422BD0ED49A83120689C
:10078000884226D0EB492068884222D0E9491831B6
:10079000206888421DD0E74930312068884218D04F
:1007A000E44948312068884213D0E249603120682A
:1007B00088420ED0DF4978312068884209D0DD496F
:1007C00090312068884204D0DA49A83120688842F4
:1007D00001D1012000E0002068B12068006820F00D
:1007E0001E00216808602068406920F080002168B0
:1007F0004861256806E02068006820F00E00216846
:1008000008602568CA492068884270D0C8491831F4
:10081000206888426BD0C64930312068884266D053
:10082000C34948312068884261D0C149603120689D
:1008300088425CD0BE4978312068884257D0BC4994
:1008400090312068884252D0B949A8312068884246
:100850004DD0B8492068884249D0B649183120683F
:10086000884244D0B3493031206888423FD0B149F2
:100870004831206888423AD0AE49603120688842C9
:1008800035D0AC4978312068884230D0A9499031C0
:10089000206888422BD0A749A8312068884226D0FA
:1008A000A5492068884222D0A34914312068884293
:1008B0001DD0A14928312068884218D09E493C317A
:1008C0002068884213D09C495031206888420ED05D
:1008D000994964312068884209D097497831206865
:1008E000884204D094498C312068884201D101208B
:1008F00000E0002028B1206E006820F48070216E96
:1009000008608B492068884249D08949183120689D
:10091000884244D086493031206888423FD084499B
:100920004831206888423AD0814960312068884245
:1009300035D07F4978312068884230D07C49903169
:10094000206888422BD07A49A8312068884226D076
:1009500078492068884222D0764918312068884238
:100960001DD0744930312068884218D0714948310F
:100970002068884213D06F496031206888420ED0C9
:100980006C4978312068884209D06A4990312068E2
:10099000884204D06749A8312068884206D120687F
:1009A000006820F001002168086005E02068006808
:1009B00020F001002168086011E001F009FCA0EBC3
:1009C000080005280BD920206065032084F8350035
:1009D00000BF002084F8340000BF01209CE6286896
:1009E00000F001000028E8D151492068884249D030
:1009F0004F4918312068884244D04D493031206831
:100A000088423FD04A494831206888423AD0484914
:100A100060312068884235D0454978312068884265
:100A200030D043499031206888422BD04049A831CA
:100A30002068884226D03F492068884222D03D491C
:100A40001831206888421DD03A49303120688842E8
:100A500018D0384948312068884213D03549603170
:100A6000206888420ED0334978312068884209D006
:100A7000304990312068884204D02E49A83120683E
:100A8000884201D1012000E0002040B1A66D94F819
:100A90005C0000F01F013F208840B06007E0A76DB8
:100AA00094F85C0000F01F01012088407860204924
:100AB0002068884276D01E4918312068884271D05B
:100AC0001B493031206888426CD019494831206870
:100AD000884267D0164960312068884262D0144944
:100AE0007831206888425DD0114990312068884271
:100AF00058D00F49A8312068884253D00D4920684A
:100B000088424FD00B491831206888424AD00949A1
:100B100030312068884245D00649483120688842F3
:100B200040D004496031206888423BD0014905E04B
:100B30001000024010040240085402587831206826
:100B400088422FD02549206888422BD0234918316C
:100B50002068884226D022492068884222D0204935
:100B60001431206888421DD01D49283120688842F0
:100B700018D01B493C312068884213D018495031A5
:100B8000206888420ED0164964312068884209D016
:100B9000134978312068884204D011498C3120688B
:100BA000884201D1012000E0002068B1D4E9191089
:100BB0004860E06E40B1E06E006820F48070E16E45
:100BC0000860D4E91C104860012084F8350000BF9B
:100BD000002084F8340000BF00BF9DE5A00402405F
:100BE0000854025870B504460CB9012070BD94F841
:100BF0003500022803D0802060650120F6E7DC493B
:100C00002068884249D0DA4918312068884244D0A7
:100C1000D7493031206888423FD0D54948312068D3
:100C200088423AD0D24960312068884235D0D049D4
:100C300078312068884230D0CD4990312068884290
:100C40002BD0CB49A8312068884226D0C9492068DA
:100C5000884222D0C7491831206888421DD0C54932
:100C600030312068884218D0C24948312068884213
:100C700013D0C0496031206888420ED0BD49783118
:100C80002068884209D0BB4990312068884204D04E
:100C9000B849A8312068884201D1012000E0002035
:100CA000F0B3042084F83500B149206888424BD065
:100CB000AF4918312068884246D0AD4930312068AC
:100CC000884241D0AA494831206888423CD0A8498E
:100CD00060312068884237D0A54978312068884241
:100CE00032D0A3499031206888422DD0A049A83144
:100CF0002068884228D09F492068884224D09D4996
:100D00001831206888421FD09A49303120688842C3
:100D10001AD0984948312068884215D0954900E09A
:100D200020E06031206888420ED0924978312068F6
:100D3000884209D08F4990312068884204D08D497B
:100D4000A8312068884206D12068006820F00100A0
:100D50002168086009E12068006820F0010021682E
:100D6000086002E12068006820F00E002168086039
:100D70007F492068884249D07D49183120688842DF
:100D800044D07B493031206888423FD0784948318F
:100D9000206888423AD0764960312068884235D050
:100DA000734978312068884230D071499031206889
:100DB00088422BD06E49A8312068884226D06D49E0
:100DC0002068884222D06B491831206888421DD0A3
:100DD000684930312068884218D066494831206817
:100DE000884213D063496031206888420ED061493F
:100DF00078312068884209D05E4990312068884265
:100E000004D05C49A8312068884206D12068006877
:100E100020F001002168086005E02068006820F0EB
:100E200001002168086052492068884270D050490A
:100E30001831206888426BD04D4930312068884293
:100E400066D04B4948312068884261D048496031BA
:100E5000206888425CD0464978312068884257D063
:100E6000434990312068884252D04149A8312068D6
:100E700088424DD03F492068884249D03D491831C9
:100E80002068884244D03B493031206888423FD0B6
:100E900038494831206888423AD036496031206864
:100EA000884235D0334978312068884230D0314982
:100EB0009031206888422BD02E49A8312068884282
:100EC00026D02D492068884222D02B491431206831
:100ED00088421DD0284928312068884218D02649E8
:100EE0003C312068884213D0234950312068884221
:100EF0000ED0214964312068884209D01E497831DA
:100F00002068884204D01C498C312068884201D175
:100F1000012000E00020D8B1206E006820F480702D
:100F2000216E0860A56D94F85C0000F01F0101209F
:100F300088406860D4E919104860E06E40B1E06E06
:100F4000006820F48070E16E0860D4E91C104860ED
:100F5000012084F8350000BF002084F8340000BF71
:100F6000206D10B12046216D884700203EE600002C
:100F70001000024010040240085402582DE9F84FB6
:100F8000044600200090FE4800684FF41651B0FB64
:100F9000F1FAA66DD4F858803768D8F80090F9496E
:100FA0002068884249D0F74918312068884244D0E7
:100FB000F4493031206888423FD0F24948312068F6
:100FC00088423AD0EF4960312068884235D0ED49F7
:100FD00078312068884230D0EA49903120688842D0
:100FE0002BD0E849A8312068884226D0E6492068FD
:100FF000884222D0E4491831206888421DD0E24955
:1010000030312068884218D0DF4948312068884252
:1010100013D0DD496031206888420ED0DA4978313A
:101020002068884209D0D84990312068884204D08D
:10103000D549A8312068884201D1012000E0002074
:1010400000287DD094F85C0000F01F010820884043
:101050003840002868D0CB492068884249D0C94927
:1010600018312068884244D0C6493031206888420F
:101070003FD0C4494831206888423AD0C1496031E4
:101080002068884235D0BF4978312068884230D006
:10109000BC499031206888422BD0BA49A8312068D9
:1010A000884226D0B8492068884222D0B6491831F3
:1010B000206888421DD0B44930312068884218D059
:1010C000B14948312068884213D0AF496031206867
:1010D00088420ED0AC4978312068884209D0AA49AC
:1010E00090312068884204D0A749A83120688842FE
:1010F00004D12068006800F0040003E02068006864
:1011000000F0080080B12068006820F00400216829
:10111000086094F85C0000F01F0108208840B0606F
:10112000606D40F00100606594F85C0000F01F0104
:10113000012088403840E8B392492068884200E0A6
:10114000B7E24BD08F4918312068884246D08D498C
:1011500030312068884241D08A494831206888422D
:101160003CD0884960312068884237D08549783141
:101170002068884232D083499031206888422DD03F
:101180008049A8312068884228D07F492068884259
:1011900024D07D491831206888421FD07A493031E7
:1011A000206888421AD0784948312068884215D092
:1011B000754900E026E06031206888420ED072490F
:1011C00078312068884209D06F4990312068884280
:1011D00004D06D49A8312068884204D12068406954
:1011E00000F0800002E020680068002050B194F810
:1011F0005C0000F01F0101208840B060606D40F08D
:101200000200606594F85C0000F01F010420884033
:101210003840E8B35B49206888424BD059491831BF
:101220002068884246D0574930312068884241D0F2
:1012300054494831206888423CD052496031206886
:10124000884237D04F4978312068884232D04D49A2
:101250009031206888422DD04A49A83120688842C0
:1012600028D049492068884224D04749183120684D
:1012700088421FD044493031206888421AD0424900
:1012800048312068884215D03F496031206800E02D
:1012900024E088420ED03C4978312068884209D049
:1012A000394990312068884204D03749A8312068F4
:1012B000884204D12068006800F0020002E0206843
:1012C0000068002050B194F85C0000F01F01042079
:1012D0008840B060606D40F00400606594F85C0088
:1012E00000F01F01102088403840E8B325492068ED
:1012F000884251D023491831206888424CD0214976
:1013000030312068884247D01E49483120688842E1
:1013100042D01C496031206888423DD0194978315B
:101320002068884238D0174990312068884233D0ED
:101330001449A831206888422ED013492068884279
:101340002AD0114918312068884225D00E49303101
:101350002068884220D00C494831206888421BD040
:1013600009496031206800E04DE0884214D0064908
:101370007831206888420FD003499031206805E019
:101380001C0000241000024010040240884203D0D8
:10139000FE492068884204D12068006800F00800F7
:1013A00003E02068006800F0040060B394F85C007B
:1013B00000F01F0110208840B0602068006800F431
:1013C000802080B12068006800F4002028B9206CDB
:1013D000C8B12046216C884715E0A06C98B1204622
:1013E000A16C88470FE02068006800F4807028B97D
:1013F0002068006820F0080021680860206C10B1A7
:101400002046216C884794F85C0000F01F012020E2
:101410008840384000287DD0DD492068884249D086
:10142000DB4918312068884244D0D94930312068DE
:1014300088423FD0D6494831206888423AD0D449C2
:1014400060312068884235D0D1497831206888429F
:1014500030D0CF499031206888422BD0CC49A83178
:101460002068884226D0C949A8392068884221D0FE
:10147000C6499039206888421CD0C4497839206810
:10148000884217D0C14960392068884212D0BF49CC
:101490004839206888420DD0BC49303920688842DC
:1014A00008D0BA4918392068884203D0B749206863
:1014B000884204D12068006800F0100003E0206832
:1014C000006800F0020028B394F85C0000F01F01EF
:1014D00020208840B06094F8350004282DD1206881
:1014E000006820F01600216808602068406920F03C
:1014F000800021684861206C08B9A06C28B1206880
:10150000006820F008002168086094F85C0000F092
:101510001F0100E03FE03F208840B060012084F8D8
:10152000350000BF002084F8340000BF206D10B1EA
:101530002046216D8847BDE8F88F2068006800F4D8
:10154000802080B12068006800F4002028B9606C19
:1015500008B32046616C88471DE0E06BD8B1204697
:10156000E16B884717E02068006800F4807068B974
:101570002068006820F0100021680860012084F8CD
:10158000350000BF002084F8340000BFE06B10B1CC
:101590002046E16B8847606D00287AD0606D00F0CE
:1015A0000100E8B3042084F83500794920688842B6
:1015B0004BD0774918312068884246D07449303181
:1015C0002068884241D072494831206888423CD026
:1015D0006F4960312068884237D06D497831206882
:1015E000884232D06A499031206888422DD06849BB
:1015F000A8312068884228D06449A83920688842E8
:1016000023D062499039206888421ED05F497839DA
:101610002068884219D05D4960392068884200E01E
:1016200040E012D059494839206888420DD05749C6
:1016300030392068884208D05449183920688842D7
:1016400003D052492068884206D12068006820F003
:1016500001002168086005E02068006820F00100B2
:101660002168086000BF0098401C0090504500D9D8
:1016700005E02068006800F001000028F3D100BFF9
:101680002068006800F0010020B1032084F83500D4
:1016900003E00DE0012084F8350000BF002084F84D
:1016A000340000BFE06C002802D02046E16C88477F
:1016B000D9E138492068884222D03649143120685F
:1016C00088421DD0334928312068884218D03149DA
:1016D0003C312068884213D02E495031206888421E
:1016E0000ED02C4964312068884209D029497831CC
:1016F0002068884204D027498C312068884201D173
:10170000012000E000200028D2D02068056894F86D
:101710005C0000F01F010420884000EA0900D8B3F3
:1017200005F00400C0B394F85C0000F01F01042031
:101730008840C8F8040005F4004080B105F480300A
:1017400030B9A06C0028B3D02046A16C88478AE14C
:10175000206C0028ACD02046216C884783E105F03E
:101760002000E8BB0A492068884253D00849183154
:10177000206888424ED0064930312068884249D0DE
:10178000034948312068884244D006E0B80402404A
:1017900010000240085402584FE0B44960312068FC
:1017A000884237D0B14978312068884232D0AF4979
:1017B0009031206888422DD0AC49A83120688842F9
:1017C00028D0AB492068884224D0A9491831206824
:1017D00088421FD0A6493031206888421AD000E0E4
:1017E00025E0A34948312068884213D0A0496031E0
:1017F000206888420ED09E4978312068884209D0FE
:101800009B4990312068884204D09949A8312068CA
:10181000884206D12068006820F00800216808602E
:1018200005E02068006820F0040021680860206C52
:1018300010B32046216C884715E194F85C0000F055
:101840001F010220884000EA0900E8B305F0020009
:10185000D0B394F85C0000F01F0102208840C8F863
:10186000040005F4004070B105F4803028B9606CC4
:1018700010B12046616C8847F5E0E06BF0B320467C
:10188000E16B8847EFE005F02000C0BB7749206896
:1018900088424ED0754918312068884249D0734932
:1018A00030312068884244D07049483120688842ED
:1018B0003FD06E496031206888423AD06B49783118
:1018C0002068884235D000E04EE0684990312068B9
:1018D00088422ED06549A8312068884229D06449C1
:1018E0002068884225D0624918312068884220D07B
:1018F0005F493031206888421BD001E06EE02DE066
:101900005B4948312068884213D0594960312068CA
:1019100088420ED0564978312068884209D054490F
:1019200090312068884204D05149A831206888420B
:1019300006D12068006820F014002168086005E0E6
:101940002068006820F00A0021680860012084F8FF
:10195000350000BF002084F8340000BFE06BE8B31E
:101960002046E16B88477EE094F85C0000F01F01A0
:101970000820884000EA090080B305F0080068B339
:101980003A49206888424BD038491831206888424B
:1019900046D0364930312068884241D033494831F9
:1019A000206888423CD0314960312068884237D075
:1019B0002E4978312068884232D02C4990312068F5
:1019C00088422DD02949A8312068884228D028494A
:1019D0002068884224D02649183100E043E020687E
:1019E00088421DD0224930312068884218D02049D1
:1019F00048312068884213D01D49603120688842F0
:101A00000ED01B4978312068884209D0184990319E
:101A10002068884204D01649A8312068884206D13F
:101A20002068006820F01C002168086005E020683C
:101A3000006820F00E002168086094F85C0000F057
:101A40001F0101208840C8F804000120606584F867
:101A5000350000BF002084F8340000BFE06C10B1F6
:101A60002046E16C884700BF65E500001000024099
:101A7000100402402DE9F041044600F0A9FB804625
:101A800014B90120BDE8F081FE492068884249D0A0
:101A9000FC4918312068884244D0FA493031206826
:101AA00088423FD0F7494831206888423AD0F5490A
:101AB00060312068884235D0F24978312068884208
:101AC00030D0F0499031206888422BD0ED49A831C0
:101AD0002068884226D0EC492068884222D0EA4912
:101AE0001831206888421DD0E7493031206888428B
:101AF00018D0E54948312068884213D0E249603166
:101B0000206888420ED0E04978312068884209D0A8
:101B1000DD4990312068884204D0DB49A831206833
:101B2000884201D1012000E00020002873D0606AC3
:101B300000B100BF022084F8350000BF002084F807
:101B4000340000BFCF492068884249D0CD491831C0
:101B50002068884244D0CB493031206888423FD049
:101B6000C8494831206888423AD0C6496031206867
:101B7000884235D0C34978312068884230D0C14985
:101B80009031206888422BD0BE49A8312068884215
:101B900026D0BD492068884222D0BB491831206830
:101BA00088421DD0B84930312068884218D0B649E3
:101BB00048312068884213D0B34960312068884298
:101BC0000ED0B14978312068884209D0AE499031B1
:101BD0002068884204D0AC49A8312068884206D1E8
:101BE0002068006820F001002168086005E0206896
:101BF000006820F00100216808600DE000F0E8FABC
:101C0000A0EB0800052807D920206065032084F890
:101C10003500012036E76AE02068006800F0010026
:101C20000028EBD12068056898480540D4E90201F6
:101C300008432169084361690843A1690843E169D0
:101C40000843216A08430543606A042803D1D4E9A4
:101C50000B01084305438E4800686FF30F00B0F195
:101C6000005F1DD36068292802D360682E2811D92F
:101C700060683F2802D3606842280BD96068472813
:101C800002D36068482805D960684F2804D360688B
:101C9000522801D8012000E0002008B145F4801549
:101CA000206805602068456925F00705606A0543DE
:101CB000606A04280DD1A06A0543E06A48B1204655
:101CC000FEF7C6FC28B140206065012084F835008D
:101CD000D8E6206845612046FEF796FB064694F854
:101CE0005C0000F01F013F208840B0609EE0694921
:101CF0002068884222D067491431206888421DD06C
:101D0000644928312068884218D062493C312068F3
:101D1000884213D05F495031206888420ED05D4917
:101D200064312068884209D05A4978312068884255
:101D300004D058498C312068884201D1012000E04C
:101D40000020E0B353492068884222D05149143121
:101D5000206888421DD04F4928312068884218D019
:101D60004C493C312068884213D04A4950312068A0
:101D700088420ED0474964312068884209D04549DD
:101D800078312068884204D042498C3120688842EA
:101D900001D1012000E0002000B100BF022084F842
:101DA000350000BF002084F8340000BF20680568BB
:101DB00039480540A068402802D1102106E02EE0F5
:101DC000A068802801D1C10100E00021E06841EA5B
:101DD000D001206941EAD001606941EAD001A069DF
:101DE00041EAD001E06941EAD001206A41EA1010DD
:101DF00005432068056027492068401A1421B0FB7C
:101E0000F1F08000E0652046FEF7FEFA074694F800
:101E10005C0000F01F0101208840786006E040204F
:101E20006065032084F8350001202BE61549206801
:101E300088427FD013491831206888427AD01149EE
:101E400030312068884275D00E4948312068884278
:101E500070D00C496031206888426BD009497831D4
:101E60002068884266D0074990312068884261D056
:101E70000449A831206888425CD003492068884220
:101E800058D00BE010000240100402403F8010FECA
:101E90000010005C085402580F00FEFF3B49183147
:101EA0002068884246D0394930312068884241D084
:101EB00036494831206888423CD034496031206836
:101EC000884237D0314978312068884232D02F4952
:101ED0009031206888422DD02C49A8312068884252
:101EE00028D02B492068884224D029491431206801
:101EF00088421FD026492831206888421AD02449B8
:101F00003C312068884215D02149503120688842F0
:101F100010D01F496431206888420BD01C497831A9
:101F20002068884206D01A498C312068884200E037
:101F300000E001D1012000E0002000B32046FEF7C0
:101F4000D9FAA068802801D1002060602079216E34
:101F50000860D4E919104860606860B160680828BA
:101F600009D82046FEF728FB0020E16E0860D4E97E
:101F70001C10486003E00020E066206760670020D6
:101F80006065012084F8350000207BE510040240E4
:101F90000854025870B5044600F01AF90646254662
:101FA000681C10B104480078054400BF00F010F927
:101FB000801BA842FAD370BD18000024F8B5024671
:101FC0000B4600216F4DD7E001278F401E6806EABF
:101FD0000704002C72D01E7906F00306012E04D0EF
:101FE0001E7906F00306022E13D190684F000326D7
:101FF000BE40B0434F00DE68BE4030439060506842
:1020000001268E40B0431E79C6F300168E40304341
:1020100050601E7906F00306032E09D0D0684F00E9
:102020000326BE40B0434F009E68BE403043D060A0
:102030001E7906F00306022E13D1CF0802F1200606
:1020400056F827004E07F70E0F26BE40B0434F0745
:10205000FF0E1E69BE403043CF0802F1200646F84D
:10206000270010684F000326BE40B0431E7906F0DB
:1020700003064F00BE40304310605E6806F44036F1
:10208000002E78D000BF404E366846F002063E4F24
:102090003E603E46366806F00206009600BF00BF6E
:1020A0003A4E8F0856F827008E07370F0F26BE408E
:1020B000B043374EB24202D100262EE05BE0354EEF
:1020C000B24201D1012628E0334EB24201D10226AC
:1020D00023E0324EB24201D103261EE0304EB2421E
:1020E00001D1042619E02F4EB24201D1052614E099
:1020F0002D4EB24201D106260FE02C4EB24201D144
:1021000007260AE02A4EB24201D1082605E0294EF0
:10211000B24201D1092600E00A268F073F0FBE40D8
:1021200030431A4E8F0846F827004FF0B04630680B
:10213000A0435E6806F4801606B120434FF0B04617
:1021400030607068A0435E6806F4001606B1204354
:102150004FF0B04670606868A0435E6806F40036D1
:1021600006B1204368602868A0435E6806F48036A4
:1021700006B120432860491C1E68CE40002E7FF423
:1021800023AFF8BD80000058F444025808040058FA
:10219000000002580004025800080258000C0258BF
:1021A000001002580014025800180258001C02586F
:1021B00000200258002402580AB1816101E00B049A
:1021C0008361704701480068000C70470010005C94
:1021D00001480068704700001000002403480068B0
:1021E0000349097808440149086070471000002439
:1021F0001800002410B5032000F0C0F801F0D2FB55
:1022000010490968C1F303210F4A515C01F01F0115
:1022100020FA01F40B48006800F00F001146085C3A
:1022200000F01F0024FA00F0084908600848046024
:10223000032000F00FF808B1012010BD00F036F8BF
:102240000020FAE7184402582486000820000024E1
:102250001C00002470B504461148007808B901201C
:1022600070BD0F4800784FF47A71B1FBF0F00D4962
:102270000968B1FBF0F5284602F0DEFD08B1012047
:10228000EEE7102C07D200222146501E00F038F84D
:102290000548046001E00120E2E70020E0E70000DB
:1022A000180000241C0000241400002408B500BFFE
:1022B0000848006840F002000649086008460068C7
:1022C00000F00200009000BF00BF052000F056F8AB
:1022D00008BD0000F44402580146084600280DDB02
:1022E00000BF00BF00F01F0301229A4043099B007A
:1022F00003F1E023C3F8002100BF00BF00BF704717
:102300002DE9F05F80460D46164605F021FE074692
:1023100039462A46334601F00700C0F1070ABAF1F0
:10232000040F02D94FF0040A01E0C0F1070AD146B8
:1023300000F1040ABAF1070F02D24FF0000A01E0DF
:10234000A0F1030AD4464FF0010A0AFA09FAAAF1E9
:10235000010A0AEA020A0AFA0CFA4FF0010B0BFA18
:102360000CFBABF1010B0BEA030B4AEA0B04214611
:10237000404605F0F5FDBDE8F09F000000BF00F00D
:102380000702064B19684FF6FF031940044B0B4335
:1023900043EA0221014B196000BF70470CED00E0D9
:1023A0000000FA0570B5044615480068C0F38000C7
:1023B00048B91348006800F00700A04201D001208E
:1023C00070BD0020FCE70E48006820F007002043A5
:1023D0000B490860FFF7FCFE054607E0FFF7F8FE33
:1023E000401BB0F57A7F01D90120E9E7044808389D
:1023F0000068C0F340300028F0D00020E0E7000083
:102400000C48025810B501F083FA05490968C1F378
:102410000211044A515C01F01F01C84010BD0000C8
:10242000204402582486000870B50146844D2D686A
:1024300005F00303824D2D68C5F30530804D2D1D39
:102440002D68C5F300147E4D14352D68C5F3CC05F9
:1024500015FB04F501EE105AB8EE411AF0EE410AF0
:1024600000286FD023B1012B4ED0022B6BD16BE033
:10247000734D283D2D68C5F340153DB3704D283D83
:102480002D68C5F3C1066F4D25FA06F201EE102A3C
:10249000F8EE411A01EE100AB8EE411A81EE812AD7
:1024A0009FED691AC0EE811A654D10352D68C5F390
:1024B000080501EE105AB8EE411A31EE811AF7EE16
:1024C000001A31EE211A22EE010A1CE001EE100A78
:1024D000B8EE411ADFED5D1A81EE812A9FED5A1A9E
:1024E000C0EE811A564D10352D68C5F3080501EE72
:1024F000105AB8EE411A31EE811AF7EE001A31EE99
:10250000211A22EE010A5BE001EE100AB8EE411A30
:10251000DFED4F1A81EE812A9FED4B1AC0EE811A32
:10252000474D10352D68C5F3080501EE105AB8EE79
:10253000411A31EE811AF7EE001A31EE211A22EE1D
:10254000010A3DE077E01DE001EE100AB8EE411A05
:102550009FED402AC2EE011A9FED3B1A80EE812AC0
:10256000374D10352D68C5F3080501EE105AB8EE49
:10257000411A32EE011AB7EE002A31EE021A21EEAC
:10258000810A1DE001EE100AB8EE411ADFED301AA3
:1025900081EE812A9FED2C1AC0EE811A284D10354C
:1025A0002D68C5F3080501EE105AB8EE411A31EE58
:1025B000811AF7EE001A31EE211A22EE010A00BF4D
:1025C00000BF1F4D10352D68C5F3462501EE105A8A
:1025D000B8EE411AF7EE001A31EE211AC0EE011AD8
:1025E000BCEEE11A81ED001A154D10352D68C5F3CA
:1025F000064501EE105AB8EE411AF7EE001A31EE18
:10260000211AC0EE011ABCEEE11A81ED011A0C4D3F
:1026100010352D68C5F3066501EE105AB8EE411A63
:10262000F7EE001A31EE211AC0EE011ABCEEE11AE3
:1026300081ED021A03E000250D604D608D6070BDD4
:10264000284402580090D003000000460024744C37
:102650000024744A0024F44A70B50146844D2D6864
:1026600005F00303824D2D68C5F30550804D2D1DE7
:102670002D68C5F300247E4D1C352D68C5F3CC05AF
:1026800015FB04F501EE105AB8EE411AF0EE410ABE
:1026900000286FD023B1012B4ED0022B6BD16BE001
:1026A000734D283D2D68C5F340153DB3704D283D51
:1026B0002D68C5F3C1066F4D25FA06F201EE102A0A
:1026C000F8EE411A01EE100AB8EE411A81EE812AA5
:1026D0009FED691AC0EE811A654D18352D68C5F356
:1026E000080501EE105AB8EE411A31EE811AF7EEE4
:1026F000001A31EE211A22EE010A1CE001EE100A46
:10270000B8EE411ADFED5D1A81EE812A9FED5A1A6B
:10271000C0EE811A564D18352D68C5F3080501EE37
:10272000105AB8EE411A31EE811AF7EE001A31EE66
:10273000211A22EE010A5BE001EE100AB8EE411AFE
:10274000DFED4F1A81EE812A9FED4B1AC0EE811A00
:10275000474D18352D68C5F3080501EE105AB8EE3F
:10276000411A31EE811AF7EE001A31EE211A22EEEB
:10277000010A3DE077E01DE001EE100AB8EE411AD3
:102780009FED402AC2EE011A9FED3B1A80EE812A8E
:10279000374D18352D68C5F3080501EE105AB8EE0F
:1027A000411A32EE011AB7EE002A31EE021A21EE7A
:1027B000810A1DE001EE100AB8EE411ADFED301A71
:1027C00081EE812A9FED2C1AC0EE811A284D183512
:1027D0002D68C5F3080501EE105AB8EE411A31EE26
:1027E000811AF7EE001A31EE211A22EE010A00BF1B
:1027F00000BF1F4D18352D68C5F3462501EE105A50
:10280000B8EE411AF7EE001A31EE211AC0EE011AA5
:10281000BCEEE11A81ED001A154D18352D68C5F38F
:10282000064501EE105AB8EE411AF7EE001A31EEE5
:10283000211AC0EE011ABCEEE11A81ED011A0C4D0D
:1028400018352D68C5F3066501EE105AB8EE411A29
:10285000F7EE001A31EE211AC0EE011ABCEEE11AB1
:1028600081ED021A03E000250D604D608D6070BDA2
:10287000284402580090D003000000460024744C05
:102880000024744A0024F44A2DE9F041044600254E
:10289000A8464FF00062D4E9001011400020134612
:1028A00059404040014331D1A06E48B1B0F5801F7E
:1028B0000DD0B0F5001F11D0B0F5401F16D114E0B7
:1028C000F948006840F40030F749086010E0022140
:1028D00004F1080003F01EFF054609E0022104F19F
:1028E000280003F0C9FF054602E001E0012500BF12
:1028F00000BF55B9EC482430006820F44010A16EA8
:102900000843E9492431086000E0A8464FF4807389
:10291000D4E90010194000205940404001432ED115
:10292000A06D05281BD2DFE800F0030A111819007A
:10293000DD48006840F40030DB49086011E0002108
:1029400004F1080003F0E6FE05460AE0002104F168
:10295000280003F091FF054603E002E001E00125B5
:1029600000BF00BF55B9D0482430006820F00700F0
:10297000A16D0843CC492431086000E0A8464FF41B
:102980000073D4E900101940002059404040014331
:1029900034D1E06D802818D003DC40B140281DD12F
:1029A0000CE0C02818D0B0F5807F17D115E0BE48E4
:1029B000006840F40030BC49086011E0002104F1D7
:1029C000080003F0A7FE05460AE0002104F12800F4
:1029D00003F052FF054603E002E001E0012500BFDD
:1029E00000BF55B9B0482430006820F4E070E16DB4
:1029F0000843AD492431086000E0A8464FF48063E5
:102A0000D4E900101940002059404040014339D119
:102A1000D4F8A800B0F5800F1AD004DC50B1B0F59E
:102A2000001F1ED10DE0B0F5C00F18D0B0F5000F9B
:102A300017D115E09C48006840F400309A490860BE
:102A400011E0002104F1080003F064FE05460AE0ED
:102A5000002104F1280003F00FFF054603E002E027
:102A600001E0012500BF00BF5DB98F482C30006830
:102A700020F46000D4F8A81008438B492C3108607A
:102A800000E0A8464FF40062D4E900101140002095
:102A9000134659404040014339D1D4F8AC00B0F15D
:102AA000007F1AD004DC50B1B0F1807F1ED10DE060
:102AB000B0F1407F18D0B0F1806F17D115E07A489F
:102AC000006840F400307849086011E0002104F10A
:102AD000080003F01FFE05460AE0002104F128006B
:102AE00003F0CAFE054603E002E001E0012500BF55
:102AF00000BF5DB96C482C30006820F0E060D4F86D
:102B0000AC10084368492C31086000E0A8464FF03B
:102B10000073D4E90001184000215840494008439F
:102B200028D1E06CA8B1102804D0202809D0302882
:102B300010D10DE05C48006840F400305A4908604C
:102B40000AE0022104F1080003F0E4FD054603E079
:102B500002E001E0012500BF00BF55B95248203016
:102B6000006820F03000E16C08434F4920310860D4
:102B700000E0A8464FF48053D4E90010194000202B
:102B800059404040014337D1206EB0F5005F1AD064
:102B900004DC50B1B0F5805F1ED10DE0B0F5405FB0
:102BA00018D0B0F5804F17D115E03F48006840F4C9
:102BB00000303D49086011E0002104F1080003F0F5
:102BC000A9FD05460AE0002104F1280003F054FEA7
:102BD000054603E002E001E0012500BF00BF55B952
:102BE00031482430006820F4E040216E08432E492B
:102BF0002431086000E0A8464FF40053D4E90010E7
:102C00001940002059404040014335D1606EB0F575
:102C1000403F1ED007DC68B1B0F5803F0BD0B0F567
:102C2000003F19D10EE0B0F5802F13D0B0F5A02FE2
:102C300012D110E012E0012104F1080003F06AFD56
:102C400005460BE0012104F1280003F015FE0546BE
:102C500004E003E002E001E0012500BF00BF55B938
:102C600011482430006820F4E020616E08430E49CA
:102C70002431086000E0A8464FF48043D4E9000105
:102C80001840002158404940084337D1D4F8B000DB
:102C9000B0F1405F20D009DC78B1B0F1805F0DD099
:102CA000B0F1005F1BD110E02C440258B0F1804F0E
:102CB00013D0B0F1A04F12D110E012E0012104F1C5
:102CC000080003F027FD05460BE0012104F1280070
:102CD00003F0D2FD054604E003E002E001E0012537
:102CE00000BF00BF4DB9FE48006820F0E040D4F8B6
:102CF000B0100843FA49086000E0A8464FF40042CB
:102D0000D4E90010114000201346594040400143CF
:102D100029D1206FB0B1B0F1805F03D0B0F1005F76
:102D200011D108E0EE482C38006840F40030EC493E
:102D30002C39086009E0012104F1080003F0EAFCE5
:102D4000054602E001E0012500BF00BF55B9E44897
:102D50000838006820F04050216F0843E0490839E6
:102D6000086000E0A8464FF08072D4E900101140DE
:102D7000002013465940404001432AD1A06CB8B10D
:102D8000012804D002280BD0032812D10FE0D44828
:102D90002C38006840F40030D1492C3908600AE032
:102DA000022104F1080003F0B5FC054603E002E04F
:102DB00001E0012500BF00BF55B9C9480C380068C3
:102DC00020F00300A16C0843C5490C39086000E0FD
:102DD000A8464FF48002D4E90001104000211346B8
:102DE0005840494008437DD1BE48006840F4807097
:102DF000BC490860FFF7ECF9064606E0FFF7E8F982
:102E0000801B642801D9032505E0B648006800F45A
:102E100080700028F2D000BF85BBB1481830006830
:102E200000F44070B4F8B41001F44071884213D03B
:102E3000AB481830006820F44077A9481830006883
:102E400040F48030A649183108600846006820F434
:102E50008030086008460760D4F8B400B0F5807F81
:102E600015D1FFF7B5F9064609E0FFF7B1F9801B68
:102E700041F28831884202D9032507E038E09848BA
:102E800018300068C0F340000028EED000BF55BBEA
:102E900000BFB4F8B40000F44070B0F5407F0ED12C
:102EA0008F484838006820F47C518F4AD4F8B40029
:102EB000104041EA10108A494839086007E0884804
:102EC0004838006820F47C508549483908608448B7
:102ED00018300068B4F8B410C1F30B0108438049FE
:102EE000183101E005E001E0086002E0A84600E0DA
:102EF000A8460122D4E900011040002113465840A1
:102F00004940084330D1E06F18281AD005DC48B199
:102F1000082808D0102817D10CE0202812D0282823
:102F200012D110E012E0012104F1080003F0F2FBDD
:102F300005460BE0012104F1280003F09DFC054645
:102F400004E003E002E001E0012500BF00BF55B945
:102F50006348001F006820F03800E16F08436049B3
:102F6000091F086000E0A8460222D4E900011040D1
:102F70000021134658404940084329D1A06F062834
:102F800016D2DFE800F003040B12131412E0012143
:102F900004F1080003F0BEFB05460BE0012104F13B
:102FA000280003F069FC054604E003E002E001E0CC
:102FB000012500BF00BF55B94948001F006820F037
:102FC0000700A16F08434649091F086000E0A846B2
:102FD0000423D4E900101940002059404040014327
:102FE00029D1D4F89400062816D2DFE800F00304B3
:102FF0000B12131412E0012104F1080003F08AFB04
:1030000005460BE0012104F1280003F035FC0546DC
:1030100004E003E002E001E0012500BF00BF4DB97C
:103020002F48006820F00700D4F8941008432C497A
:10303000086000E0A8462023D4E9000118400021E0
:1030400058404940084337D1D4F89000B0F1405F70
:103050001ED007DC68B1B0F1805F0BD0B0F1005F2B
:1030600019D10EE0B0F1804F13D0B0F1A04F12D1C2
:1030700010E012E0002104F1080003F04BFB0546CC
:103080000BE0022104F1280003F0F6FB054604E002
:1030900003E002E001E0012500BF00BF5DB9104878
:1030A000001F006820F0E040D4F8901008430C495D
:1030B000091F086000E0A8464023D4E90010194029
:1030C00000205940404001433CD1D4F89C00B0F569
:1030D000406F25D00EDCA0B1B0F5806F12D005E0B6
:1030E0005844025800480258FFFCFF0FB0F5006F2B
:1030F00019D10EE0B0F5805F13D0B0F5A05F12D10A
:1031000010E012E0002104F1080003F003FB054683
:103110000BE0022104F1280003F0AEFB054604E0B9
:1031200003E002E001E0012500BF00BF4DB9FE4809
:10313000006820F4E050D4F89C100843FA49086075
:1031400000E0A8468023D4E900101940002059402F
:103150004040014335D1D4F8A000B0F5C04F1ED097
:1031600007DC68B1B0F5005F0BD0B0F5804F19D126
:103170000EE0B0F5004F13D0B0F5204F12D110E0A3
:1031800012E0002104F1080003F0C4FA05460BE048
:10319000022104F1280003F06FFB054604E003E080
:1031A00002E001E0012500BF00BF4DB9DE48006824
:1031B00020F46040D4F8A0100843DB49086000E028
:1031C000A8460823D4E90010194000205940404087
:1031D000014317D1D4F88400B0F5805F07D10221F4
:1031E00004F1280003F048FB08B14FF00108CE4875
:1031F000001F006820F44050D4F884100843CA49E6
:10320000091F08601023D4E900101940002059401C
:103210004040014315D1D4F89800B0F5807F07D124
:10322000022104F1280003F027FB08B14FF0010848
:10323000BD48006820F44070D4F898100843BA499B
:1032400008604FF40022D4E9000110400021134629
:1032500058404940084327D1D4F8A40030B1B0F514
:10326000803F0AD0B0F5003F0FD10DE0002104F1FE
:10327000080003F04FFA054609E0022104F1280096
:1032800003F0FAFA054602E001E0012500BF00BFA5
:103290004DB9A548006820F44030D4F8A410084384
:1032A000A149086000E0A8464FF48023D4E900015A
:1032B000184000215840494008432DD1D4F88800D7
:1032C000B0F5801F06D0B0F5001F0CD0B0F5401F40
:1032D00011D10FE094482C38006840F40030924936
:1032E0002C39086009E0012104F1280003F0C4FA38
:1032F000054602E001E0012500BF00BF5DB98A4834
:10330000001F006820F44010D4F888100843864954
:10331000091F086000E0A8464FF48032D4E900019C
:1033200010400021134658404940084325D1206DE4
:1033300018B1B0F5803F10D108E07B482C38006808
:1033400040F4003078492C39086008E0022104F18B
:10335000080003F0DFF9054601E0012500BF00BFCA
:1033600055B971480C38006820F48030216D08434D
:103370006D490C39086000E0A8464FF00052D4E9CE
:10338000001011400020134659404040014307D12E
:10339000022104F1280003F06FFA08B14FF0010890
:1033A0004FF40033D4E9000118400021584049404F
:1033B000084329D1D4F88000A0B1B0F5807F06D0B1
:1033C000B0F5007F0CD0B0F5407F0CD109E0564835
:1033D0002C38006840F4003053492C39086004E070
:1033E00003E002E001E0012500BF00BF5DB94E48E7
:1033F000001F006820F44070D4F8801008434A4948
:10340000091F086000E0A8464FF48012D4E90010BC
:1034100011400020134659404040014309D1424821
:103420000838006820F00040616F08433E490839C1
:1034300008604FF08052D4E900101140002013467C
:103440005940404001430AD137484838006820F4C9
:103450008040D4F8B81008433349483908604FF425
:103460000012D4E90010114000201346594040409A
:10347000014309D12C480838006820F08070E16EC3
:1034800008432949083908604FF08042D4E9001008
:1034900011400020134659404040014311D100BF64
:1034A00021484838006820F400401F494839086026
:1034B00008460068D4F8BC1008431B494839086026
:1034C00000BF4FF00042D4E9001011400020134625
:1034D00059404040014309D113480C38006820F09E
:1034E0004050616D084310490C3908604FF40002E8
:1034F000D4E90010114000201346594040400143D8
:103500000AD10948001F006820F44000D4F88C104C
:1035100008430549091F086001230021606818401D
:1035200001224940504001E058440258014306D16D
:1035300004F1080003F0EEF8054605B1A8460222A2
:1035400000216068104049405040014307D10121EB
:1035500004F1080003F0DEF8054605B1A84604238F
:10356000002061681940042240405140084307D1BF
:10357000022104F1080003F0CDF8054605B1A84684
:103580000823002160681840082249405040014348
:1035900006D104F1280003F06FF9054605B1A846ED
:1035A000102200216068104049405040014307D17B
:1035B000012104F1280003F05FF9054605B1A84692
:1035C000202200206168114040405140084307D14B
:1035D000022104F1280003F04FF9054605B1A84681
:1035E000B8F1000F02D10020BDE8F0810120FBE717
:1035F0002DE9F04104460D4614B90120BDE8F081E3
:10360000BD48006800F00F00A8420ED2BA4800681A
:1036100020F00F002843B84908600846006800F011
:103620000F00A84201D00120E8E7207800F0040054
:1036300004280ED1B1492069096801F0700188425F
:1036400007D9AE48006820F0700021690843AB49F3
:103650000860207800F00800082811D1A749091D4A
:103660006069096801F07001884209D9A348001D0A
:10367000006820F0700061690843A049091D0860D6
:10368000207800F01000102811D19C49091DA06974
:10369000096801F4E061884209D99848001D006872
:1036A00020F4E060A16908439449091D086020786E
:1036B00000F02000202811D190490831E069096804
:1036C00001F07001884209D98C480830006820F068
:1036D0007000E1690843894908310860207800F0EA
:1036E000020002280ED18549E068096801F00F0147
:1036F000884207D98148006820F00F00E16808433C
:103700007E490860207800F00100002850D07B48F6
:10371000006820F47060A168084378490860606818
:10372000022807D1754818380068C0F34040F8B93E
:10373000012063E76068032807D1704818380068E3
:10374000C0F34060A0B9012058E76068012807D1A4
:103750006A4818380068C0F3002048B901204DE7D6
:10376000664818380068C0F3800008B9012045E7B2
:1037700062480838006820F00700616808435F4924
:1037800008390860FEF724FD064608E0FEF720FD34
:10379000801B41F28831884201D903202EE7574827
:1037A0000838006800F038006168B0EBC10FEDD157
:1037B000207800F0020002280ED15049E068096824
:1037C00001F00F01884207D24C48006820F00F003A
:1037D000E1680843494908604748006800F00F0065
:1037E000A8420ED94448006820F00F0028434249FF
:1037F00008600846006800F00F00A84201D00120D0
:10380000FCE6207800F0040004280ED13B49206932
:10381000096801F07001884207D23848006820F03A
:1038200070002169084335490860207800F00800DD
:10383000082811D13149091D6069096801F070013A
:10384000884209D22D48001D006820F0700061698F
:1038500008432A49091D0860207800F0100010284C
:1038600011D12649091DA069096801F4E061884267
:1038700009D22248001D006820F4E060A1690843D5
:103880001E49091D0860207800F02000202811D171
:103890001A490831E069096801F07001884209D2CB
:1038A00016480830006820F07000E16908431349A9
:1038B0000831086000F076F810490968C1F3032167
:1038C0000F4A515C01F01F0120FA01F70B48006814
:1038D00000F00F001146085C00F01F0027FA00F00E
:1038E000084908600848076008480068FEF7B2FC0D
:1038F0008046404682E600000020005218440258EC
:1039000024860008200000241C0000241400002449
:1039100010B500F047F80D490968C1F303210C4ABE
:10392000515C01F01F0120FA01F40848006800F022
:103930000F001146085C00F01F0024FA00F0054952
:103940000860054804600846006810BD1844025825
:1039500024860008200000241C00002400B5FFF786
:10396000D7FF05490968C1F30211044A515C01F00F
:103970001F01C84000BD00001C44025824860008F6
:1039800000B5FFF7C5FF05490968C1F30221044AE4
:10399000515C01F01F01C84000BD00001C440258EA
:1039A00024860008F0B5824E366806F0380636B137
:1039B000082E15D0102E15D0182E7DD114E07C4E77
:1039C000103E3668C6F3401646B1794E103E366852
:1039D000C6F3C107774E26FA07F000E07548E5E028
:1039E0007548E3E07548E1E0714E1836366806F038
:1039F00003046F4E18363668C6F305116C4E1C363C
:103A0000366806F001056A4E24363668C6F3CC06E1
:103A100016FB05F601EE106AB8EE410A002971D0D6
:103A200024B1012C50D0022C6DD16DE0604E103EBF
:103A30003668C6F340163EB35D4E103E3668C6F398
:103A4000C1075C4E26FA07F301EE103AF8EE411A70
:103A500001EE101AB8EE411A81EE812A9FED581A34
:103A6000C0EE011A524E20363668C6F3080601EE43
:103A7000106AB8EE411A31EE811AF7EE001A31EEF3
:103A8000211A62EE010A1EE001EE101AB8EE411A88
:103A9000DFED4C1A81EE812A9FED491AC0EE011A22
:103AA000434E20363668C6F3080601EE106AB8EEBB
:103AB000411A31EE811A00E076E0F7EE001A31EE9D
:103AC000211A62EE010A5BE001EE101AB8EE411A0B
:103AD0009FED3D2AC2EE011A9FED391A80EE012AB0
:103AE000334E20363668C6F3080601EE106AB8EE8B
:103AF000411A32EE011AB7EE002A31EE021A61EED7
:103B0000810A3DE04EE01DE001EE101AB8EE411AC8
:103B1000DFED2E1A81EE812A9FED291AC0EE011ADF
:103B2000234E20363668C6F3080601EE106AB8EE5A
:103B3000411A31EE811AF7EE001A31EE211A62EEC7
:103B4000010A1DE001EE101AB8EE411A9FED1E2A7F
:103B5000C2EE011A9FED1A1A80EE012A144E203689
:103B60003668C6F3080601EE106AB8EE411A32EE66
:103B7000011AB7EE002A31EE021A61EE810A00BF87
:103B800000BF0B4E20363668C6F34626721C01EE87
:103B9000102AB8EE411AC0EE811ABCEEE11A11EEFD
:103BA000100A00E0002001E0034800BF00BFF0BDA4
:103BB000104402580090D00300093D0000127A0022
:103BC000000000460024744C0024744A0024F44A87
:103BD0002DE9F047044614B90120BDE8F0872078AC
:103BE00000F00100002870D0FA48006800F03808A2
:103BF000F8481830D0F80090B8F1100F06D0B8F19E
:103C0000180F0FD109F0030002280BD1F14810382A
:103C10000068C0F3404000286AD06068002867D17F
:103C20000120DAE700BF6068B0F5803F08D1E948BD
:103C30001038006840F48030E649103908602EE002
:103C4000606868B9E3481038006820F48030E149C2
:103C5000103908600846006820F4802008601EE0E3
:103C60006068B0F5A02F0DD1DA481038006840F434
:103C70008020D849103908600846006840F4803038
:103C800008600CE0D3481038006820F48030D14937
:103C9000103908600846006820F48020086000BFE2
:103CA000606898B1FEF794FA054606E0FEF790FAD0
:103CB000401B642801D903208FE7C64810380068EC
:103CC000C0F340400028F1D012E012E0FEF780FA85
:103CD000054606E0FEF77CFA401B642801D9032064
:103CE0007BE7BC4810380068C0F340400028F1D1A1
:103CF00000BF207800F00200022874D1B5480068A7
:103D000000F03808B3481830D0F80090B8F1000F30
:103D100005D0B8F1180F56D109F00300D0BBAD485B
:103D200010380068C0F3800018B1E06808B90120BD
:103D300053E7A8481038006820F01900E1680843EC
:103D4000A44910390860FEF743FA054606E0FEF77D
:103D50003FFA401B022801D903203EE79D48103856
:103D60000068C0F380000028F1D000BFFEF72AFAF7
:103D700041F2030188421AD8206940280BD19548A6
:103D80000C38006820F47C3040F4003091490C3944
:103D9000086017E017E08F480C38006820F47C308A
:103DA000216940EA01308B490C3908600AE08948F2
:103DB0000C38006820F0FE40217C40EA0160854913
:103DC0000C39086066E0E06888B382481038006803
:103DD00020F01900E16808437E4910390860FEF7B9
:103DE000F7F9054607E056E0FEF7F2F9401B022816
:103DF00001D90320F1E6774810380068C0F380004D
:103E00000028F1D000BFFEF7DDF941F2030188423E
:103E10001AD8206940280BD16E480C38006820F46D
:103E20007C3040F400306B490C39086017E017E033
:103E300068480C38006820F47C30216940EA013081
:103E400064490C3908600AE062480C38006820F0C8
:103E5000FE40217C40EA01605E490C39086019E0AF
:103E60005C481038006820F001005A491039086099
:103E7000FEF7AEF9054606E0FEF7AAF9401B022858
:103E800001D90320A9E6534810380068C0F3800028
:103E90000028F1D100BF207800F0100010287CD15C
:103EA0004C48006800F038084A481830D0F80090B4
:103EB000B8F1080F06D0B8F1180F3DD109F0030092
:103EC000012839D1434810380068C0F3002020B1E0
:103ED000E069802801D001207FE600BFFEF772F97B
:103EE00041F2030188421AD8206A20280AD13948B1
:103EF0000C38006820F0F84040F0804035490C391B
:103F0000086018E033480C38006820F0F84094F856
:103F1000201040EA81602F490C3908600BE02D48E1
:103F2000001F006820F07C5094F8201040EA0160E7
:103F30002849091F086066E0E06978B32548103811
:103F4000006840F08000234910390860FEF740F90E
:103F5000054606E0FEF73CF9401B022801D9032084
:103F60003BE61C4810380068C0F300200028F1D060
:103F700000BFFEF727F941F2030188421CD8206AEE
:103F800020280CD113480C38006820F0F84040F08D
:103F9000804010490C3908601AE035E01CE00D48FB
:103FA0000C38006820F0F84094F8201040EA816056
:103FB00008490C3908600BE00648001F006820F033
:103FC0007C5094F8201040EA01600249091F086003
:103FD00019E0000010440258FA48006820F0800000
:103FE000F8490860FEF7F4F8054606E0FEF7F0F839
:103FF000401B022801D90320EFE5F2480068C0F316
:1040000000200028F2D100BF207800F00800082826
:1040100036D16069D0B1EB487430006840F00100DF
:10402000E84974310860FEF7D3F8054606E0FEF76C
:10403000CFF8401B022801D90320CEE5E1487430B7
:104040000068C0F340000028F1D019E0DD4874306A
:10405000006820F00100DB4974310860FEF7B8F811
:10406000054606E0FEF7B4F8401B022801D90320FC
:10407000B3E5D44874300068C0F340000028F1D1A3
:10408000207800F02000202830D1A069B8B1CD48B8
:10409000006840F48050CB490860FEF799F8054667
:1040A00006E0FEF795F8401B022801D9032094E5AD
:1040B000C4480068C0F340300028F2D016E0C14880
:1040C000006820F48050BF490860FEF781F805467B
:1040D00006E0FEF77DF8401B022801D903207CE5AD
:1040E000B8480068C0F340300028F2D1207800F0D2
:1040F000040004287DD1B448006840F48070B249BF
:104100000860FEF765F8054606E0FEF761F8401B1B
:10411000642801D9032060E5AB48006800F4807092
:104120000028F2D000BFA068012808D1A54870304F
:10413000006840F00100A349703108602DE0A068DC
:1041400068B9A0487030006820F001009D497031C6
:1041500008600846006820F0040008601DE0A068C0
:1041600005280DD197487030006840F0040095494B
:10417000703108600846006840F0010008600CE0FB
:1041800090487030006820F001008E49703108605E
:104190000846006820F00400086000BFA068A0B1D5
:1041A000FEF716F8054608E0FEF712F8401B41F24C
:1041B0008831884201D903200FE5824870300068B9
:1041C000C0F340000028EFD013E0FEF701F80546E9
:1041D00008E0FDF7FDFF401B41F28831884201D91C
:1041E0000320FAE4774870300068C0F340000028EC
:1041F000EFD1606A00287DD072481030006800F06E
:104200003800182877D0606A022875D16D48006898
:1042100020F080706B490860FDF7DAFF054606E084
:10422000FDF7D6FF401B022801D90320D5E46548DD
:104230000068C0F340600028F2D100BFD4E90A1042
:1042400041EA00105F492831096840F2F332914396
:1042500008435C4928310860208E401EC0F30800E6
:10426000616B491E4FF47E4202EA41210843218FCF
:10427000491ED20102EA014108433C21095D491E61
:10428000120202EA016108434E493031086000BF62
:10429000081F006820F00100091F086049483430F9
:1042A00000684FF6F8718843A16C40EAC1004549A7
:1042B0003431086043482C30006820F00C00216C39
:1042C000084340492C3108600846006820F002008D
:1042D000616C08433B492C3108600846006840F493
:1042E000803008600846006840F4003008600846E6
:1042F000006802E093E038E01FE040F480200860AE
:104300000846006840F0010008602E48006840F050
:1043100080702C490860FDF75BFF054606E0FDF75D
:1043200057FF401B022801D9032056E425480068A6
:10433000C0F340600028F2D071E02248006820F00D
:10434000807020490860FDF743FF054606E0FDF751
:104350003FFF401B022801D903203EE419480068B2
:10436000C0F340600028F2D159E0164828300768B1
:10437000144830300668606A012821D007F0030134
:10438000A06A81421CD1C7F30511E06A884217D1A7
:10439000C6F30801206B401E814211D1606B401EA4
:1043A000C6F3462188420BD1A06B401EC6F30641DE
:1043B000884205D1E06B401EC6F30661884205D0F5
:1043C00001200AE4004402580048025815480068D9
:1043D000C0F3CC07A06CB84221D01248083800685E
:1043E00020F001000F4908390860FDF7F1FE05468D
:1043F00000BFFDF7EDFE401BFBD00A4800684FF6FA
:10440000F8718843A16C40EAC1000649086005487C
:104410000838006840F001000249083908600020AF
:104420004AE4000034440258704700002DE9F05F70
:104430000446206807692068D0F8148007EA080558
:104440002068D0F808904FF0000A94F88160206846
:1044500000F1300B08F40060B0F5006F0ED107F0EA
:10446000080008280AD12068806940F400602168AB
:104470008861204600F073FBBDE8F09F05F0400026
:1044800070B905F0200058B905F00400042807D1E0
:104490002046616F88472046216F88474FF0010A08
:1044A00005F0400050B905F0010038B105F00400F6
:1044B00020B92046216F88474FF0010A05F02000FF
:1044C00058B905F00200022807D105F0040020B910
:1044D0002046616F88474FF0010ABAF1000F00D003
:1044E000CAE705F00800082863D12068806940F019
:1044F0000800216888612068806940F01000216808
:1045000088612068806940F40060216888612068C3
:10451000006920F00800216808612068806800F4C4
:10452000404038BB22E0E0680F2807D92068006BC4
:10453000616E0860606E001D606612E0E06807282A
:1045400007D9BBF80000616E0880606E801C606651
:1045500007E0206890F83000616E0870606E401CC3
:104560006066B4F86A00401EA4F86A00B4F86A00F5
:104570000028D8D1204602F0CBFA012084F881002F
:10458000D4F8840018B12046FFF74EFF74E7052EDB
:1045900003D1204600F04FFC0AE0042E03D1204650
:1045A00000F0DCFA04E0032E02D1204600F042FCC9
:1045B00062E705F4587000287DD005F0400058B13E
:1045C000D4F8840040F00400C4F8840020688069B6
:1045D00040F040002168886105F4007058B1D4F8BB
:1045E000840040F00100C4F884002068806940F431
:1045F00000702168886105F4807058B1D4F8840097
:1046000040F00800C4F884002068806940F480709D
:104610002168886105F0200058B1D4F8840040F08A
:104620008000C4F884002068806940F02000216880
:104630008861D4F88400A8B32068006820F00100E5
:10464000216808602068006940F26B318843216866
:10465000086109F44040B0F5404F25D120688068DA
:1046600020F4404021688860E06F60B11348E16F3A
:104670000865E06FFCF7B6FA28B1D4F8840040F082
:104680004000C4F88400A06F60B10C48A16F0865B9
:10469000A06FFCF7A7FA28B1D4F8840040F04000DE
:1046A000C4F8840006E006E0012084F8810020467A
:1046B000FFF7BAFEE0E600BFDEE60000E76B0008A9
:1046C00070B504460CB9012070BD606A00B900BF26
:1046D0000021A1626349206888420CD062492068A9
:1046E000884208D061492068884204D0E0680F28D9
:1046F00001D90120E8E7204602F083FA054659492E
:104700002068884209D058492068884205D0574916
:104710002068884201D0082D0DD85249206888426F
:1047200007D051492068884203D050492068884208
:1047300003D1102D01D90120C6E794F8810028B9D2
:10474000002084F88000204600F092F8022084F8CF
:1047500081002068006820F001002168086020685E
:10476000806800F4F816A069B0F1806F11D160681C
:10477000B0F5800F01D1A06B28B1606848B9A06B7B
:10478000B0F1805F05D12068006840F48050216856
:104790000860606800F48000B0F5800F0BD1E0681D
:1047A000072808D32068006820F48070216D084332
:1047B0002168086005E02068006820F480702168A6
:1047C0000860A16AE06908433043E16B0843E1688F
:1047D000084321688860616A606B0843A16B0843E5
:1047E000A16908432169084361690843216A0843B4
:1047F00061680843E16C0843A1680843A16C084361
:10480000A16D08432168C860606878B92068806835
:1048100020F4C05040F400602168886020688068FF
:1048200020F4C06040F48060216888602068006DDA
:1048300020F0010021680865606800F48000B0F590
:10484000800F07D12068C06820F00040616D0843E8
:104850002168C8600020C4F88400012084F8810029
:10486000002031E70030014000380040003C0040AB
:1048700010B5B8B00446142132A8FBF763FDC0217F
:1048800002A8FBF75FFD2249206888423ED18114CF
:104890000020CDE9021088001A9002A8FDF7F4FF6D
:1048A00008B1FBF72DFF00BF1A48006840F48050A4
:1048B000184908600846006800F48050019000BF65
:1048C00000BF00BF13481038006840F001001149D4
:1048D000103908600846006800F00100019000BF30
:1048E00000BFA020329002203390002034903590F9
:1048F0000520369032A90848FDF760FB00221146DA
:104900002320FDF7FDFC2320FDF7E6FC38B010BDA9
:1049100000300140F0440258000002582DE9F047F1
:104920000446884616461D464FF00009206800F1EF
:10493000300A00BF94F88000012802D10220BDE8AF
:10494000F087012084F8800000BFFDF741FC074696
:1049500094F88100012808D04FF0020900BF002020
:1049600084F8800000BF4846E9E7B8F1000F00D0A6
:1049700046B94FF0010900BF002084F8800000BF55
:104980004846DCE704205C3484F825000020A0625F
:10499000C4F80880A681E6812060A080E080606184
:1049A000A0615C3CA068B0F5C02F06D1206800680B
:1049B00020F400602168086007E02068C06820F4E7
:1049C000C02040F480202168C860206840686FF3F0
:1049D0000F003043216848602068006840F0010003
:1049E000216808606068B0F5800F05D12068006814
:1049F00040F4007021680860E0680F2833D92DE08A
:104A00002068406948F20801084060B12068006BE6
:104A1000616E0860606E001D6066B4F86A00401E3A
:104A2000A4F86A001AE0FDF7D3FBC01BA84201D32B
:104A3000681C00B995B9204602F06AF800BF002052
:104A400084F8800000BFD4F8840040F48070C4F87B
:104A50008400012084F88100032070E7B4F86A0024
:104A60000028CDD168E0E068072832D92CE0206822
:104A7000406900F0010060B1BAF80000616E088082
:104A8000606E801C6066B4F86A00401EA4F86A007C
:104A90001AE0FDF79DFBC01BA84201D3681C00B9BA
:104AA00095B9204602F034F800BF002084F8800059
:104AB00000BFD4F8840040F48070C4F88400012062
:104AC00084F8810003203AE7B4F86A000028CED1C8
:104AD00032E02DE02068406900F0010068B12068F4
:104AE00090F83000616E0870606E401C6066B4F82B
:104AF0006A00401EA4F86A001AE0FDF769FBC01BBB
:104B0000A84201D3681C00B995B9204602F000F80C
:104B100000BF002084F8800000BFD4F8840040F477
:104B20008070C4F88400012084F88100032006E727
:104B3000B4F86A000028CDD1204601F0E9FF00BF9B
:104B4000002084F8800000BF012084F88100D4F8A0
:104B5000840008B10120F2E64846F0E6704770474D
:104B60002DE9F84F0446884617461D46206800F197
:104B700020094FF0000A00BF94F88000012802D1FC
:104B80000220BDE8F88F012084F8800000BFFDF707
:104B90001FFB064694F88100012808D04FF0020A56
:104BA00000BF002084F8800000BF5046E9E7B8F15C
:104BB000000F00D047B94FF0010A00BF002084F871
:104BC000800000BF5046DCE703205C3484F82500F9
:104BD0000020A062C4F80080A780E780A060A081C8
:104BE000E081A06160615C3CA068B0F5C02F06D197
:104BF0002068006840F400602168086007E02068D1
:104C0000C06820F4C02040F400302168C8602068EB
:104C100040686FF30F0038432168486020680068DF
:104C200040F00100216808606068B0F5800F05D190
:104C30002068006840F4007021680860E0680F2870
:104C400033D92DE02068406900F0020002280CD121
:104C5000E06D006821680862E06D001DE065B4F851
:104C60006200401EA4F862001AE0FDF7B1FA801B52
:104C7000A84201D3681C00B995B9204601F048FF4D
:104C800000BF002084F8800000BFD4F8840040F406
:104C90008070C4F88400012084F88100032070E74C
:104CA000B4F862000028CDD1A4E0E068072846D916
:104CB00040E02068406900F0020002281FD1B4F8EB
:104CC000620001280ED9E06B60B1E06D00682168D8
:104CD0000862E06D001DE065B4F86200801EA4F873
:104CE000620027E0E06D0088A9F80000E06D801CFC
:104CF000E065B4F86200401EA4F862001AE0FDF717
:104D000067FA801BA84201D3681C00B995B92046F8
:104D100001F0FEFE00BF002084F8800000BFD4F840
:104D2000840040F48070C4F88400012084F881007D
:104D3000032026E7B4F862000028BAD15AE055E013
:104D40002068406900F00200022834D1B4F8620003
:104D500003280FD9E06B40280CD9E06D006821686A
:104D60000862E06D001DE065B4F86200001FA4F861
:104D700062003BE0B4F8620001280ED9E06B60B13C
:104D8000E06D0088A9F80000E06D801CE065B4F8D3
:104D90006200801EA4F8620028E0E06D00782168BF
:104DA00081F82000E06D401CE065B4F86200401E10
:104DB000A4F862001AE0FDF70BFA801BA84201D3A9
:104DC000681C00B995B9204601F0A2FE00BF002082
:104DD00084F8800000BFD4F8840040F48070C4F8E8
:104DE0008400012084F881000320CAE6B4F8620040
:104DF0000028A5D12B46002208212046009601F06C
:104E00000DFF28B1D4F8840040F02000C4F88400DD
:104E1000204601F07DFE00BF002084F8800000BF26
:104E2000012084F88100D4F8840008B10120A8E6AC
:104E30005046A6E67047704770B504462546681E82
:104E4000B0F1807F01D301200FE0681E4FF0E02118
:104E500048610F214FF0FF3003F082F800204FF03F
:104E6000E021886107200861002070BD704770470D
:104E70007047000030B502460B4600BF92F83C0078
:104E8000012801D1022030BD012082F83C0000BF82
:104E9000022082F83D001068416810688468214D46
:104EA0001068A84203D0204D1068A84203D121F415
:104EB00070015868014321F07001186801431068BF
:104EC0004160184D1068A8421BD01068B0F1804FA7
:104ED00017D0164D1068A84213D0154D1068A8427F
:104EE0000FD0144D1068A8420BD00F4D1068A84287
:104EF00007D0114D1068A84203D0104D1068A84289
:104F000005D124F08004986804431068846001206F
:104F100082F83D0000BF002082F83C0000BF00BFC7
:104F2000B1E700000000014000040140000400401F
:104F300000080040000C0040001800400040014004
:104F400010B504460CB9012010BD94F83D0028B9F5
:104F5000002084F83C00204600F02AF8022084F863
:104F60003D00211D206801F0ABFF012084F84800BE
:104F700000BF84F83E0001213F200155402001552B
:104F800041200155422001554320015500BF00BF7B
:104F9000012084F844004520015546200155472052
:104FA000015500BF012084F83D000020CCE700003F
:104FB00010B586B00446142101A8FBF7C3F92B49AC
:104FC0002068884234D100BF2948006840F00100C1
:104FD000274908600846006800F00100009000BF03
:104FE00000BF00BF22481038006840F01000204980
:104FF000103908600846006800F01000009000BFFB
:1050000000BF4FF400700190022002900020039036
:1050100004900120059001A91648FCF7CFFF00225B
:1050200011461B20FDF76CF91B20FDF755F91BE01D
:105030002068B0F1804F17D100BF0D4808380068D4
:1050400040F001000A49083908600846006800F08D
:105050000100009000BF00BF002211461C20FDF798
:105060004FF91C20FDF738F906B010BD00000140D3
:10507000F0440258001002582DE9F04104460D4654
:10508000002700BF94F83C00012802D10220BDE8AF
:10509000F081012084F83C0000BF022084F83D002C
:1050A000206886684048064026F47F46206886606F
:1050B0002868702826D00CDC00F00F01002966D18A
:1050C0000011072863D2DFE800F0555657584B37D8
:1050D0004100B0F1101F52D009DCB0F5805F10D054
:1050E000B0F5005F1BD0B0F5801F50D146E0A0F5B1
:1050F00080102038002843D0102842D0202846D1E4
:1051000040E046E0D5E902136A68206801F04FFFED
:105110002068866846F077062068866039E0D5E921
:1051200002136A68206801F042FF2068806840F43A
:105130008040216888602CE0EA686968206802F095
:1051400095F95021206801F03DFF22E0EA68696886
:10515000206802F0E7F96021206801F033FF18E0D1
:10516000EA686968206802F081F94021206801F04E
:1051700029FF0EE000BF00BF00BF00BF00BF00BF9F
:1051800000BF00BF2968206801F01CFF01E0012773
:1051900000BF00BF012084F83D0000BF002084F85C
:1051A0003C0000BF384672E788FFCEFF10B50446CA
:1051B0000949206888420DD1207F01280AD107487B
:1051C000006800B2064908800846B0F9001005A042
:1051D00002F0AEFE10BD000000000140100C0258AD
:1051E0000800002425640D0A000000002DE9F041AC
:1051F00004460D461646002700BF94F83C000128DF
:1052000002D10220BDE8F081012084F83C0000BFFB
:1052100096B9EB68D5E90012206802F03BF92068E6
:10522000806920F00C002168886120688069A96885
:1052300008432168886141E0042E13D1EB68D5E969
:105240000012206802F082F92068806920F4406032
:105250002168886120688069A96840EA0120216886
:1052600088612BE0082E12D1EB68D5E90012206886
:1052700002F089F92068C06920F00C002168C8613B
:105280002068C069A96808432168C86116E00C2E2F
:1052900013D1EB68D5E90012206802F090F920687C
:1052A000C06920F440602168C8612068C069A968AD
:1052B00040EA01202168C86100E0012700BF00200A
:1052C00084F83C0000BF38469CE710B504460CB992
:1052D000012010BD94F83D0028B9002084F83C005E
:1052E000204600F029F8022084F83D00211D2068A6
:1052F00001F0E6FD012084F8480000BF84F83E007C
:1053000001213F20015540200155412001554220F7
:1053100001554320015500BF00BF012084F844001F
:1053200045200155462001554720015500BF012069
:1053300084F83D000020CCE7704700002DE9F043E1
:1053400004460D46002715B994F83E0015E0042DDB
:1053500002D13F20005D10E0082D02D14020005D09
:105360000BE00C2D02D14120005D06E0102D02D192
:105370004220005D01E04320005D804615B994F8AD
:1053800044000BE0042D02D14520005D06E0082D0D
:1053900002D14620005D01E04720005D8146B8F162
:1053A000010F02D1B9F1010F02D00120BDE8F08355
:1053B0001DB9022084F83E001AE0042D03D1022119
:1053C0003F20015514E0082D03D102214020015552
:1053D0000EE00C2D03D102214120015508E0102DD3
:1053E00003D102214220015502E002214320015550
:1053F0001DB9022084F844000EE0042D03D10221DF
:105400004520015508E0082D03D102214620015511
:1054100002E002214720015535B1042D0BD0082DA3
:1054200010D00C2D1CD114E02068C06840F00200A0
:105430002168C86016E02068C06840F00400216858
:10544000C8600FE02068C06840F008002168C860AC
:1054500008E02068C06840F010002168C86001E0E2
:10546000012700BF00BFA7BB01222946206801F029
:105470008DFD1C49206888421BD02068B0F1804F08
:1054800017D019492068884213D0184920688842EB
:105490000FD01749206888420BD0164920688842EF
:1054A00007D015492068884203D0144920688842F3
:1054B00010D120688068124900EA0106062E0FD03C
:1054C000B6F5803F0CD02068006840F001002168EC
:1054D000086005E02068006840F00100216808606D
:1054E000384663E700000140000400400008004027
:1054F000000C004000040140001800400040014042
:105500000700010010B5044620680069C0F34000A0
:10551000D8B12068C068C0F34000B0B16FF002009D
:1055200021680861012020772068806900F003006D
:1055300018B12046FFF73AFE05E0204600F0ECF8EF
:10554000204600F0DAF90020207720680069C0F3D7
:105550008000D8B12068C068C0F38000B0B16FF09F
:10556000040021680861022020772068806900F427
:10557000407018B12046FFF719FE05E0204600F004
:10558000CBF8204600F0B9F90020207720680069A8
:10559000C0F3C000D8B12068C068C0F3C000B0B18B
:1055A0006FF0080021680861042020772068C06936
:1055B00000F0030018B12046FFF7F8FD05E0204693
:1055C00000F0AAF8204600F098F900202077206823
:1055D0000069C0F30010D8B12068C068C0F30010A3
:1055E000B0B16FF0100021680861082020772068B2
:1055F000C06900F4407018B12046FFF7D7FD05E000
:10560000204600F089F8204600F077F90020207746
:105610002068006900F0010058B12068C06800F0FF
:10562000010030B16FF0010021680861204600F0F0
:1056300017FA20680069C0F3C01058B12068C0682C
:10564000C0F3C01030B16FF08000216808612046BF
:10565000FFF70DFC20680069C0F3002058B12068F6
:10566000C068C0F3C01030B16FF480702168086169
:105670002046FFF7FBFB20680069C0F3801058B19B
:105680002068C068C0F3801030B16FF0400021681E
:105690000861204600F01BFA20680069C0F3401042
:1056A00058B12068C068C0F3401030B16FF02000DE
:1056B000216808612046FFF7DBFB10BD10B586B0FE
:1056C0000446142101A8FAF73DFE2068B0F1804F8E
:1056D0001BD100BF0E48006840F001000C49086073
:1056E0000846006800F00100009000BF00BF0120E4
:1056F00001900220029000200390032004900120DA
:10570000059001A90348FCF759FC06B010BD000044
:10571000E04402580000025870472DE9F041044669
:105720000D461646002700BF94F83C00012802D120
:105730000220BDE8F081012084F83C0000BF0C2E5F
:1057400051D005DC4EB1042E1ED0082E7AD133E0A4
:10575000102E60D0142EF9D175E02946206801F092
:105760003DFC2068806940F008002168886120685D
:10577000806920F0040021688861206880692969B7
:1057800008432168886178E02946206801F07CFCA4
:105790002068806940F40060216888612068806921
:1057A00020F480602168886120688069296940EA66
:1057B00001202168886160E02946206801F0BEFC74
:1057C0002068C06940F008002168C8612068C0698D
:1057D00020F004002168C8612068C0692969084375
:1057E0002168C86149E02946206801F001FD206870
:1057F000C06940F400602168C8612068C06920F475
:1058000080602168C8612068C069296940EA012078
:105810002168C86131E02946206801F023FD206835
:10582000406D40F00800216848652068406D20F018
:105830000400216848652068406D29690843216893
:1058400048651AE017E02946206801F043FD20680A
:10585000406D40F40060216848652068406D20F488
:105860008060216848652068406D296940EA012010
:105870002168486501E0012700BF00BF00BF00208C
:1058800084F83C0000BF384653E710B504460CB915
:10589000012010BD94F83D0028B9002084F83C0098
:1058A000204600F029F8022084F83D00211D2068E0
:1058B00001F006FB012084F8480000BF84F83E0098
:1058C00001213F2001554020015541200155422032
:1058D00001554320015500BF00BF012084F844005A
:1058E00045200155462001554720015500BF0120A4
:1058F00084F83D000020CCE77047704770B504463F
:105900000D4615B994F83E0015E0042D02D13F2054
:10591000005D10E0082D02D14020005D0BE00C2D51
:1059200002D14120005D06E0102D02D14220005D31
:1059300001E04320005D012801D0012070BD1DB9A8
:10594000022084F83E001AE0042D03D102213F20FA
:10595000015514E0082D03D10221402001550EE02D
:105960000C2D03D102214120015508E0102D03D157
:1059700002214220015502E002214320015501226B
:105980002946206801F002FB2B49206888420FD08D
:105990002A49206888420BD029492068884207D0CC
:1059A00028492068884203D027492068884201D1CD
:1059B000012000E0002028B12068406C40F4004045
:1059C000216848641C49206888421BD02068B0F1D7
:1059D000804F17D01D492068884213D01C49206889
:1059E00088420FD01B49206888420BD01349206899
:1059F000884207D018492068884203D0104920689F
:105A0000884210D120688068144900EA0106062EF9
:105A10000FD0B6F5803F0CD02068006840F0010040
:105A20002168086005E02068006840F001002168F6
:105A30000860002082E700000000014000040140EF
:105A40000040014000440140004801400004004083
:105A500000080040000C0040001800400700010052
:105A6000704770B504460D4600BF94F83C0001280D
:105A700001D1022070BD012084F83C0000BF02204B
:105A800084F83D002946204601F05CFC48B1012025
:105A900084F83D0000BF002084F83C0000BF0120D6
:105AA000E8E72068C06820F040002168C8602068EE
:105AB000C06820F480402168C860012084F83D005F
:105AC00000BF002084F83C0000BF00BFD2E7704751
:105AD000014600BF91F88400012801D102207047DF
